:020000040002F8
:10600000B8AC0020DD630200E5630200E763020034
:10601000E9630200EB630200ED6302000000000090
:10602000000000000000000000000000EF6302001C
:10603000F163020000000000F3630200F563020058
:10604000C9670200F7630200C1690200F76302003A
:10605000F7630200F7630200B1650200F763020014
:10606000F7630200F7630200F7630200F7630200C0
:10607000F7630200F7630200F7630200F7630200B0
:10608000F763020021680200F7630200F763020071
:1060900045680200F763020049680200F7630200E6
:1060A000F7630200F7630200F7630200F763020080
:1060B000F7630200F7630200000000000000000028
:1060C000F7630200F7630200F7630200F763020060
:1060D000F7630200F7630200F7630200F763020050
:1060E000F7630200F7630200F7630200000000009C
:1060F00000000000F763020000000000F7630200E8
:10610000000000000000000000000000000000008F
:10611000000000000000000000000000000000007F
:10612000000000000000000000000000000000006F
:10613000000000000000000000000000000000005F
:10614000000000000000000000000000000000004F
:10615000000000000000000000000000000000003F
:10616000000000000000000000000000000000002F
:10617000000000000000000000000000000000001F
:10618000000000000000000000000000000000000F
:1061900000000000000000000000000000000000FF
:1061A00000000000000000000000000000000000EF
:1061B00000000000000000000000000000000000DF
:1061C00000000000000000000000000000000000CF
:1061D00000000000000000000000000000000000BF
:1061E00000000000000000000000000000000000AF
:1061F000000000000000000000000000000000009F
:10620000DFF80CD000F096F900480047F1C2020018
:10621000B8AC002000B583B002900091019244F226
:10622000010071466A4600F0E3FF03B000BD0000C4
:1062300030B450E8012F93B2C48923448489A34227
:1062400028BF1B1B0489A34202BFBFF32F8F00206E
:1062500007E0C3EA020340E80134002CE9D14FF023
:1062600001000A6030BC704750E8012FC2EA0242C8
:1062700040E801210029F7D1704730B450E8022FDF
:106280001FFAA2F3C488A34202BFBFF32F8F0020DE
:106290000DE0C48923448489A34228BF1B1BC2EAA2
:1062A000034340E80234002CE8D14FF001000A60BB
:1062B00030BC704750E8022FC2EA224240E8022177
:1062C0000029F7D17047034653E8022FD988B2EB73
:1062D000324F4FF0000017BF92B241EA014142EA4B
:1062E000014104E05A68B2EB324F08BF012043E895
:1062F0000212002AE8D1704730B4044654E8000F77
:106300000D4644E80053002BF8D1156030BC7047AF
:1063100030B4044654E8000F40EA010544E8005355
:10632000002BF7D1156030BC704730B4044654E8F8
:10633000000F00EA010544E80053002BF7D1156077
:1063400030BC704730B4044654E8000F80EA0105C1
:1063500044E80053002BF7D1156030BC704730B4CF
:10636000044654E8000F00EB010544E80053002BFD
:10637000F7D1156030BC704730B4044654E8000FC4
:10638000A0EB010544E80053002BF7D1156030BCA9
:10639000704770B404464FF0000054E8006F0D6879
:1063A000AE4207BF44E80023012044E800630E60CA
:1063B000002B1CBF0020F0E770BC704730B40446CF
:1063C00054E8000F88422CBF451A054644E80053A4
:1063D000002BF5D1156030BC70470000064880479F
:1063E00006480047FEE7FEE7FEE7FEE7FEE7FEE7BA
:1063F000FEE7FEE7FEE7FEE74D68020001620200ED
:106400002DE9F05F0546002092469B4688460646E9
:10641000814640241BE0284641464746224600F07C
:1064200079F853465A46C01A914110D3114618467E
:10643000224600F016F82D1A67EB01084F46224657
:106440000120002100F00DF817EB00094E41201E3D
:10645000A4F10104DFDC484631462A464346BDE844
:10646000F09F202A04DB203A00FA02F10020704756
:106470009140C2F1200320FA03F319439040704782
:1064800000487047D846030040EA01039B0703D049
:1064900009E008C9121F08C0042AFAD203E011F863
:1064A000013B00F8013B521EF9D27047D2B201E025
:1064B00000F8012B491EFBD270470022F6E710B509
:1064C00013460A4604461946FFF7F0FF204610BD62
:1064D000421C10F8011B0029FBD1801A704710B52F
:1064E000002200E0521C835C8C5CA34201D1002B93
:1064F000F8D1D8B2E1B2401A10BD30B50446002040
:10650000034600E05B1C934203D2E05CCD5C401B81
:10651000F8D030BD202A04DB203A21FA02F0002115
:10652000704721FA02F3D040C2F1200291400843A3
:1065300019467047064C074D06E0E06840F001033D
:1065400094E8070098471034AC42F6D3FFF75CFE9E
:10655000186103003861030070B58C1810F8015BF6
:1065600015F0070301D110F8013B2A1106D110F8EC
:10657000012B03E010F8016B01F8016B5B1EF9D1F0
:106580002B0705D40023521E0DD401F8013BFAE776
:1065900010F8013BCB1A921C03E013F8015B01F8E1
:1065A000015B521EF9D5A142D8D3002070BD000076
:1065B0002DE9F04F00268DB0DFF8A081B14604969A
:1065C0004FF48075012437460596284607F064FA93
:1065D00038B1D8F80403204203D0284607F052FA15
:1065E00026432D1D64007F1CADB2082FEDD34FF460
:1065F000BE74204607F050FA48B1204607F042FA30
:1066000046F0004604AA0221002007F025FA544C67
:1066100016F0FF0F15D00127002537420DD008EBEB
:106620008501D1F81005D1F81015C0F3052054F8F4
:106630002520C1F3014102B190477F006D1C082D58
:10664000EBD3002E7EDA0020CDF82890411E0DF10C
:10665000100B07AACDF82C9042F82010401C914650
:106660000228F9D300252E46A11911F8607F91F96F
:10667000000027F0C008401C40D007A9404606F0A3
:10668000DDF940B34FEA971A404602F0F3FF54F8A1
:1066900020701FB1BAF1030F03D006E0BAF1030F67
:1066A0002CD10AA9404606F0D1F902A8CDF80880FD
:1066B00007F052F9029900EB8100D0F8000704A915
:1066C000C0F301400290404606F0B8F90028029855
:1066D00002D0022802D011E003280FD1BAF1030F33
:1066E00008D10298022833D00221404607F004F96D
:1066F0006D1CEDB217B151464046B847761C042ECA
:10670000B2D3002D21D001AA0221002007F0A4F964
:1067100000205A460DF1040152F8206051F8203053
:10672000B34217D000200AAE4FEA090351F8207097
:1067300042F8207056F8207043F82070401C022860
:10674000F4D300E001E0002D8CD10DB0BDE8F08F56
:106750000321CAE7401C0228DED3F6E700600040B0
:10676000EC76002000F01F020121914040098000DA
:1067700000F1E020C0F88012704700F01F020121F4
:1067800091404009800000F1E020C0F800117047FE
:1067900000F01F02012191404009800000F1E0203B
:1067A000C0F8001270474907090E002806DA00F009
:1067B0000F0000F1E02080F8141D704700F1E02088
:1067C00080F800147047000070B54FF480763046B2
:1067D00006F026FC114CB50560B1304606F027FCEA
:1067E0000120C5F80803607920B901206071216893
:1067F000002088474FF48276304606F011FC0028CE
:106800000AD0304606F013FC0220C5F808032168C0
:10681000BDE870400120084770BD000014610020F1
:1068200007480021C0F84011C0F84411C0F84811D1
:10683000C0F84C11C0F80011C0F804110CF0D2BD22
:10684000001001400CF01CBD07F0EABF4FF0805073
:1068500000218300D0F83021C3F80C11C3F81011C7
:106860004B4B19604B4909684B4B19604949091D4D
:1068700009681B1D19604749083109681B1D19600B
:1068800044490C3109681B1D1960424910310968DF
:106890001B1D19603F49143109681B1D19603D49D2
:1068A000183109683C4B203319603A491C3109689A
:1068B0001B1D19603749203109681B1D19603549B6
:1068C000243109681B1D19603249283109681B1DD4
:1068D000196030492C3109681B1D19602D49303170
:1068E00009682D4B403319602A49343109681B1D52
:1068F00019602849383109681B1D196025493C3148
:1069000009681B1D19602349403109681B1D196066
:10691000082A02D1D0F8341111B1082A04D006E0B7
:106920001F4A1E49116005E0D0F8341111B1082A40
:1069300004D006E01B4AFB21116005E0D0F83411B9
:1069400011B1082A08D00EE090F8582216480168C4
:1069500062F30301016002E0D0F8341119B9134960
:106960004FF40070086012480168C90702D06FF048
:10697000010101600F48016841F470010160BFF33B
:106980004F8FBFF36F8F0D490B48086070470000B1
:10699000380500400404001020C500404881030071
:1069A0008C56004018F50040E40E0040409602402E
:1069B0000004004088ED00E00090D0031C6E002031
:1069C00001480068004700001C610020014A02499C
:1069D00000F0CAB859A702008061002002E008C890
:1069E000121F08C1002AFAD170477047002001E049
:1069F00001C1121F002AFBD170470000012120288D
:106A000003DA81400548014003E0402802DA2038DB
:106A1000814009B10120704700207047FC06FFBD8E
:106A20002DE9F843804643F2020669B969460AF047
:106A3000A7F8B04204D018B1284A8D21FFF7EAFB2D
:106A40009DF80000800746D4002140460AF0D4F8A3
:106A5000050040D0112D3ED021482249401AC708D8
:106A6000022000EB07440D2D0AD00B2D1DD0B5429E
:106A70001FD11D4920464246BDE8F84307F064BADD
:106A800020464246194907F05FFA1321404676DF57
:106A9000002820D007F06EFF024601B02046434692
:106AA000BDE8F04312A107F056BA204642461E49FF
:106AB000E2E7284607F05EFF0246012000EB0740B0
:106AC00043461AA107F047FA2846BDE8F843034AAF
:106AD000BC21FFF79FBBBDE8F8830000D04F030047
:106AE0009061030048610300004F03008C4E0300D7
:106AF00073645F626C655F6761705F646973636F25
:106B00006E6E65637428292072657475726E656493
:106B1000202573206F6E20636F6E6E5F68616E64F8
:106B20006C652025642E00004C4F03004173736593
:106B30007274696E672E20706D5F636F6E6E5F7327
:106B4000656375726528292072657475726E656457
:106B5000202573206F6E20636F6E6E5F68616E64B8
:106B60006C652025642E00002DE9F04116460F4685
:106B70000446002503E03946B047641C6D1C2078AC
:106B80000028F8D12846BDE8F08131B500252C4613
:106B90002146684605F0B3FE00B16D1C641C142C40
:106BA000F6D3284638BD10B560B159B102780B78DC
:106BB0005208B2EB530F05D10622401C491CFFF7C7
:106BC0009CFC08B1002010BD012010BD800701D041
:106BD0000020704701207047C3688B4206D81144DB
:106BE0000069491E814201D801207047002070478A
:106BF0001349144A10B5891AC908032202EB01444B
:106C000068B1204610A107F09BF90AF023FF002885
:106C100014D0BDE8104010A2C421FFF7FBBA1848F9
:106C20000121007873DF18B10BA2D921FFF7F2FA26
:106C30002046BDE8104013A107F082B910BD000046
:106C4000F061030048610300457261736520626F63
:106C50006E647321000000002E2E5C2E2E5C2E2E02
:106C60005C4C595F424C455F504552495048455233
:106C7000414C5C6C795F626C655F702E6300000054
:106C8000E46D00205374617274204164760000004A
:106C900010B501220221002002F0A0FA08B1072855
:106CA00010D107220221012002F098FA08B107282A
:106CB00008D100210A22084602F090FA08B10728FC
:106CC00000D1002010BD000030B52B48A5B03C21FC
:106CD00000682490294800788DF892006846FFF7F4
:106CE000ECFB02208DF8000001248DF80240062004
:106CF0008DF803003C210FA8FFF7DFFB1F4D24A8F0
:106D00001C351490ADF84C402A1D6846296800F0E7
:106D1000E1FE20B11AA240F22111FFF77BFA174AD7
:106D20000FA82832A96800F0D5FE20B114A24FF4B4
:106D30009271FFF76FFA18211EA8FFF7BEFB002023
:106D40004FF4967120918DF88C000C491F908DF8AE
:106D50007840ADF884001C318DF88D401EAAA1F159
:106D6000200072DF002804D005A240F23111FFF7A5
:106D700051FA25B030BD000050460300E86D0020F8
:106D80002E2E5C2E2E5C2E2E5C4C595F424C455FA5
:106D90005045524950484552414C5C6C795F626C99
:106DA000655F702E630000000A4810B5012100786D
:106DB00073DF18B108A29F21FFF72CFA1048114980
:106DC000BDE81040401AC008032101EB00400EA1AD
:106DD00007F0B6B8E46D00202E2E5C2E2E5C2E2E11
:106DE0005C4C595F424C455F5045524950484552B2
:106DF000414C5C6C795F626C655F702E63000000D3
:106E0000F0610300486103005374617274204164AF
:106E10007600000070B58CB015460E4600236C4617
:106E2000C3F10F01415CE1545B1C102BF8D30D2121
:106E300004F11000FFF741FB0020C0F10F02315CAC
:106E40002244401C11740328F7D3684646DF002013
:106E5000C0F10F01214491F820102954401C03284F
:106E6000F6D30CB070BD022002F06EB8D0F8D80096
:106E700008B1002070470120704700000149C9781F
:106E800001F042BBD860002070B5044600780728A6
:106E900053D2DFE800F00452215230535900618888
:106EA0002C4D01EB410000EBC10005EB401004F15B
:106EB000400205F0FAFD20B127A24FF4EA71FFF776
:106EC000A9F9608800EB400101EBC00005EB401020
:106ED000BDE8704000F0A2BB61882D48D4E90123D1
:106EE00000EBC101C1E900236188BDE8704000EBFF
:106EF000C10005F0C3BB608804F1100200EB400143
:106F000023482CCA103000EB810181E82C006188F5
:106F100001EB410100EB810005F06EFB6069002888
:106F20000BD161881A4A01EB4101283202EB810141
:106F3000A36922698B60C1E9002070BD04F11000D3
:106F4000BDE8704000F0E4B8A089BDE8704003F0EF
:106F5000A9B80000B48000202E2E5C2E2E5C2E2EB0
:106F60005C4C595F424C455F53455256494345532B
:106F70005C6C795F626C655F616E63735F635C6CB0
:106F8000795F626C655F616E63735F632E6300009F
:106F9000348600202DE9F8430446002005261546D6
:106FA000884608270090ACE094F8DC10092970D2DC
:106FB000DFE801F005222D406670767CA300421CBC
:106FC000009218F8000084F8DD0010B1012811D1FA
:106FD00008E0042184F8EC1004F13C00C4E9340713
:106FE000012087E084F8EC6004F1BC000121C4E9D1
:106FF00034011BE008207DE000EB0801001DCA7889
:10700000096862F31F61C4F80811009010E0421C87
:10701000009218F80010D4F8E82004F58670115496
:10702000D4F8E80021B1401CC4F8E800022061E077
:1070300003205FE0421C009218F80000C4F8000131
:10704000D4F8D4108842D5D20C22D4F8D01002EB58
:10705000001009582046C4F80411FFF707FF002864
:10706000C8D12046D0E94023D4F8FC1000F00EFC33
:1070700020B1D4F8D800401EC4F8D800042039E06C
:10708000421C009218F80000A4F8FC0084F8DC60B0
:1070900037E034E06A464146204600F000FC29E033
:1070A0006A464146204600F097FB23E0B4F8E4101E
:1070B000B4F8FC20914204D2491CA4F8E410401C0E
:1070C0000090B4F8E410B4F8FC00814211D12046DD
:1070D000D0E94023D4F8FC1000F0D8FB18B12168A7
:1070E00004F1EC0088472046FFF7C0FE00289FD03F
:1070F00080E7072084F8DC0003E0009501E084F8D5
:10710000DC700098A842FFF44FAFBDE8F8830000A0
:1071100030B4014603880C480C4A0A4C801AC00857
:10712000032202EB00404A6854F8222023B18B6806
:1071300030BC074906F00FBF054930BC0C3106F0E2
:1071400003BF00006C6D0020F06103004861030084
:1071500064C6020070B50024064D06E0686801218F
:1071600010F8340007F068FC641C28788442F5D3DA
:10717000002070BD28610020F8B515460C46064673
:10718000052A01D20720F8BD07F04CFD18B907F019
:1071900011FD0028F7D1124900224E600C708D605D
:1071A000C1E90422C1E906220E4D0DE006EBC40040
:1071B0002968009181788DF8011000780A4A6946A3
:1071C00007F086FC0028DED1641EE4B2EED2BDE8F2
:1071D000F84004480021054A001D00F005B90000F0
:1071E00028610020E842030039AD0200559D0200ED
:1071F000FEB515460E46074672B606F063FF00BFA1
:1072000006F030FD0028FBD12249234A0120891ACB
:10721000C90800EB0144012F23D06FF480503818C7
:1072200022D0B0F5405F24D06FF44051C84206D15F
:107230002B88204619A16A6806F08DFE04E02046DE
:1072400032461DA106F080FE21480068C00700D02C
:1072500000BE2A4603B031463846BDE8F04000F093
:1072600079B820461BA101E0204622A106F068FE65
:10727000EAE7A86807F07EFB0346D5E90001CDE9FF
:1072800000100296204624A1AA6806F07FFE204640
:107290002BA1EBE7F0610300486103004153534524
:1072A0005254494F4E204641494C45442061742078
:1072B00025733A2575000000554E4B4E4F574E2012
:1072C0004641554C542061742030782530385800A0
:1072D000F0ED00E0534F46544445564943453A20AB
:1072E000415353455254494F4E204641494C454421
:1072F00000000000534F46544445564943453A2048
:10730000494E56414C4944204D454D4F525920411C
:1073100043434553530000004552524F52202575B8
:10732000205B25735D2061742025733A25750D0A55
:1073300050432061743A20307825303878000000BE
:10734000456E64206F66206572726F722072657080
:107350006F72740008B501238DF800309DF800307D
:10736000144B186059609A606FF48041401807D040
:1073700001280FD1DA60D86800889861D86807E0E2
:107380001A611869806858611869006898611869FD
:107390004068D861186858689868D868186958694A
:1073A0009869D86972B600BF9DF800000028FBD12B
:1073B00062B608BDC877002010B58268C3689342E2
:1073C00003D003F055F9002010BD052010BD10B505
:1073D0008268C3689A1A83889A4203D803F052F9E4
:1073E000002010BD042010BD074B9B7823B12AB1AB
:1073F00020B10068037C1BB108207047072070474C
:107400004174426100207047E877002070B50AF0AF
:10741000FDFE104800240B21047044700E4D817055
:1074200014206C602C706C70FFF79CF906211420FE
:10743000FFF7B9F91420FFF7A0F908480460062106
:107440001120FFF7B0F90548001F0068A860002070
:1074500070BD0000E8770020486100200815014059
:107460002DE9FC47DFF8789099F8023073B368B3E0
:10747000052902D20720BDE8FC87436933B3437C6A
:10748000012B25D0002704460025884616468DF896
:107490000050684600F062F801A80CF0EFFAC8B19D
:1074A000012101700F4944600968C0E90218C0E970
:1074B00004769DF8040089F801009DF8000000F0B2
:1074C00071F81420FFF764F92846D4E70820D2E7C2
:1074D0000F46D8E704259DF8000000F063F8F3E7B5
:1074E000E8770020041501400649897839B130B1A8
:1074F000416921B10021017402210BF04FBF082026
:1075000070470000E877002010B501461048FFF7EB
:107510005EFF040019D10F480F4A0178515C19B180
:10752000001D07F069FD02E00C3007F075FC60B942
:10753000084907480839FFF73FFF30B905490122DC
:107540000839044805F0E4FD0446204610BD00005B
:1075500004790020646100200061002030B5EFF361
:10756000108172B60D4A9468012324B1037000297A
:1075700000D162B630BD93604FF0E023D3F8805164
:10758000074C25401560C3F88041D3F8844154600E
:107590005A17C3F8842100220270E8E7147900200A
:1075A000FC06FFBD0B498A68002A11D000280FD1C4
:1075B000EFF3108072B60B684FF0E022C2F8003192
:1075C0004B68C2F8043100228A60002800D162B6FC
:1075D000704700001479002002A24FF4E071FEF71A
:1075E00019BE00002E2E5C2E2E5C2E2E5C4C595F98
:1075F000424C455F53455256494345535C6C795F55
:10760000626C655F616E63735F635C6C795F626C13
:10761000655F616E63735F632E6300002DE9F04167
:10762000044615481549401AC008032101EB0040E3
:1076300013A106F085FC1D4D64264FF47A47691CA2
:1076400038468847761EFAD1204600F061FD20B109
:1076500017A24FF49B71FEF7DDFD204600F096FC6B
:10766000002806D0BDE8F04111A240F23911FEF722
:10767000D1BDBDE8F0810000F06103004861030066
:107680002D2D2D2D2D2D2D2D2D2D2D2D2D2D2D2D2A
:107690002D6170706C655F6E6F746966696361748B
:1076A000696F6E5F73657475700D0A00F0450300B5
:1076B0002E2E5C2E2E5C2E2E5C4C595F424C455F6C
:1076C00053455256494345535C6C795F626C655F24
:1076D000616E63735F635C6C795F626C655F616E42
:1076E00063735F632E63000070B5054608680C463F
:1076F000411C04D006F07EF9206806F0E9F86068C5
:10770000411C02D0002106F0D1F82968A069C1F817
:107710002405607D227D29681043C1F86C05D4E9F9
:1077200000122868C0F81425C0F80C15207D012827
:1077300014D1A068411C02D0002106F0B7F8E0681F
:10774000411C04D006F056F9E06806F0C1F8D4E90F
:1077500002122868C0F80825C0F8101570BD70B571
:10776000054608680C46411C04D006F04DF9206817
:1077700006F0B8F86068411C02D0002106F09FF8BE
:107780002968A069C1F82405607D217D2A68084325
:10779000C2F86C05D4E900122868C0F80C15C0F8CE
:1077A0001425207D012814D1A068411C02D000219D
:1077B00006F085F8E068411C04D006F025F9E06881
:1077C00006F090F8D4E902122868C0F80825C0F83D
:1077D000101570BD04F012B970B50446D0F8D00091
:1077E000D4F80051082303EB0515455BB4F8E40019
:1077F00085420FD9B4F8FC50A8420BD21068451C42
:1078000015600A5CB4F8E400D4F80451411CA4F8F3
:10781000E4102A54B4F8E400B4F8FC10884209D00B
:10782000D4F80021D4F8D01003EB0212895A491E73
:10783000814229D1FC3494E80E00FC3C204600F043
:1078400025F828B1B4F8E420D4F8041100208854B5
:10785000B4F8E400B4F8FC10884201D2072070BDEF
:10786000FC3494E80E00FC3C204600F00FF818B100
:10787000216804F1EC0088472046FFF7F7FA08B1C9
:10788000082070BD032070BD062070BDD0F8D00068
:1078900000EB02100078012800D00020704710B5DE
:1078A00004461068431C1360085CB4F8FC1051EAED
:1078B0000020A4F8FC004FF00001A4F8E41010D060
:1078C00054F8D00F0822216B02EB0112825A32B118
:1078D0000C2202EB0111405808B1062010BD072010
:1078E00010BDFC3494E80E00FC3C2046FFF7CEFFB0
:1078F00018B1216804F1EC0088472046FFF7B6FA7A
:1079000008B1082010BD032010BD00002DE9F0478C
:10791000814605884A484FF000088AB001784246FF
:10792000284600F009FE99F80500400701D400211F
:1079300076E005F58077B8B201AB0122072108F0A7
:1079400081FD04003F48404A4FF00101A0EB0200D6
:107950004FEAD00001EB00460AD0204607F00AF8B3
:10796000024630462B46394906F0F5FA214629E011
:10797000284603F0A3FC4FF6FF71044688422BD142
:107980008A46029803F004FC0446504510D0014694
:10799000284603F073FC2846FFF770FAE0B9284642
:1079A0000AF052FF2846FFF769FA0028BFD013E01B
:1079B00008F014FF0446504508D1304624A106F0D3
:1079C000BFFA042128460AF06DFFB0E701462846B9
:1079D00003F054FC4FF00108B8B22246072108F02A
:1079E000A9FD07001BD0862F1ED006F0C3FF02465C
:1079F00030462B462349009406F0B5FA394628460E
:107A00000AF050FF0021484608F0C8FBB8F1000F0B
:107A100002D0204603F03CFC0AB0BDE8F08701210B
:107A2000484608F0BBFBF7E71822174903A8FEF702
:107A30002BFDADF80E5003A802F05AFCEFE7000052
:107A4000D860002098610300486103004C52030095
:107A5000436F756C64206E6F7420616C6C6F636132
:107A60007465206E657720706565725F6964206655
:107A70006F7220696E636F6D696E6720626F6E64EE
:107A80002E000000685303002442030070B5150067
:107A9000044609D00020286034B1206820B1A079C4
:107AA000800703D0072070BD0E2070BD084600F08F
:107AB000ABFCC0B2142804D02179814203D8042041
:107AC00070BD052070BDE288216800FB02102860AF
:107AD000002070BD2DE9FC4700251788064615805B
:107AE00090F82D001446894630B13A462146484662
:107AF00000F050FE051E09D1B0784FF00C0A18B303
:107B00002088C846001DB84202D95046BDE8FC870F
:107B1000684679DF0028F9D12088032108F8001091
:107B200020881921401C80B2208008F8001020888D
:107B3000401C80B2208000EB0801BDF800000BF073
:107B4000CAFE218808442080F0780222C8B121882A
:107B500096F9033001F1030C4846BC45D5D8425490
:107B600021884FF0010C491C89B2218000F801C026
:107B70002188491C89B2218009F801302088401CE5
:107B800020807068B8B1218890F9003001F1030CB1
:107B90004846BC45B9D8425421880A22491C89B2BA
:107BA000218042542188491C89B2218009F8013082
:107BB0002088401C2080308950B1CDE900474B46D9
:107BC0000622022106F108000BF070FF051E9DD170
:107BD000308A50B1CDE900474B460722032106F118
:107BE00010000BF063FF051E90D1308B50B1CDE932
:107BF00000474B461522142106F118000BF056FFE2
:107C0000051E83D1306A30B13B462246494601F019
:107C1000D8FE051EDBD1706A30B13B46224649468C
:107C200004F0E6FB051ED2D196F82C0038B13B4695
:107C30002246494630460AF07BFF051EC7D1307800
:107C400038B13B4622464946304604F05FFC051EEB
:107C5000BDD128465AE7F8B506464FF0000015009A
:107C6000ADF8000015D009236A46304600F025F82B
:107C70000446BDF80000064458B154B12846FEF74A
:107C800027FCA04205D1224631462846FEF735FCA6
:107C900008B10020F8BD0120F8BD18B50446002049
:107CA000ADF8000013466A46204600F006F80028AA
:107CB00002D0BDF80000204418BD70B588B182B173
:107CC0000024158803E0065D641C3444A4B2A54278
:107CD00003D8061976789E4201D08C42F3D38C42A9
:107CE00001D3002070BDA11C1180005D401E80B238
:107CF00070BD10B50288102A1BD0112A20D0262A68
:107D00001DD1007A0C46012801D0022817D1A07895
:107D10000521401CB0FBF1F201FB1201204600F0EE
:107D20001EF800280BD0A16B002908D0BDE8104038
:107D30000847C27B012A02D18088A1F8480210BD01
:107D40000C46002184F852128088B4F84812884208
:107D5000F5D120790028F2D10121DFE770472DE924
:107D6000F05F044600780F4698B1A7700025C4F86C
:107D70004A52A4F84E5284F85052A079012608B114
:107D8000012F09D0E07980B1012F05D0022F03D057
:107D90000BE00820BDE8F09F616B21B184F85162CF
:107DA0000820884701E084F8515204F24B2100205A
:107DB0000A5C0AB1304603E0401C0628F8D30020D4
:107DC0004FF002084FF0030B012F06D0022F0CD00A
:107DD000032F0FD0042F15D110E0A17929B194F809
:107DE000241011B908B130460DE0E17911B108B1A4
:107DF000404608E0207A08B1584604E0607A08B1AD
:107E0000042000E02846A070616B41B1032801D036
:107E1000042804D1607910B194F85202A0B184F81A
:107E2000535204F13C0018210746FEF746FB04F1CB
:107E30002C0084F83C60814608F008FE58B194F8A4
:107E40002C0084F8510008E084F8545284F85362FE
:107E500007208847E5E784F8516094F8240050B182
:107E6000484608F0F3FD20B194F8280084F8520049
:107E700001E084F8526084F85050A27804F24A215C
:107E800004F50D794FF0060A052A62D2DFE802F008
:107E90007A030F22410084F83160C4F84452C4E9E7
:107EA000101584F83C808020A4F8480053E084F842
:107EB000318094F82420384612B10722027001E084
:107EC00080F800B0228A8281C4F844524160E1689F
:107ED000B96040E06069B860208BB88194F82400F4
:107EE0003D4610B184F83CA001E084F83C60204697
:107EF0000BF0B2FD50B185F814800421204602F049
:107F0000E6FB30BB052184F8311020E084F831B065
:107F10001DE0E069B860208CB88194F824003D46EB
:107F200010B184F83CA001E084F83C6020460BF0DE
:107F300093FD48B185F814800421204602F0C7FB68
:107F400038B984F831A002E0042084F83100C4F884
:107F50004492A07878B13A4604F15400D4F844121F
:107F600072DF00287FF416AF94F8301094F85400B4
:107F700073DF0028F6D1616B11B194F831008847A6
:107F8000002007E784F83150F5E7000010B50446FB
:107F9000C28E08480849401AC008032101EB00407E
:107FA00006A105F0D1FFE18E2089BDE81040012235
:107FB00001F006BBA861030048610300456E6162E1
:107FC0006C65204461746120536F75726365206E27
:107FD0006F74696669636174696F6E732E2057727E
:107FE0006974696E6720746F2068616E646C653AAD
:107FF000202569200000000070B50E4604005ED008
:10800000002E5CD03068002859D02E482E49227BA3
:10801000401AC108032000EB01452CA1284605F0B9
:1080200093FF002084F8DC00C4F8E000A4F8E4002A
:10803000C4F8E80030682060706860604FF6FF7038
:10804000208142F602102087208504F10A003221A7
:108050000646FEF732FA0BF055FA227B28461FA19E
:1080600005F072FF04F10C01204862DF002827D1DF
:108070001E4804F11401103062DF002820D11B4893
:1080800004F11E01203062DF002819D1174804F1E5
:108090002E01303062DF002812D1227B284614A145
:1080A00005F052FF4FF231406081227B284614A137
:1080B00005F04AFF3046BDE8704000F067BA0E2078
:1080C00070BD0000A86103004861030030312C75C9
:1080D0007569645F747970653A25640030322C7577
:1080E0007569645F747970653A256400984203008D
:1080F00030332C757569645F747970653A25640056
:1081000030342C757569645F747970653A25640044
:1081100010B50446C28C08480849401AC00803211B
:1081200001EB0040064905F00FFFE18C2089BDE816
:108130001040012201F044BAA86103004861030025
:10814000F455030000B5024600889DB0112838D0D0
:10815000382814D039283BD10B4602F10A00918807
:108160001A89914234D101889A8C91421ED1828819
:108170001DB0811D18465DF804EB08F03DB8088974
:108180009388984224D1108958B14B8B984208D1DA
:1081900006208DF80000D088ADF80C00096868460C
:1081A00088471DB05DF804EB0BF0E4B99A8E91425C
:1081B0000ED182881DB0811D18465DF804EBFEF7D4
:1081C000E9BE08899288904202D14FF6FF7008817B
:1081D0001DB000BD2DE9F04307463D4A3D480D4620
:1081E000101A01F10E080978C00803229DB002EBB5
:1081F0000044002964D1A888A0F5744131395FD1C9
:10820000A879397B88425BD1204633A105F098FEDE
:10821000002646E006EBC60938F8190000F6F350D0
:10822000B0F500502AD000F62430B0F5404012D00E
:1082300000F6F650B0F5005F32D1204627A105F0D8
:108240007FFE08EB49000168129141681391008993
:10825000ADF8500024E0204629A105F071FE08EB9E
:1082600049000168CDF862104168CDF866100189B7
:10827000ADF86A104089ADF86C0011E0204629A1E4
:1082800005F05EFE08EB49000168CDF85210416828
:10829000CDF856100189ADF85A104089ADF85C0050
:1082A000761C287AB042B5D800208DF80000688886
:1082B000ADF802003968684688471DB0BDE8F08314
:1082C000204623A105F03CFE01208DF80000F1E7D7
:1082D000A86103004861030031313100436F6E74BF
:1082E000726F6C20506F696E7420436861726163B5
:1082F000746572697374696320666F756E642E00AD
:108300004461746120536F757263652043686172C4
:108310006163746572697374696320666F756E64F6
:108320002E0000004E6F74696669636174696F6E38
:1083300020706F696E742043686172616374657246
:10834000697374696320666F756E642E00000000A7
:10835000323232000179032902D280790C2801D30C
:1083600007207047002070472DE9F041040012D02B
:1083700001461C221A48FEF787F81948194D056076
:10838000206858B17ADF002806D12068016829608A
:108390004068686006E00E20BDE8F08111487BDF90
:1083A0000028F9D10E4D0024283D4FF6FF76A5F1A7
:1083B000400700BF04EB840005EB800007EB44118D
:1083C00020F8046B084A01600021FFF70DF808B19E
:1083D0000320E1E7641C022CECD30020DCE7000062
:1083E000286F002020600020F1390300054808B5FF
:1083F000C16800918168684604F0A8FA0098FEF709
:10840000C4FB08BD446F002010B5044600F0B4F86A
:1084100008B1204610BD142010BD000010B5044660
:1084200000F0AAF8002805D02146BDE81040024817
:1084300004F065BA10BD0000546F002070B51546F9
:108440000E4604460BF014FB002809D0054800EB4B
:10845000840080692A463146BDE8704002F064B964
:1084600070BD0000446F002010B5044600F084F891
:10847000002805D02146BDE81040024804F03FBA6C
:1084800010BD0000586F0020064808B5C168C943F8
:1084900000918168684604F059FA0098FEF775FB70
:1084A00008BD0000446F002070B50546002400F0B0
:1084B00063F838B12946044804F021FA08B10224CF
:1084C00000E00124204670BD506F002070B50546C5
:1084D000002400F051F838B12946044804F00FFA9E
:1084E00008B1022400E00124204670BD4C6F00203A
:1084F00010B51821034804F0DDF9182800D0C0B2E7
:1085000010BD0000446F002070B505460C460846BB
:108510000BF0AEFA60B1284600F02EF840B10548E5
:10852000294600EB8400BDE87040183004F0E7B93C
:10853000002070BD446F002070B5054614460E46FD
:1085400008460BF095FA002812D0284600F014F8DF
:1085500000280DD00748294600EB860018301CB1D2
:10856000BDE8704004F0D6B9BDE8704004F087B9AA
:1085700070BD0000446F0020142801D30020704714
:108580000146014804F0BBB9486F002028B10549F5
:108590000A7822B1496809F0DBBD0E207047082037
:1085A000704700002860002070B506460D480E494F
:1085B000401AC108032000EB014004460BA105F05E
:1085C000BFFC66B10F4800250122C5600270C0E9FA
:1085D000016520460CA105F0B7FC284670BD0E20B1
:1085E00070BD00005061030048610300626C655F6C
:1085F00064625F646973636F766572795F696E69DF
:108600007400000028600020626C655F64625F6433
:108610006973636F766572795F696E69742C6D5FDB
:10862000696E697469616C697A65643A25640000F1
:1086300070B504002DD000292BD0204800780028E8
:1086400027D020880D46112815D0302804D0322894
:1086500007D033281ED109E0211D284607F072FB00
:1086600018E0211D284607F0CDF813E0211D28460B
:1086700007F02CFA0EE0A088B5F8CA12884209D19A
:10868000002085F8C70285F8C8024FF6FF70A5F8EC
:10869000CA0270BD95F8C8020028FAD02088302898
:1086A000F7D34F28F5D8A088B5F8CA128842F0D180
:1086B0002846BDE8704001F001BC000028600020A1
:1086C0002DE9F0410F46064615481649164A401A4C
:1086D000C108032000EB014414A1204605F034FC3E
:1086E000114D20461AA12A7805F02EFC76B1287883
:1086F00070B1204620A1EA6805F026FCE86838B190
:1087000096F8C70230B11120BDE8F0810E20FBE7DA
:108710000820F9E739463046BDE8F04101F0CEBB0C
:10872000506103004861030028600020303220615E
:10873000646472206F66206D5F696E697469616C34
:10874000697A6564203D2030782530387800000053
:10875000626C655F64625F646973636F766572798A
:108760005F73746172742C6D5F696E697469616C9A
:10877000697A65643A2564006D5F6E756D5F6F663A
:108780005F68616E646C6572735F7265673A2564D9
:10879000000000007CB5054608880C460930904270
:1087A00001D90C207CBD68466DDF0028FAD12188F4
:1087B0000820685420881B21401C80B22080295446
:1087C0002088401C80B220802844DDF80110016020
:1087D000BDF8051081802088801D80B220809DF822
:1087E0000010490800D0012129542088401C208015
:1087F00000207CBD10B51A4C0188606810290ED08D
:1088000011292BD1401E606028D1FEF741FA0028C3
:1088100024D02168002921D0BDE810400847D0B9F4
:1088200000210122084600F0D9FC08B107280FD129
:1088300007220221012000F0D1FC08B1072807D14E
:1088400004220221002000F0C9FC20B1072802D038
:10885000216801B188476068401C606010BD00005D
:10886000186000202DE9F04701883B4E40F2F319D3
:108870004FF6FF7510291BD011293ED0122954D074
:10888000502946D1C188F289841D914241D1618924
:1088900002293ED18688304602F0BEFD050038D060
:1088A00004F10C0000F02CF9A8B3294630464EE044
:1088B000C17B8788044601292BD1A846284602F0AF
:1088C000ABFD050017D02F800020287223484346B7
:1088D0004A460168C5F80A104068C5F80E0004F160
:1088E000100105F10A0002F05FFE6872F0890028AD
:1088F0000FD129462AE0042013E0808802F08CFD85
:10890000040006D06068FEF7EFFD08B109F0AEFF85
:108910002580BDE8F087FFE76868FEF7E5FD0028E1
:10892000F7D0BDE8F04709F0A1BF87880646384672
:1089300002F072FD0400ECD02B464A4606F1080115
:1089400004F10A0002F030FE607221463846BDE8AC
:10895000F04701F093B80000286F0020206000204D
:108960002DE9F04F0746858802883E48012197B0DF
:108970008346102A09D0112A4BD01A2A6ED1387A90
:10898000B1EB101F47D2012246E0364C083CA068EC
:10899000C0430B9061680BA803F0D8FF0B990CA89B
:1089A00000F0F0FF2C220CA96846FDF76DFD0026B3
:1089B000E946A04610E000BF09EB46005FF0000466
:1089C000B0F804A008EB84005146001D03F057FFE7
:1089D000641C1D2CF6D3761C0098B042ECD8142DE4
:1089E00007D317B0E321BDE8F04F1FA20420FDF725
:1089F00011BC2946584603F08DFF294608F10400B2
:108A000003F088FFF87B012828D016482946001D6E
:108A100015E029461AE000220221B1EB101F01D215
:108A2000012600E000260F49083901F11000041D5D
:108A3000294682B103F06EFF36B12946204617B0B1
:108A4000BDE8F04F03F066BF2946204617B0BDE8E9
:108A5000F04F03F014BF03F012FFF5E717B0BDE8C5
:108A6000F08F00004C6F00202E2E5C2E2E5C2E2EE0
:108A70005C2E2E5C2E2E5C2E2E5C636F6D706F6EE6
:108A8000656E74735C626C655C636F6D6D6F6E5C5C
:108A9000626C655F636F6E6E5F73746174652E6385
:108AA0000000000010B504460748007800280AD0EE
:108AB000204602F0DFFA20460AF096F82046BDE88C
:108AC000104001F075BF10BD6860002010B504466D
:108AD0008088FFF7E9FC01280CD02188262909D0DD
:108AE000022801D01D2908D1044801682046BDE8AC
:108AF000104008470148001DF7E710BD3062002014
:108B0000007800F00100704708B505F04FFE18B17D
:108B10000C4A9C21FDF77EFB002000906946012055
:108B200005F092FC18B1074AA321FDF773FB6846D4
:108B300005F026FD002803D0024AA721FDF76AFBB5
:108B400008BD0000CCBF020048B141802AB1518865
:108B5000C1801188818091880181002070470E209A
:108B60007047000070B51A4B0E4604000FCB86B05C
:108B70008DE80F0029D046B3164817492278401ACD
:108B8000C108032000EB0140054614A105F0DCF903
:108B90002146684662DF002815D12278284617A1B1
:108BA00005F0D2F920788DF812000120ADF8100000
:108BB0004FF6FF7060803068E0600020A080208168
:108BC00004A8FFF7E3FC06B070BD0E20FBE7000031
:108BD00020460300186203004861030030315F70D3
:108BE0005F626C655F7475735F632D3E7575696454
:108BF0005F747970653A25640000000030325F7060
:108C00005F626C655F7475735F632D3E7575696433
:108C10005F747970653A25640000000010B5024663
:108C200086B008002ED0002A2CD041884FF6FF7362
:108C3000994202D09488A14224D11488112C14D0D6
:108C4000392C1FD1818800291CD053898B4219D11E
:108C5000C168002916D001218DF8001002F1100121
:108C60000291D189ADF80C1009E092888A4209D1AD
:108C7000C168002906D002218DF800104380C26827
:108C80006946904706B010BD30B585B00C46054624
:108C900014216846FDF711FC207804F10E0100282C
:108CA00030D1A08801282DD1A0792A78904229D1ED
:108CB000002217E002EBC20031F81030022B02D084
:108CC000032B0ED105E001EB40000089ADF8120046
:108CD00007E001EB40000389ADF80E304089ADF8A4
:108CE0001000521C207A9042E4D8E868002809D08D
:108CF0006088ADF8020000208DF80000EA6869463F
:108D00002846904705B030BD1FB50446C388428849
:108D100014481549401AC008032101EB00401349CB
:108D200005F019F9D4B16288A2F57F40FF3817D059
:108D3000E088A8B101218DF80C100D4B00218DF8B1
:108D40000D10D3E90413CDE90013ADF8020003A818
:108D5000029069461046A3DF04B010BD0E20FBE769
:108D60000820F9E71862030048610300605F030010
:108D70002046030010B504460078002811D10948A8
:108D800009492289401AC008032101EB004007A1CC
:108D900005F0DAF8A28A20892169BDE8104003F0C5
:108DA0003FBA10BDF06103004861030052656D6F6A
:108DB000746520307825782053656E642044617492
:108DC000613A000070B5334D04008EB02DCD08AE71
:108DD00086E82D005BD0E9B30868A061214608A8A9
:108DE00062DF002851D1207801258DF83200ADF8DE
:108DF0003050A21C0CA92846A8DF002845D120210C
:108E00006846FDF75AFB0220ADF8000020788DF887
:108E100002008DF80C509DF80D00F426ADF80460AA
:108E200040F00C008DF81150ADF806508DF80D0093
:108E30008DF81250608804F10C02694600F022FCA3
:108E4000002822D120216846FDF737FB0320ADF82A
:108E5000000000E01BE020788DF802008DF80C5037
:108E60009DF80D008DF81150ADF8046040F0100031
:108E70008DF81250ADF806508DF80D008DF8135096
:108E80006088221D694600F0FDFB0EB070BD0E200B
:108E9000FBE7000010460300002915D0002813D07E
:108EA0000A460188102907D0502909D057290BD12B
:108EB0000146104606F016BF0146104606F04ABDB0
:108EC0000146104606F0B0BF70470000084908B5DB
:108ED000085C0090684604F031FDD0F81005009958
:108EE000C84010F0010000D0012080F0010008BD52
:108EF000204003002DE9FC410646C0074FF0000565
:108F00000ED0104F00240122385D00950023114639
:108F1000019504F055FC641C042CF4D300F04EF8C9
:108F2000B0070DD5074E0024361D0022305D032307
:108F300000951146019504F043FC641C042CF4D305
:108F4000BDE8FC811C400300094908B5085C00909D
:108F5000684604F0F3FCD0F80425009B01219940F9
:108F600021EA0203C0F808351140C0F80C1508BD0D
:108F70001C4003000249085C012104F059BD0000B7
:108F80001C4003000249085C002104F051BD0000B0
:108F90001C400300084908B5085C0090684604F0CE
:108FA000CDFCD0F804050099C84010F0010000D0B5
:108FB000012080F0010008BD1C40030010B5002412
:108FC0002046FFF7D7FF641C042CF9D310BD10B561
:108FD00000242046FFF7D6FF641C042CF9D310BDF3
:108FE00010B50246064B4FF0FF3000215C5C944206
:108FF00001D1084610BD491C0429F7D310BD00005B
:109000002040030070B50C4E0C004FF0000530609E
:109010000BD0012000F05AF808B1022004E0002033
:1090200000F054F800B10B202070706810B9FDF703
:109030002FFE0546284670BD186000202DE9F04738
:109040000D468146FFF7CCFF0446042836D2DFF8F0
:1090500074801B481C4EA8F10C0725B3012D0ED0BF
:10906000022D2BD104EB440030444578002D25D04F
:10907000B968002922D02846BDE8F047084704EB2C
:109080004401755C0E44717849B10E4A4FF40041B9
:10909000093A8068FEF7E4F908B987F80390B178D7
:1090A00008F80410E2E78068FEF71EFA04EB4401BA
:1090B000314418F804008D78A842D7D0BDE8F08775
:1090C0002440030014600020946E0020042801D284
:1090D000FFF7FCBE002070473EB51D491D4B032223
:1090E000C91AC90802EB01440E280CD00F2812D06F
:1090F00010282AD011280DD1204617A103B0BDE8B1
:10910000304004F01DBF204617A104F019FF1A4992
:10911000012008703EBD204618A104F011FF1B4835
:1091200002A9008807F02CFD9DF80800C0F3C002DA
:10913000C0F38001CDE90012C0F3400300F001024A
:10914000204613A104F018FF3EBD20461FA1D5E71D
:10915000F0610300486103004253505F4556454E9D
:10916000545F4B45595F33004253505F4556454E5F
:10917000545F4B45595F3000006000204253505F00
:109180004556454E545F4B45595F3100686D002090
:10919000636F6E6E65637465643A25642C20656E3A
:1091A000637279707465643A25642C206D69746DFE
:1091B0005F70726F7465637465643A25642C206215
:1091C0006F6E6465643A2564000000004253505F8E
:1091D0004556454E545F4B45595F320070B50023EC
:1091E000042810D20D4D00EB4004012A02D10129C0
:1091F0000CD00022094E00EB4000304461B101293F
:1092000006D0022906D00723184670BD0E30C2B220
:109210002A55F9E74270F7E78270F5E7946E00206F
:1092200070B506461E480024C0E90161B00720D58C
:109230000025012211462846FFF7D0FF6D1C044689
:10924000042D02D2002CF4D013E094B940F26662EF
:1092500004211448FDF790FF04000AD1FDF77AFFBE
:10926000040006D10F48104A0021001FFEF7BCF889
:109270000446F00712D00120FFF73CFE74B90948FC
:109280000A4A00210C38FEF7AFF8040006D1054861
:10929000074A01210838FEF7A7F80446204670BDAA
:1092A000086000203040030051950200A1B6020082
:1092B000676E02002DE9F05F6E4C0546002660786F
:1092C000B34618B184F801B002F0D2F96A4F4FF4F6
:1092D0007A694FF4C87A4FF00108182D69D2DFE897
:1092E00005F00C1313384754696E727B727BC5848A
:1092F00084848484B3B6B9BCC5C502F0B9F93868B2
:10930000FEF7F2F806465CE00020FFF743FE002877
:109310004FF0000008D0FFF72DFE022D02D14FF4D0
:10932000E16008E0484606E0FFF72CFE022D01D17F
:10933000C82000E05046410CC0034FF4FA72801878
:1093400041F10001257052000023FDF759F8014654
:109350002AE00020FFF71EFE00284FF0000004D096
:10936000FFF708FE4FF44870E5E7FFF70BFEDFE775
:109370000020FFF70FFE00284FF0000002D0FFF79B
:10938000F9FDCFE7FFF7FEFDD4E70020FFF702FE6F
:1093900000284FF0000002D0FFF7ECFD01E0FFF7DE
:1093A000F1FD257041F69A1100223868FEF758F851
:1093B000064646E00020FFF7C7FD257008E00020C4
:1093C00051E025703DE084F801800120FFF7BCFDED
:1093D000002240F6CD41E8E784F801800120FFF744
:1093E000B3FD00224FF48041DFE77868FEF77CF898
:1093F0000646D5F1110000D02EB10220FFF7BAFDCC
:1094000084F802B01DE0012816D980B2C821484373
:10941000C117C90341EA5041C0034FF4FA728018E2
:1094200041F1000152000023FCF7EAFF014600224F
:109430007868FEF715F806460220FFF7A3FD84F8CA
:1094400002803046BDE8F09F02F012F9B9E702F061
:109450000FF9B4E702F00CF904E002F009F900207A
:10946000FFF790FD0120FFF78DFDAAE7FFF7AFFDA5
:10947000A7E7000008600020244003002DE9F8431E
:109480000546861C00208DF8000090460F464FF0E0
:1094900001096846FEF762F81B4C20683860D4E981
:1094A0000001401AA16804F21C47081A0EE00121CD
:1094B000384603F045FA02F083FB0146384603F0D4
:1094C0003FFAD4E90001401AA168081A401C8642FC
:1094D000EDD8B8F1000F03D0052065F3891002E044
:1094E000062065F39F50A2682168114004EB8101BA
:1094F000C8602068304420609DF80000FEF752F8F4
:109500004846BDE8F8830000247C002070B50D4675
:1095100004460A2902D10D21FFF7F8FFA06822684E
:10952000411CA1601554D4E90101814204D32046B5
:10953000BDE8704003F009BE70BD0000034803C8D9
:10954000814201D10120704700207047247C002017
:1095500000780221FFF772BD1CB5044601F0AEFE93
:1095600000236A46092107F0AFF8052805D1034812
:10957000012241792046FEF7DFFF1CBD3860002044
:109580001CB504460020009042F6A620ADF800006D
:1095900001208DF80200084801AA69460068019080
:1095A0002046A0DF002805D1044801228179204609
:1095B000FEF7C2FF1CBD0000E4400300386000203D
:1095C00070B58AB00D460646144624216846FCF75D
:1095D00074FF022001A9ADF81E0008910021ADF82A
:1095E0001C10ADF81A5001218DF81810ADF800606C
:1095F0008DF80440210A8DF802008DF805106846A8
:1096000009F088FF09F0B6FF0AB0002070BD000025
:1096100005494FF0FF32082841F8202002D30844C2
:1096200080F8582070470000EC760020F0B54FF02D
:10963000FF3512B10023082601E008230C260C4C4C
:1096400005E000BF54F823707F1C04D05B1CB342BC
:10965000F8D32846F0BD26185DB286F8305044F89D
:109660002310002AF5D1E11881F85800F1E7000035
:10967000EC7600200249084490F930007047000061
:10968000EC7600202DE9F0438146887891B0904631
:109690000C4600B901208DF83E002088ADF83C0052
:1096A00000250095607C694609F086FA6E46A07C2C
:1096B000711C09F081FAE07B00289DF8020002D0BD
:1096C00040F0080001E020F008008DF80200217C45
:1096D00011B140F0100001E020F010008DF8020000
:1096E000217B11B140F0010001E020F001008DF874
:1096F0000200217D09B1022100E0012161F3420055
:109700008DF802001C2102A8FCF7D7FE607BC10681
:1097100001D4800617D50E950EAFE07C791C09F0B8
:109720004BFA9DF83800079720F00F00401C20F0FE
:10973000F00010308DF838009DF83A0020F0060057
:10974000801C8DF83A00607B8DF80800A07B8DF8B6
:109750000900142109A8FCF7B0FE0FA8CDE90906FD
:10976000A088ADF83000A06820B1E088ADF82C00EA
:10977000A0680D90A06998B301950088ADF810001D
:10978000A06901AD01A94088ADF81200A069406848
:1097900006950390A069007B09F00EFAA069691C88
:1097A000407B09F009FAA069807A00289DF806003C
:1097B00002D040F0080001E020F008008DF806001B
:1097C000A169C97A11B140F0100001E020F0100049
:1097D0008DF80600A169097A19B140F0010002E094
:1097E0000DE020F001008DF80600A169897B09B128
:1097F000022100E0012161F342008DF80600E069DA
:1098000000B10590434609AA02A94846AADF11B053
:10981000BDE8F08308B5024690F8C6020B4600EB9F
:109820008001C1EB801002EB400092F8C52242B1EA
:10983000521ED2B202EBC20100EB4102518A491C16
:1098400000E0C188ADF800100089ADF8020069465B
:1098500018469DDF08BD70B504464FF6FF750A46F1
:109860002846AC4209D14FF480742146104603F0DB
:1098700021F880B2A0420BD070BDFF2CFCD821464D
:10988000104603F007F890F0010F01D0204670BD9C
:10989000284670BD70B5084C050009D01034216809
:1098A000002907D008682060496828468847F6E7FD
:1098B0000834F4E770BD0000D8760020054A012185
:1098C00020B1012805D19170FFF7E4BF517000204D
:1098D000FAE77047D87600202DE9F05F2648416806
:1098E000F1B3DFF898B00E688146DBF80040876876
:1098F0008078E11B21F07F45ED1CB0B9DFF8808056
:109900004FF48030C8F84403C8F804031120FCF772
:1099100029FF1120FCF731FF4FF0010AC8F800A021
:109920002F2005F081F889F802A0B54200D2354613
:10993000124BE8193C3320F07F401860DBF8001030
:109940005A46091B21F07F41001B20F07F40C91CB3
:1099500081420FD9106818602F2005F065F800E0EB
:1099600004E0BDE8F05F1120FCF712BFBDE8F05F36
:1099700008F04CBCBDE8F09F486100200415014090
:109980000010014073B58CB00646002000900D9881
:1099900080B100246D4621460DA802F0B0FF30B121
:1099A000009805EB400084800098401C0090641CE7
:1099B000142CF0D32C2269463046FCF765FD0EB01E
:1099C00070BD2DE9F04117880646B81D14460D46B6
:1099D000984202D90C20BDE8F0813188072206297F
:1099E0000AD34FF4486C4FF6FF73614501D9994291
:1099F00002D17088062801D21046ECE7604501D9F3
:109A00009842F9D1994203D0984201D08142F3D8CB
:109A10000520E85520881221401C80B2208029545E
:109A20002088401C80B220804119308809F053FF03
:109A30002188084480B220804119708809F04BFFCA
:109A40002188084420800020C5E7000001A27E2173
:109A5000FCF7E0BB2E2E5C2E2E5C2E2E5C4C595F4C
:109A6000424C455F5045524950484552414C5C6C10
:109A7000795F626C655F702E6300000038B54A7ACA
:109A80000F4B62B100220A725969002906D00122E7
:109A90008DF80020ADF802006846884738BD0A7A84
:109AA00062B19B684C68024619462046FDF7D8FC17
:109AB0000028F3D0BDE8384008F0D8BE5B68F1E775
:109AC000286F0020F0B587B016460F4604461D46A5
:109AD00018220B496846FCF7D7FC0A488DF8087035
:109AE000ADF80240ADF80A608DF80C500178002204
:109AF0002046FEF721FD684600F0FAFB07B0F0BDF6
:109B00003C420300D8600020FCF78ABF10B5044631
:109B100012B11088002211E04FF6FF70FAE7030A35
:109B200043EA0023A05C5840C0F30313584080EA86
:109B3000003080B2C3B280EA4310521C8A42EED396
:109B400010BD000070B588B0064600200590069054
:109B5000ADF81410ADF816100190029001AA05A9F5
:109B6000304690DF050021D004F004FF0346114881
:109B700011493246401AC108012000EB0140044659
:109B80000E4904F0E8F9BDF8042012B9BDF806004A
:109B900028B1BDF80630204609A104F0DCF9BDF873
:109BA00008201AB12046164904F0CEF908B028461C
:109BB00070BD00004861030048610300DC460300FB
:109BC00054686520726571756573746564205458B6
:109BD0002F5258207061636B6574206C656E6774DA
:109BE0006820697320746F6F206C6F6E67206279D4
:109BF0002025752F2575206F63746574732E000002
:109C00002847030010B5044602F004F92046BDE8D9
:109C1000104002F0EDB9000070B50446094801217A
:109C200002F0A9FEBFF35F8F0025002808D120466F
:109C300001F040FF002803D1BFF35F8F01480560AA
:109C400070BD0000446000207FB50C4610B10120BB
:109C500004B070BD2079002638B141F61D550128A9
:109C60001BD0022826D00F20F2E702202071029696
:109C70000396E0680190694601A808F0B3F950B175
:109C800002988188E18000882081BDF80010029848
:109C900008F026FADCE70A20DAE70A4B6A460021D8
:109CA000A01D08F05BF938B1064918398E61CE6104
:109CB0000A28CDD12846CBE702488188019808F0D0
:109CC0000FFAF5E79C6100202DE9F843054690F86E
:109CD000C6020F4600EB8001C1EB801005EB400689
:109CE00095F8C542914604EBC40006EB4001327979
:109CF000601C0A31904226D16B460022284601F0B2
:109D000075FC18B310E0401EA04201D1002004E011
:109D100004EBC40006EB40001C30804602466B4654
:109D2000284601F063FC30B100203870694648468F
:109D30009EDFBDE8F88395F8C5024146401C641CCF
:109D400085F8C502E4B23079A042DCD80120387031
:109D50000020EEE72DE9F0470025DFF890803DE098
:109D60006068002100EBC506012032789146FCF7BF
:109D700078FBD4E9062300EA020701EA030C57EA5C
:109D80000C0729D082438B434846C4E9062304F0DC
:109D900009FF32788246914601200021FCF761FBE1
:109DA000D4E9042300EA020401EA03074A465046C4
:109DB0000021FCF756FB44404F403C430CD17078E7
:109DC000012801D0012000E00020726880EA0A002A
:109DD00012B1C1B2484690476D1CEDB298F8000030
:109DE00044468542BCD3BDE8F087000028610020CE
:109DF0002DE9F047894690F8C612904601EB8102A2
:109E0000C2EB811100EB4107384608F085F90600E6
:109E10002FD0194CA06806282BD2184D762205EBBE
:109E2000C0103946A0F80280001DFCF72DFB00276A
:109E3000B9F1000F04D0A06805EBC010077004E072
:109E4000A168022005EBC1110870A06805EBC011E4
:109E5000401CCE67A060E16888420AD1002604E079
:109E600005EBC610C16F8847761CE0688642F7D3C1
:109E7000A760BDE8F087000028600020D46F0020B4
:109E800070B50E4690F8C612154601EB8102C2EB82
:109E90008111A0B000EB410008F03EF9040009D0A8
:109EA0007C2205496846FCF7EFFAADF80250684697
:109EB0000196A04720B070BD6840030070B50E4603
:109EC00004464FF43371FCF7F8FA11480025A4F862
:109ED000CA62856084F8C9520E4884F8C65284F874
:109EE000C552006820602246012130469BDF0121D7
:109EF000112806D0002809D184F8C71284F8C85266
:109F000003E084F8C71284F8C812002070BD000076
:109F100028600020BC6F002010B50021024802F02C
:109F20002AFD80F3100010BD4080002000F027B80B
:109F300070B51E2003F0F8FC052000F042F819204F
:109F400003F06CFD0025192003F0EEFC6006040E02
:109F50001B2003F044FD10B144F0010401E004F0C3
:109F6000FE04192003F05AFD6D1CEDB2082DEAD352
:109F7000E007E1D1BDE870401E2003F04FBD70B591
:109F8000B0F5001F1CD3C0F30745C0F30724C6B2C9
:109F900000F030F81E2003F0C7FC202000F011F87C
:109FA000284600F00EF8204600F00BF8304600F08E
:109FB00008F81E2003F032FDBDE87040FFF7B8BF7F
:109FC00070BD70B505460024192003F0ADFC05FAFC
:109FD00004F000064FF01A0002D403F0A5FC01E0E3
:109FE00003F01CFD192003F019FD641CE4B2082CD9
:109FF000EAD370BD10B51E2003F096FC0620FFF7D3
:10A00000E0FFBDE810401E2003F008BD0E4910B56A
:10A010000A784C780023A24212D0521CD2B20A70A5
:10A02000022A00D10B70084A0B780C3252F8232018
:10A0300002608868104420F07F408860012010BDD5
:10A040000360002010BD00004861002013460A464E
:10A050000021FFF737BD00002DE9F843104D0F46F2
:10A0600080461E4691466946286802F0DCFB0400E3
:10A0700014D01C21FCF721FA01202071C4F814909F
:10A08000380BC4F80080C4E902606946286802F011
:10A09000EBFB07F0CFFE0020BDE8F8830420FBE7D0
:10A0A000E044030001460E480E4A801AC00803220D
:10A0B00002EB0040B1F5D07F0AD0A1F58071A13943
:10A0C00008D0012908D0022908D1074903F038BF78
:10A0D0000649FBE70649F9E70649F7E7704700003C
:10A0E000F061030048610300F45C0300DC5D0300E1
:10A0F000405D0300845D030010B503780022072B48
:10A1000006D2DFE803F005040610202930000A70AB
:10A1100010BD01230B7003898B818388CB81C068BC
:10A1200088600A7410BD02220A7002898A818288BE
:10A13000CA81C2688A60807D062802D00020087427
:10A1400010BD0120FBE703220A70C2888A810289C0
:10A15000CA81C068886010BD04230B70C0888881E4
:10A16000CA818A6010BD0520087010BD70B5064D0B
:10A170000646002455F8241009B130468847641C6F
:10A18000042CF7D370BD00004879002030B5044698
:10A19000006887B00D46806800281FD018216846E7
:10A1A000FCF78BF90195A0680590207910B1012882
:10A1B00010D107E001208DF8000020690290E068CE
:10A1C000039005E002208DF80000E0680003029093
:10A1D00060690490206881686846884707B030BD90
:10A1E0002DE9F04186B016460C00804629D0112C8E
:10A1F00027D0082C25D018216846FCF75EF9ADF869
:10A200000280404601F05AF8ADF804001B481C4992
:10A210000027401AC5080D2C16D0204604F0AAFBD2
:10A220000246012000EB05404346164903F093FE29
:10A2300007208DF8000002948DF80C70684600F03D
:10A2400065F806B0BDE8F081022000EB054042460B
:10A250000D4903F079FE03208DF8000026B1307817
:10A26000C00701D0012000E002208DF8080041F273
:10A2700001108DF80C70ADF80A00DFE7A061030053
:10A2800048610300885503007854030010B5044664
:10A29000408801F013F8A080024801682046BDE81C
:10A2A000104008474060002010B50446808800F048
:10A2B0004FFF6080024801682046BDE81040084713
:10A2C000506000202DE9F04107460024064E074D5E
:10A2D00005E000BF56F8241038468847641CE8782B
:10A2E0008442F7DBBDE8F0816C75002068600020D7
:10A2F00010B50446408800F0E1FFA08002480168E4
:10A300002046BDE810400847F041030001490968B4
:10A31000084700009442030070B586B00446182137
:10A320006846FCF7CAF8A0890125A0F54040ADF8C1
:10A3300004002078324E062835D2DFE800F03403DE
:10A3400003032E4EA08900F0A6F930B9E08943F648
:10A35000FE71A0F54040884225D8A07B8DF808000A
:10A360002078032811D000208DF80900A068039000
:10A37000606860B109208DF80000606804908DF875
:10A380001450684606F0F2F80DE00120ECE70820D2
:10A390008DF800008DF81050F3E7A08900F07BF9EC
:10A3A00008B1E08930B17078002801D006F028FAB1
:10A3B00006B070BD606840B10B208DF80000606889
:10A3C00002908DF80C507570DBE70A208DF80000C4
:10A3D000BDF8040006F0B2FAF5E7606858B1142041
:10A3E0008DF80000606802908DF80C504FF6FF70F9
:10A3F000ADF80400C5E713208DF80000F6E7000073
:10A400005460002038B504460E480078A8B1A4F581
:10A410007F40FF380FD0684607F03EFC78B1052139
:10A42000017001210171C480684607F043FC07F008
:10A43000F3FC002038BD042038BD022038BD0820C0
:10A4400038BD0000A46100200C4808B5007888B130
:10A45000684607F021FC78B106210170684607F0D4
:10A4600029FC0748017809B10121017307F0D4FCE8
:10A47000002008BD022008BD082008BDA4610020FE
:10A480000C7A0020F0B587B014216846FCF715F867
:10A490002F4C207818B16846FFF768FE55E0201D64
:10A4A00002F04BFA98BB40F6F8700168481C02D1E4
:10A4B0004FF0102041694FF08050026940694B1CF9
:10A4C00001D100FB02F1234800220161A1F54051B6
:10A4D000C160214902F0CEFF002822D120481C2370
:10A4E0008C221E49006802F08BF905F089FD0500F9
:10A4F00016D0022D14D000270126062D13D005A852
:10A5000007F0CAFB90B106700C2D19D200E01CE0D8
:10A51000DFE805F0160E160E161516151610121099
:10A520000B2007B0F0BD26706760B4E70820F8E79D
:10A53000077105E0032100E00221017100E00671CE
:10A5400005A807F0B7FB07F067FC0020E9E700006B
:10A55000A4610020206E0020F04403005879002000
:10A560006844030038B5040014D0694607F03AFD8A
:10A57000A0B1BDF8000000EB8001094800EB8100AC
:10A58000C16849B1A17A39B1C168491EC1600020D2
:10A59000A07238BD052038BD062038BD0A2038BD60
:10A5A000E47900201FB501A9684607F0D7FC04B084
:10A5B00010BD07B513460A466946002007F0CEFCD9
:10A5C0000EBD07B513460A460021684607F0C6FCD3
:10A5D0000EBD20B119B10068086000207047052049
:10A5E00070470000F8B50D46040018D0BDB16946AB
:10A5F00007F0F8FCA8B1BDF800000B4900EB8000A3
:10A6000001EB800001210C30666802F099F92E60A0
:10A6100060680C3068600120A0720020F8BD052041
:10A62000F8BD0A20F8BD0000E479002018B103232A
:10A63000002209F0C9BB052070470223002209F05F
:10A64000C3BB0000084910B50A69042A0AD0074AAA
:10A65000096942F8210004480121103002F070F924
:10A66000002010BD0C2010BD84610020487900201E
:10A67000826883881A4003689A5C0A708168491C62
:10A6800081607047C26883881A4003689954C16822
:10A69000491CC160704743F6FE71A0F540408842F6
:10A6A00001D8012070470020704710B5044600789B
:10A6B000182802D1FDF71CFF207010BD10B504460C
:10A6C0000078182802D1FDF713FF207010BD70B577
:10A6D0000D460446B0F83812D0F834020122FDF7D6
:10A6E000DCFA00B1057004F13C0204F50D7104F1CF
:10A6F000540072DF70BD000070B51346002205469D
:10A70000112900D10122074C33B12179FDF714FF43
:10A7100000226178284600E06178BDE87040FDF7CE
:10A720000BBF0000E0600020F7B517460E0011D007
:10A730000098002560B100242146684602F0DFF849
:10A7400018B1A0B23946B0476D1C641C142CF3D369
:10A750002846FEBD0020FEBD10B50446C0B2FCF781
:10A76000D3FE204610BD406807F0B6BA0EB515A15D
:10A770009DF8080020F00F00401C20F0F000103081
:10A780008DF80800042202A87CDF18B10F4A6B2163
:10A79000FBF740FD0020009001905021ADF804002F
:10A7A000ADF800104FF4C870A021ADF80600ADF868
:10A7B000021068467ADF002803D0044A7521FBF7AF
:10A7C00029FD0EBD4C59534200000000586C020098
:10A7D00070B508B1012070BD194C0025207B08B16F
:10A7E000257301E000F0A0F82078082826D2DFE8E1
:10A7F00000F02504080C10251420BDE8704000F07E
:10A8000021B8BDE8704000F07DB8BDE8704000F0B0
:10A810005FB8BDE8704000F03BB86088084900EBC5
:10A820008000283901EB80004068BDE8704005F0E9
:10A83000C7BB6560BDE8704005F0D0BB0F2070BDA0
:10A840000C7A00201149F0B48A1C00200346A1F1C3
:10A8500028050C18A67A4EB1A37200EB800405EB14
:10A860008404E66816B9247C012C0AD0401C80B20E
:10A870000228EED30B704B804B60F0BC41F61D50AC
:10A8800070471080F0BC00F03DB800000C7A00204A
:10A890000C48418801EB8102A0F1280101EB820103
:10A8A000CA6852B105210170074802218180016800
:10A8B00000230122054802F041BD042202704968CC
:10A8C000F6E700000C7A0020AC610020206E00202A
:10A8D00038B50A49084803240B684268898803EBA5
:10A8E000810153880470DB1C00201B0400909B0B2B
:10A8F000034802F077FE38BD0C7A0020AC610020DE
:10A90000206E0020074910B54888091D07F0BAFBE2
:10A9100018B1BDE81040FFF7DBBFBDE81040FFF7FE
:10A92000B7BF00000C7A0020F0B51F481F49012571
:10A93000067802248B88A0F12802082E19D2DFE8BD
:10A9400006F00418181B222F2F170189491C0181BA
:10A950000021418080F80C1001EB810312F82330B4
:10A9600043B100234418491C89B2A3720229F3D3CE
:10A970000570F0BD0123F5E742685288D21C1A44E5
:10A980008A800470F0BD46880D6806EB860602EBEF
:10A99000860256680E60556013818C80062100E0A7
:10A9A00007210170F0BD00000C7A0020AC6100208E
:10A9B0002DE9F043064680883288DFF85C8187B055
:10A9C0000746502A37D010DC5449554B06F10A058A
:10A9D000A1EB03014FEAD1014FF0020303EB014465
:10A9E000352A3AD0362A07D168E0522A02D0542AB2
:10A9F000F9D102E001F002F882E0182249496846E4
:10AA0000FBF742FDADF80270384600F057FCADF898
:10AA1000040000F0D3F90022444698F804103846A8
:10AA2000FDF78AFD0022E1783846FDF785FD68468E
:10AA3000FFF72CFC64E0307B012861D1B07A01285B
:10AA40005ED13089A0F52451023959D1012138460F
:10AA500001F028F808F0B4FF52E098F80610FDF76E
:10AA600053FD00284CD0002298F806103846FDF718
:10AA700063FDF288B2F5857F17D012B120462AA176
:10AA80000BE02A88012A03D0204636A103F05CFAA5
:10AA90006A88012A04D0204641A103F055FA04E057
:10AAA000A98800223846A1DF08B1002125E0012253
:10AAB00098F807103846FDF73FFD21E04FF00009F8
:10AAC00098F80710FDF720FDD0B1002298F8071084
:10AAD0003846FDF731FDF28812B1204612A104E09C
:10AAE000AA88012A04D020462DA103F02DFA03E004
:10AAF000A87900B1012081464946384608F068FB34
:10AB00000022364998F80200FDF798FC07B0BDE82E
:10AB1000F04307F037BF0000386000206061030099
:10AB20004861030048410300556E657870656374A1
:10AB300065642047415454207374617475732077A1
:10AB400068696C652067657474696E67204341525B
:10AB500020636861722076616C75653A20307825D3
:10AB6000780000004D756C7469706C652028256450
:10AB70002920434152206368617261637465726980
:10AB8000737469637320666F756E642C20757369C6
:10AB90006E67207468652066697273742E00000009
:10ABA000556E657870656374656420434152206317
:10ABB0006861726163746572697374696320766138
:10ABC0006C7565206C656E67746820282564292C77
:10ABD0002073746F726520302E000000D57702005C
:10ABE00070B504460078002814D1608800F006FF94
:10ABF0006588284600F0A4F928B107480122C178E9
:10AC00002846FDF799FC6088FEF7A6FCBDE8704079
:10AC100008F0D6BE70BD00003860002070B5204C32
:10AC200000252570FDF764FC6070FDF761FCA070E5
:10AC3000FDF75EFCE070FDF75BFC2071FDF758FC52
:10AC40006071FDF755FCA071FDF752FCE071627870
:10AC50000121182A18D0A278182A15D0E278182ACB
:10AC600012D02279182A0FD06279182A0CD0A27932
:10AC7000182A09D0182807D004F10C000560BFF38A
:10AC80005F8F2170002070BD0648074A801AC008F7
:10AC900001EB0040054903F053F9032070BD0000AB
:10ACA000386000206061030048610300244803000D
:10ACB0007CB504460078082837D1607A58BB207AE2
:10ACC0001C4E4FF6FF75012811D0072802D0082826
:10ACD0002BD121E0A08800F03BFA0446A84224D002
:10ACE000012100F0DFFE2046FEF736FC1DE0A088C3
:10ACF0006A46012105F05CFB68B90198007850B103
:10AD0000A08800F025FAA8420FD00122F178FDF7C3
:10AD100013FC07F037FE08E0F068012805D1BFF307
:10AD20005F8F044900200C310860BDE87C4008F0CA
:10AD300047BE0000386000202DE9F0418046024601
:10AD400001200021FBF78DFB1A4F05460E4678685F
:10AD5000FCF7CAFB00280CD1174CD4E90621104699
:10AD60002A4001EA06031A4305D0A843B143C4E9C7
:10AD70000601BDE8F081404603F014FF30B1D4E98C
:10AD8000040128433143C4E9040105E0D4E9041077
:10AD9000A943B043C4E90410D4E906012843314370
:10ADA000C4E90601A1687868BDE8F0410022FCF71B
:10ADB00057BB0000E8420300286100201CB5054A8B
:10ADC000D2E90212CDE900120022694605F0B6FC74
:10ADD0001CBD00006441030003484FF6FF718180F1
:10ADE0000121017000207047486000202DE9FC41DE
:10ADF000804600F063FA002403250127A0F57F4177
:10AE00002646FF3908D06A46082105F0D1FA18B95C
:10AE10000198841D8688056832462B4621464046A7
:10AE2000B1DF042804D0082804D00B2808D002E0A1
:10AE3000112000E00020002F00D10B20BDE8FC8194
:10AE40000027A80701D50125E6E7344303D00024F5
:10AE500026460325E0E7064806494246401AC00850
:10AE6000012101EB0040044903F06EF8E5E7000022
:10AE70006861030048610300EC4A03002DE9FC41CE
:10AE8000804600F01BFAA0F57F410646FF390ED040
:10AE900001252A466D1C0027ADB26B4608213046BD
:10AEA00005F0D0FA040006D0072C33D033E043F28B
:10AEB0000200BDE8FC81019903230A1D0B60404696
:10AEC000891DB2DF040004D00C2C09D0052C09D058
:10AED00009E032460821104605F02CFB04461AE032
:10AEE000012700E000240821304605F019FB70B16D
:10AEF00003F040FD0346094809493246401AC0089C
:10AF0000012101EB0040074903F025F80324002F3D
:10AF1000BFD100E00C242046CBE7000068610300AD
:10AF2000486103006C4A030004488088A0F57F4113
:10AF3000FF3901D007F030BD7047000048600020A5
:10AF40000EB502A9019100F0B9F96A46012105F098
:10AF50002FFA08B100200EBD019800780EBD000048
:10AF60002DE9F04107464FF6FF761048B3DF78B180
:10AF700003F000FD02460E480E49401AC0080121A8
:10AF800001EB00400C4902F0DFFF0320BDE8F08137
:10AF9000064C43F20305A41E324661883846AFDFF3
:10AFA000A842F3D16088401C6080F5E74A60002029
:10AFB0006861030048610300204A0300428800EBF7
:10AFC00082020C328A4201D9022070478188A1F5A1
:10AFD0007F42FF3A03D0008808B10020704701206B
:10AFE0007047884204D20068401C01D0012070479D
:10AFF000002070473EB5027802230C46B3EB520F97
:10B0000017D1B0F80110ADF80010C1788DF802101A
:10B010008188ADF8041080798DF8060002AA01A994
:10B020002046FBF7F7FE032202A96846FBF765FA04
:10B0300008B100203EBD01203EBD000070B50D46A8
:10B040000446142810D2FDF797FA68B1084904EBBA
:10B05000840001EB4000D0F802102960C188A9806B
:10B06000007AA871002070BD43F2020070BD00009C
:10B07000D472002070B5018892B0102961D1011DF1
:10B080002C226846FBF700FA9DF804004FF6FF7685
:10B0900003213446B1EB500F2BD005F00DFB9DF88A
:10B0A00004006D4640080ED001280CD0022820D1A3
:10B0B00018E00D99281D1131FBF775FD18B100BF7F
:10B0C000BDF82C4015E00CAA0BA9072005F0C8FA22
:10B0D0000028EED10DE00D99281D491CFFF78AFFCD
:10B0E0000028EDD10CAA0BA9072005F0B9FA002819
:10B0F000F1D1BDF80000B44200EB8001124820F805
:10B10000114000EB41000199C0F80210BDF8081091
:10B11000C1809DF80A10017213D0BDF80000ADF88F
:10B120002E000020ADF83040084E8DF82C000BADFD
:10B13000044600BF56F8241028468847641C022C99
:10B14000F8D312B070BD0000D47200207841030023
:10B150002DE9F0414FF6FF760546B04213D00B4F74
:10B16000002400BF04EB840037F81000A84206D189
:10B170002046FDF701FA10B12046BDE8F081641CBD
:10B18000A4B2142CEED33046F7E70000D4720020AE
:10B190003EB50C46054605F08FFA0BE0BDF8000001
:10B1A000A04207D02846029900F00EF810B1BDF871
:10B1B00000003EBD01AA6946072005F051FA0028AB
:10B1C000ECD14FF6FF703EBD2DE9F0410C4605462F
:10B1D00000F1110701F111061022491C401CFBF778
:10B1E0008CF948B9681C00F027FA28B1601C00F0FF
:10B1F00023FA08B1012400E0002431463846FBF769
:10B20000D2FC3B780222B2EB530F0CD00321B1EBFE
:10B21000530F08D03378B2EB530F04D0B1EB530F78
:10B2200001D0012100E00021084201D18C4302D06D
:10B230000120BDE8F0810020FBE7018811B9421828
:10B2400092780AB101207047491C0829F7D30020E1
:10B25000704710B50C460346FFF7EFFF00280AD0F1
:10B2600018882188884205D10822A11C981CFBF768
:10B2700044F908B1002010BD012010BD142804D2EB
:10B28000024A00EB800022F810107047D4720020B0
:10B2900070B50546FFF75CFF0446284605F08CF8BC
:10B2A000002808D1142C06D2034B04EB84024FF67D
:10B2B000FF7123F8121070BDD472002010B504463F
:10B2C000142808D2FDF758F928B1044904EB84008A
:10B2D00031F8100010BD4FF6FF7010BDD472002081
:10B2E0003EB5044605F0E8F90EE0019920464631E6
:10B2F000FFF7AFFF28B9019920462A31FFF7A9FFD0
:10B3000010B1BDF808003EBD6A4602A9072005F04D
:10B31000A7F90028E9D14FF6FF703EBD10B50A49E4
:10B3200041600A4801F009FB58B903F08BFA07495C
:10B330001C238C22087404488C39001F006801F01B
:10B340005FFA002010BD0000E4440300B87A00203A
:10B350002DE9F0412D4F002518B17D600120BDE899
:10B36000F0810879012258B1294E01280CD0274CD0
:10B370004FF002080834022821D0032842D128E0E7
:10B380000A7104F02BFE3BE05FF0000000EB80014F
:10B3900016F82110022908D0401C80B20228F5D3EB
:10B3A0003A707D6041F61D50D9E700EB800006F849
:10B3B000205006EB8000406804F002FE20E00D7192
:10B3C000A4F80480002301221248216801F0B6FF8E
:10B3D00016E00D71206804F0F3FD0D492368283153
:10B3E000498801EB810206EB8201D1F804C0C4F860
:10B3F00000C04B60A3880B81A4F8048006F822509B
:10B400000028ACD07D600E20A9E70000A4610020D8
:10B41000E4790020206E0020084A002101EB81031E
:10B4200032F82330834204D101EB810002EB80002B
:10B430007047491C0229F1D300207047006F00209B
:10B440002DE9FC5F0E008346DDE90C47C6F10000E4
:10B4500098469246814600D40846012503E000BF85
:10B4600090FBFAF06D1C5045FADAA84500D9454624
:10B4700024B1002E01DB780700D5641EB80702D581
:10B48000B8F1000F0AD0F80708D13CB1A54205D2A7
:10B4900020215846641EFEF739F8F6E7002E02DA3E
:10B4A0004E462D2102E0780703D52B215846FEF7A2
:10B4B0002DF807F0030002280BD1B8F1000F08D1D6
:10B4C0003CB1A54205D230215846641EFEF71EF855
:10B4D000F6E7CDE90047434652463146584608F064
:10B4E00015FABDE8FC9F000070B50D4604460068E3
:10B4F0004FF4887103F05EFA4FF49071206803F006
:10B5000059FA4FF49271206803F054FA4FF4A27183
:10B51000206803F04FFA20681149C0F8041320682E
:10B52000690740F30730090E002806DA00F00F0023
:10B5300000F1E02080F8141D03E000F1E02080F825
:10B5400000142068012140F3073000F01F029140F1
:10B550004009800000F1E020C0F8001170BD00003B
:10B5600010030200024600201268530713D502F0B0
:10B570000300012802D002280CD105E0C2F3831099
:10B580000B68801C184404E00223086803EB925205
:10B5900010440860012070470248007A002800D05B
:10B5A00001207047B87A0020F0B58488A51894422D
:10B5B00000D82246A41AC288D6189A4200D8134648
:10B5C000D21A4B880788BB420CD34088834209D8E3
:10B5D0008888A04206D3A84204D8C888904201D3E4
:10B5E000B04201D90020F0BD0120F0BD10B509899D
:10B5F0002AB1D088491C814218D1002010BD90F892
:10B60000C62202EB8204C4EB821200EB42021289D2
:10B610009142F2D0491C198090F8C61201EB8102C8
:10B62000C2EB811100EB4100008902E01980D08853
:10B63000401E5880012010BD0021425C0AB101204B
:10B640007047491C1029F8D30020704790F82E004D
:10B65000C0F3C100012803D0032801D000207047A7
:10B6600001207047800701D00020704701207047FB
:10B670000A4810B5807860B1002401E0022C06D0A1
:10B680002046FDF777FC641C042CF7D310BD03247F
:10B69000F6E7BDE81040FDF791BC0000086000200F
:10B6A00003480179C90702D00078FDF703BE70474F
:10B6B00008600020F72101801721418000210171DD
:10B6C0004171FB2181711B21C17170472DE9FE4F32
:10B6D0002E4F984692460D00814601D000260DE07F
:10B6E000684600F067FF6A460021484604F070FD96
:10B6F0003878009E10B99DF8090098B1524631463D
:10B70000484607F0F5FB0446014600224846FEF78E
:10B71000F3FF0D2C37D008DCA4B3082C33D00B2C4E
:10B7200009D130E00520BDE8FE8F112C1ED0A4F514
:10B730004050023827D0204603F01CF90246144836
:10B7400014494B46401AC008012101EB0040124940
:10B7500002F001FC5FF00305B8F1000F04D032469F
:10B7600021464846FEF73CFD2846DCE72A46F978A4
:10B770004846FCF7E1FE5246B9784846FCF7DCFE45
:10B780000025E9E7FFE72546E6E70000E060002046
:10B79000A061030048610300305503007EDF0428E8
:10B7A00000D111207047000070B50D001446064608
:10B7B00017D01648C1783046FCF7BEFE3046FFF77A
:10B7C0007DFD0146A0F57F40FF3800D074B12946C9
:10B7D0003046FFF7E3FF04462878C0070BD001226C
:10B7E0000AE0BDE870400021FFF7D8BF304600F006
:10B7F0000FF8044605E002222CB10021304606F085
:10B80000EDFF204670BD0121F8E70000D860002060
:10B810007CB50E4605466A460721304604F0C8FD51
:10B82000040013D0052C1DD0112C2BD003F0A2F84E
:10B830000246194819493346401AC008012101EB54
:10B840000040174902F087FB03241BE0019C94F899
:10B850004400183410F0010001D0019C34340CB1C4
:10B8600010B106E011240DE004F11200FFF7E5FC31
:10B8700038B1224604F11201284685DF040008D0C1
:10B8800000E00B2400210022284606F0A7FF2046F6
:10B890007CBD0121F7E700009861030048610300C7
:10B8A000C053030070B514460D46064606F0C6FFA9
:10B8B00000280FD0304604F031FC002822462946EB
:10B8C000304603D0BDE8704004F02EBCBDE87040A7
:10B8D000FEF7BCBB70BD000070B5094D0646A978E7
:10B8E000FCF712FE0446E9783046FCF70DFE0146EF
:10B8F00022463046BDE870400123FFF7E7BE000056
:10B90000E06000202DE9F047394E002780463D4693
:10B91000DFF8E090D6F804A057E003D00446D0F852
:10B920001C8035E099F8002002EB4201521CD2B293
:10B9300089F8002009EBC10199F80230091D9A42EB
:10B9400001D189F8005048680A780446012A12D0CB
:10B95000022A02D0032A3BD108E007F0EFFC00B135
:10B960000127257434E00574C06900E07068002880
:10B97000F9D170602CE0207C50BB88686060C8689A
:10B98000A0600869E0604869A061F07800B1656076
:10B990006268B168184B501A20F07F40984202D27A
:10B9A000A168084406E0881AA16820F07F4081421F
:10B9B00002D9081A206000E0256065600120A560BA
:10B9C00020742046E56107F09BFCB8F10000A4D18B
:10B9D00099F8001099F801008142A3D117B9716854
:10B9E000514502D00120BDE8F0870020FBE70000B0
:10B9F00048610020E8770020FFFF7F00F0B587B0A6
:10BA00000546002718216846FAF757FDA5F57F403F
:10BA1000ADF80250FF3825D02846FFF7E7F90400BB
:10BA200022D01B481B49401AC6080B2C22D0112CCF
:10BA30001ED0A4F5405002380ED0204602F09AFFE6
:10BA40000246012000EB06402B46134902F083FA20
:10BA50002146284606F012FF10483A4681782846CB
:10BA6000FCF76AFD07B0F0BD0E208DF800000BE07A
:10BA70000127F1E70F208DF80000022000EB0640BF
:10BA80002A46074902F060FA6846FEF7FFFBE3E743
:10BA90006061030048610300F4480300386000203F
:10BAA000484903000A4602494978FCF745BD0000B1
:10BAB000386000202DE9F041002786B080463E46E0
:10BAC000FFF7DCF9040022D0112C22D01B481C49BE
:10BAD000401AC508862C1ED0A4F5405002380ED05E
