:020000040002F8
:1060000090BA0020DD630200E5630200E76302004E
:10601000E9630200EB630200ED6302000000000090
:10602000000000000000000000000000EF6302001C
:10603000F163020000000000F3630200F563020058
:106040003D680200F7630200D16A0200F7630200B4
:10605000F7630200F7630200B1650200F763020014
:10606000F7630200F7630200F7630200F7630200C0
:10607000F7630200F7630200F7630200F7630200B0
:10608000F763020091680200F7630200F763020001
:10609000C5680200F7630200CD680200F7630200E2
:1060A000F7630200F7630200F7630200F763020080
:1060B000F7630200F7630200000000000000000028
:1060C000F7630200F7630200F7630200F763020060
:1060D000F7630200F7630200F763020000000000AC
:1060E00000000000000000000000000000000000B0
:1060F00000000000000000000000000000000000A0
:10610000000000000000000000000000000000008F
:10611000000000000000000000000000000000007F
:10612000000000000000000000000000000000006F
:10613000000000000000000000000000000000005F
:10614000000000000000000000000000000000004F
:10615000000000000000000000000000000000003F
:10616000000000000000000000000000000000002F
:10617000000000000000000000000000000000001F
:10618000000000000000000000000000000000000F
:1061900000000000000000000000000000000000FF
:1061A00000000000000000000000000000000000EF
:1061B00000000000000000000000000000000000DF
:1061C00000000000000000000000000000000000CF
:1061D00000000000000000000000000000000000BF
:1061E00000000000000000000000000000000000AF
:1061F000000000000000000000000000000000009F
:10620000DFF80CD000F096F900480047EDE20200FC
:1062100090BA002000B583B002900091019244F240
:10622000010071466A4601F0C5F903B000BD0000E7
:1062300030B450E8012F93B2C48923448489A34227
:1062400028BF1B1B0489A34202BFBFF32F8F00206E
:1062500007E0C3EA020340E80134002CE9D14FF023
:1062600001000A6030BC704750E8012FC2EA0242C8
:1062700040E801210029F7D1704730B450E8022FDF
:106280001FFAA2F3C488A34202BFBFF32F8F0020DE
:106290000DE0C48923448489A34228BF1B1BC2EAA2
:1062A000034340E80234002CE8D14FF001000A60BB
:1062B00030BC704750E8022FC2EA224240E8022177
:1062C0000029F7D17047034653E8022FD988B2EB73
:1062D000324F4FF0000017BF92B241EA014142EA4B
:1062E000014104E05A68B2EB324F08BF012043E895
:1062F0000212002AE8D1704730B4044654E8000F77
:106300000D4644E80053002BF8D1156030BC7047AF
:1063100030B4044654E8000F40EA010544E8005355
:10632000002BF7D1156030BC704730B4044654E8F8
:10633000000F00EA010544E80053002BF7D1156077
:1063400030BC704730B4044654E8000F80EA0105C1
:1063500044E80053002BF7D1156030BC704730B4CF
:10636000044654E8000F00EB010544E80053002BFD
:10637000F7D1156030BC704730B4044654E8000FC4
:10638000A0EB010544E80053002BF7D1156030BCA9
:10639000704770B404464FF0000054E8006F0D6879
:1063A000AE4207BF44E80023012044E800630E60CA
:1063B000002B1CBF0020F0E770BC704730B40446CF
:1063C00054E8000F88422CBF451A054644E80053A4
:1063D000002BF5D1156030BC70470000064880479F
:1063E00006480047FEE7FEE7FEE7FEE7FEE7FEE7BA
:1063F000FEE7FEE7FEE7FEE7E56802000162020055
:106400002DE9F05F0546002092469B4688460646E9
:10641000814640241BE0284641464746224600F07C
:1064200079F853465A46C01A914110D3114618467E
:10643000224600F016F82D1A67EB01084F46224657
:106440000120002100F00DF817EB00094E41201E3D
:10645000A4F10104DFDC484631462A464346BDE844
:10646000F09F202A04DB203A00FA02F10020704756
:106470009140C2F1200320FA03F319439040704782
:1064800000487047209C030040EA01039B0703D0AB
:1064900009E008C9121F08C0042AFAD203E011F863
:1064A000013B00F8013B521EF9D27047D2B201E025
:1064B00000F8012B491EFBD270470022F6E710B509
:1064C00013460A4604461946FFF7F0FF204610BD62
:1064D000421C10F8011B0029FBD1801A704710B52F
:1064E000002200E0521C835C8C5CA34201D1002B93
:1064F000F8D1D8B2E1B2401A10BD30B50446002040
:10650000034600E05B1C934203D2E05CCD5C401B81
:10651000F8D030BD202A04DB203A21FA02F0002115
:10652000704721FA02F3D040C2F1200291400843A3
:1065300019467047064C074D06E0E06840F001033D
:1065400094E8070098471034AC42F6D3FFF75CFE9E
:106550003CBB03005CBB030070B58C1810F8015BFA
:1065600015F0070301D110F8013B2A1106D110F8EC
:10657000012B03E010F8016B01F8016B5B1EF9D1F0
:106580002B0705D40023521E0DD401F8013BFAE776
:1065900010F8013BCB1A921C03E013F8015B01F8E1
:1065A000015B521EF9D5A142D8D3002070BD000076
:1065B0002DE9F04F89B00027002008904FF480703B
:1065C00007900126002412E0079809F017FD40B15A
:1065D00000BF7B480068304018B1079809F000FD03
:1065E000374376000798001D80B20790641C082C82
:1065F000EAD34FF4BE7009F001FD50B14FF4BE7004
:1066000009F0EEFC47F0004708AA0121002009F03C
:10661000CDFCF8B200B3012600241BE006EA070017
:10662000B0B100BF674850F82400C0F30420804692
:1066300000BF644850F82400C0F301408146204662
:1066400003F004FE054615B149464046A84700BF81
:106650007600641C082CE1D307F0004000287DD0B0
:10666000002006900590002505E04FF0FF3004A9BA
:1066700041F825006D1C002DF7D000BF00200690CA
:1066800000245FE05048005D0390039820F0C009AB
:106690004D480057401C002853D004A9484608F034
:1066A0001CFB00284DD003984FEA901A484603F08F
:1066B00015FE804603F0CAFD0290029810B9BAF1A7
:1066C000030F3DD1BAF1030F03D105A9484608F0E5
:1066D0000FFB00BF00BF4FF0A041084600F5E0618E
:1066E00051F82910C1F3014800BF08A9484608F035
:1066F000F4FA8346BBF1000F02D0B8F1020F05D0C7
:10670000BBF1000F1BD1B8F1030F18D1BAF1030F81
:106710000FD1B8F1020F01D1032000E00220019057
:106720004846019909F0C8FB0698401CC0B2069083
:1067300000BF029818B151464846029A904700BFE0
:1067400000BF641C042C9DD3069888B34FF0010849
:1067500003AA0121002009F029FC00E02DE000251A
:106760000BE003A850F8250008A951F8251088422D
:1067700002D04FF0000802E06D1C002DF1D000BFE8
:10678000B8F1000F02D00020069010E000250CE0C8
:1067900003A850F8250008A941F8250005A850F8DD
:1067A000250004A941F825006D1C002DF0D000BF84
:1067B000069800287FF462AF00BF09B0BDE8F08FF3
:1067C0000463004010650040D483002000F01F02E5
:1067D00001219140024A430942F82310704700000A
:1067E00080E200E000F01F02012191404209920086
:1067F00002F1E022C2F800117047000000F01F0211
:1068000001219140024A430942F8231070470000D9
:1068100000E200E010B5002807DA4A07140E054A26
:1068200000F00F031B1FD45403E04A07130E024A63
:10683000135410BD18ED00E000E400E010B54FF473
:10684000807008F01DFE80B14FF4807008F021FECA
:10685000012008F027FE0D48407930B901200B498E
:10686000487108460168002088474FF4827008F09C
:1068700007FE50B14FF4827008F00BFE022008F0C2
:1068800011FE024801680120884710BD646D002098
:1068900010B500200949086000210948C0F84411DA
:1068A000C0F84811C0F84C1100200549C1F800019A
:1068B00002493C39086011F077FD10BD40110140DC
:1068C0000010014010B511F079FC10BD10B50AF0B0
:1068D00045FC10BD01480249086070470090D00394
:1068E000886E002010B504F08DFD28B16B4800883B
:1068F000C0F304206A49086004F0D8FD10B169486B
:106900006949486704F0FAFD30B16448E03800682E
:10691000C0F342306549086004F01AFE28B16448AB
:10692000006820F080706249086004F029FE48B1D8
:106930000020604908604FF08041C1F810015B49B8
:10694000091F086004F046FE18B10320574964315E
:10695000086004F057FE68B105205749086001201F
:1069600055497831086000205349083108603F20BC
:10697000091F086004F05EFE002855D04748E0304B
:1069800000684E4908604548E4300068091D086009
:106990004248E8300068091D08604048EC30006853
:1069A000091D08603D48F0300068091D08603B483B
:1069B000F4300068091D08603848F83000683F4925
:1069C000203108603548FC300068091D08603C48EB
:1069D0000068091D08603A48001D0068091D08602C
:1069E000374808300068091D086035480C300068D9
:1069F000091D086032481030006830494031086095
:106A00002F4814300068091D08602D4818300068B0
:106A1000091D08602A481C300068091D08602848C4
:106A200020300068091D086004F0C2FC30B11B482A
:106A3000CC38006800F04F002249086004F00CFDDB
:106A400040B12148006800F0010018B16FF001006A
:106A50001D49086004F042FD28B11C48006840F45C
:106A600080601A49086012487438006840F4700069
:106A70000F497439086000BF00BF00BFBFF34F8FDC
:106A800000BF00BF00BF00BF00BF00BFBFF36F8FDC
:106A900000BF00BF00BFFFF71DFF10BD24030010A3
:106AA000403501400DF0ADBA00C007403C05004044
:106AB000FCED00E00C0100401056004020C50040F5
:106AC00024040010E40E0040000400403C17004085
:106AD00010B502490868804710BD00006C6D0020A9
:106AE000014A024900F022B933BF0200D46D0020F0
:106AF00002E008C8121F08C1002AFAD17047704787
:106B0000002001E001C1121F002AFBD170470000E4
:106B10000146202908DA012088400A4A104008B1BD
:106B2000012070470020FCE7402909DAA1F120008C
:106B3000012202FA00F008B10120F2E70020F0E79C
:106B40000120EEE7FC06FFBD00BFEFF31081084611
:106B500072B67047F8B505460E46002E24D1694638
:106B600028460DF037FE044643F202018C420AD05B
:106B700000BF274637B100BF3F4A8D213846FFF797
:106B800049FB00BF00BF9DF80000C0F3400050B1BA
:106B90003A493B4A891AC908042242EA014039A10C
:106BA00009F032FDF8BD00BF002128460DF052FE6D
:106BB0000446002C5ED0112C5CD00D2C21D12F4925
:106BC0002F4A891AC908022242EA01402A46374957
:106BD00009F024FD1321284676DF0446002C49D015
:106BE00020460AF095FB07462449254A891AC90818
:106BF000022242EA01402B463A462DA109F01AFD35
:106C000038E00B2C0BD11D491D4A891AC9080222F4
:106C100042EA01402A46344909F000FD2AE043F2E5
:106C2000020084420BD11549154A891AC90802226B
:106C300042EA01402A462D4909F0F0FC1AE02046BC
:106C40000AF066FB07460D490D4A891AC908012258
:106C500042EA01402B463A4625A109F0EBFC00BF71
:106C6000274637B100BF044ABC213846FFF7D2FAA5
:106C700000BF00BF00BF95E780AB0300C4BB0300AB
:106C80006CBB0300416C726561647920656E637250
:106C900079707465642C20736B697070696E6720FD
:106CA00073656375726974792E000000C0A70300D4
:106CB00073645F626C655F6761705F646973636F63
:106CC0006E6E65637428292072657475726E6564D2
:106CD000202573206F6E20636F6E6E5F68616E6437
:106CE0006C652025642E000080A8030034A80300F2
:106CF000417373657274696E672E20706D5F636F88
:106D00006E6E5F7365637572652829207265747590
:106D1000726E6564202573206F6E20636F6E6E5FE8
:106D200068616E646C652025642E00002DE9F041D9
:106D300016460F460446002503E03946B047641C5A
:106D40006D1C20780028F8D12846BDE8F08131B5C7
:106D50000025002406E02146684607F0C6FE00B183
:106D60006D1C641C142CF6D3284638BD70B505463E
:106D70000C4605B10CB9002070BD28784008217878
:106D8000B0EB510F01D00020F6E70622611C681C11
:106D9000FFF7B3FB08B90120EEE70020ECE701465E
:106DA00001F0030008B9012070470020FCE702460B
:106DB00050680068401E084008B901207047002054
:106DC000FCE70246002104E0505C08B10120704756
:106DD000491C0629F8D30020F9E710B50346D86806
:106DE000884206D88818401E1C69A04201D801209C
:106DF00010BD0020FCE7000010B504466CB1084847
:106E0000C068A04209D806480069A04205D32046C0
:106E100006F017FB08B1012010BD0020FCE70000C0
:106E20008C6E002070B504460D4604F24B20FFF72F
:106E3000C8FF0646012D06D0022D0DD0032D11D01E
:106E4000042D19D113E0A07928B194F8240010B9C9
:106E50000EB1012070BD00BFE07910B10EB102206B
:106E6000F8E700BF207A08B10320F3E700BF607A9B
:106E700008B10420EEE700BF0020EBE70146481C04
:106E8000052290FBF2F302FB1300C0B270472DE91C
:106E9000F04704460D462F4695F82080B4F81C9024
:106EA00000260BE007EB46124946A06901F0CEFA36
:106EB00010B10120BDE8F087701CC6B24645F1DB79
:106EC0000020F7E770B50546012D02D103F0C6FE9C
:106ED00019E001210C48007873DF044600BF264604
:106EE00036B100BF09A2D7213046FFF793F900BFA2
:106EF00000BF1049104A891AC908032242EA01401A
:106F00000EA109F081FB70BD046C00202E2E5C2EBA
:106F10002E5C2E2E5C4C595F424C455F50455249C9
:106F200050484552414C5C6C795F626C655F702ED5
:106F30006300000024BC03006CBB03005374617247
:106F4000742041647600000010B501220221002067
:106F500002F0D8FD044600BF1CB1072C01D020462A
:106F600010BD00BF07220221012002F0CBFD044624
:106F700000BF1CB1072C01D02046F1E700BF0A2258
:106F80000021084602F0BEFD044600BF1CB1072CDC
:106F900001D02046E4E700BF0020E1E730B5A5B00E
:106FA000354800680090354800788DF802003C2193
:106FB00016A8FFF782FA02208DF8580001208DF8FC
:106FC0005A0006208DF85B003C2107A8FFF775FAF0
:106FD0000120ADF82C00CDF830D02948021D016801
:106FE00016A801F07DF9044600BF25463DB100BF5B
:106FF00024A240F21F112846FFF70CF900BF00BF82
:107000001F4800F10C02816807A801F069F90446E5
:1070100000BF25463DB100BF1AA24FF4917128462A
:10702000FFF7F8F800BF00BF182101A8FFF745FAE5
:10703000002002908DF818004FF496700390012004
:107040008DF804000020ADF8100001208DF8190023
:1070500001AA0B49154872DF044600BF25463DB121
:1070600000BF08A240F22F112846FFF7D3F800BF57
:1070700000BF25B030BD00006C950300E86B002018
:10708000086C00202E2E5C2E2E5C2E2E5C4C595F40
:10709000424C455F5045524950484552414C5C6C0A
:1070A000795F626C655F702E63000000046C0020E5
:1070B00070B501210C48007873DF044600BF2546F7
:1070C00035B100BF09A29D212846FFF7A3F800BFF4
:1070D00000BF1049104A891AC908032242EA014038
:1070E0000EA109F091FA70BD046C00202E2E5C2ECA
:1070F0002E5C2E2E5C4C595F424C455F50455249E8
:1071000050484552414C5C6C795F626C655F702EF3
:107110006300000024BC03006CBB03005374617265
:10712000742041647600000070B58CB004460D46B2
:107130001646002005E0C0F10F01615C0DF800105B
:10714000401C1028F7D30D2104A8FFF7B6F9002042
:1071500005E02A5CC0F10F0304A9CA54401C0328AF
:10716000F7D3684646DF002005E0C0F10F0208A90A
:10717000895C3154401C0328F7D30CB070BD10B5A6
:107180000446022002F018FB10BD0146D8204058EA
:1071900008B9012070470020FCE7000010B5044644
:1071A00002480178204601F0B3FD10BD346D002087
:1071B00070B504462078072877D2DFE800F0046134
:1071C0003476426C720000BF39493A4A891AC908BC
:1071D000042242EA014038A109F016FA61880A4601
:1071E00001EB420303EBC102424B03EB421004F1FB
:1071F000400207F0C9FD054600BF2E463EB100BF64
:107200003DA24FF4EA713046FFF704F800BF00BF1B
:10721000618801EB410202EBC101364A02EB4110E9
:1072200000F06AFC42E06088414901EBC000D4E90B
:10723000011206C061883E4A02EBC10007F098FACD
:1072400034E0608800EB40003A4901EB8000D4E96B
:10725000052321690EC0618801EB4101354A02EB2B
:10726000810007F023FA606948B9608800EB4000AC
:10727000314901EB8001D4E9052320690DC115E0F6
:107280000B490C4A891AC908042242EA01402BA181
:1072900009F0BAF90AE004F1100000F0E5F805E0A1
:1072A00003E0A08904F03CF800E000BF00BF70BD1F
:1072B00024BC03006CBB03004170706C65204E6FF2
:1072C00074696669636174696F6E2043656E746585
:1072D00072205365727669636520646973636F76A3
:1072E00065726564206F6E207468652073657276C0
:1072F00065722E00586F00202E2E5C2E2E5C2E2ED6
:107300005C4C595F424C455F534552564943455387
:107310005C6C795F626C655F616E63735F635C6C0C
:10732000795F626C655F616E63735F632E630000FB
:10733000D8740020E8740020007500204170706C43
:1073400065204E6F74696669636174696F6E20436E
:10735000656E7465722053657276696365206E6F21
:107360007420646973636F7665726564206F6E2044
:10737000746865207365727665722E00F8B50446F0
:107380000E461546002000905BE0DC20005D0928D9
:1073900052D2DFE800F0050D151D252D353D4500C5
:1073A0006A463146204603F005F9DC21085547E0DE
:1073B0006A463146204607F0D5FADC2108553FE001
:1073C0006A463146204600F03DFADC21085537E098
:1073D0006A463146204600F01FFDDC2108552FE0AB
:1073E0006A463146204600F0A1FDDC21085527E021
:1073F0006A463146204600F0A3FDDC2108551FE017
:107400006A463146204600F08DFCDC21085517E025
:107410006A463146204600F0E9FDDC2108550FE0C0
:107420000A490B4A891AC908042242EA014009A103
:1074300009F0EAF8009503E00821DC20015500BFBF
:1074400000BF0098A842A0D3F8BD000024BC0300F0
:107450006CBB030050617273652073746174653A8C
:1074600020446F6E6520000070B50446208878B116
:10747000104DD4E9011355F821200F490F4D491B38
:10748000C908032545EA01400DA109F0D3F80FE032
:10749000208868B9074B616853F821200649074BDB
:1074A000C91AC908032343EA014008A109F0B6F844
:1074B00070BD0000C46B002024BC03006CBB030043
:1074C00025733A2025730D0A0000000025733A2029
:1074D000284E2F41290D0A0010B5002407E0074966
:1074E000096811F83400012109F0CAFF641C04483E
:1074F00000788442F3D3002010BD0000786D002096
:107500007C6D00202DE9F84306460D461746052FF1
:1075100002D20720BDE8F8830AF0E2F838B90AF091
:1075200089F8044600BF204600B1F3E700BF1848C1
:10753000066018480570184807600021174A116056
:1075400051600020164A1060506015E006EBC50837
:1075500014480068009098F802008DF8010098F82F
:107560000000114A694609F0E1FF044600BF2046C9
:1075700000B1CFE700BF00BF281EA5F10101CDB2C9
:10758000E4D10A4A00210A4800F076F9C2E7000077
:10759000786D00207C6D0020806D0020886D0020BB
:1075A000906D00209C9803008DC70200D1AD0200B1
:1075B000989803002DE9FE4307460E46144672B61E
:1075C00000BF09F037F900BF00BF08F02BFE00280C
:1075D000FBD100BF00BF012F0CD06FF480503844A6
:1075E00098B1B0F5405F2CD06FF4405108440028AA
:1075F00047D115E03149324A891AC908012242EAC5
:10760000014030A109F000F847E02C492C4A891AC2
:10761000C908012242EA014032A108F0F5FF3CE02E
:1076200025462B882549DFF898C0A1EB0C01C90835
:107630004FF0010C4CEA014033A16A6808F0FAFFF0
:107640002BE02546A86809F063FE8046D5E90010C6
:107650008DE8430019491A4BC91AC908012343EAA6
:10766000014043462FA1AA6809F01EF81349144AA5
:10767000891AC908012242EA014034A108F0C4FF76
:107680000BE00E490E4A891AC908012242EA01405C
:10769000324633A108F0C2FF00BF00BF00BF36482A
:1076A000006800F0010000B100BE00BF2246314674
:1076B000384600F063F8BDE8FE83000024BC0300F8
:1076C0006CBB0300534F46544445564943453A204A
:1076D000415353455254494F4E204641494C45442D
:1076E00000000000534F46544445564943453A2054
:1076F000494E56414C4944204D454D4F5259204129
:107700004343455353000000415353455254494F9E
:107710004E204641494C45442061742025733A254A
:10772000750000004552524F52202575205B25738D
:107730005D2061742025733A25750D0A5043206140
:10774000743A20307825303878000000456E642087
:107750006F66206572726F72207265706F7274004E
:10776000554E4B4E4F574E204641554C5420617458
:107770002030782530385800F0ED00E018B50123AE
:1077800000939DF800301E4B186059609A606FF4AA
:107790008043034463B1012B19D1194BDA60DB68D4
:1077A0001B88174CA3612346DB685B68E3610EE02E
:1077B000134B1A611B699B68114C636123461B695B
:1077C0001B68A36123461B695B68E36100BF00BFC0
:1077D0000B4B1B680A4B5B68094B9B68084BDB68CB
:1077E000074B1B69064B5B69054B9B69044BDB69C7
:1077F00072B600BF9DF80030002BFBD162B618BDF9
:107800005084002070B504460D46204604F094FADA
:1078100028B12946204604F083FA002070BD0520D7
:10782000FCE770B504460D46204604F085FAA188B1
:10783000884205D82946204604F08CFA002070BD05
:107840000420FCE730B503461468601C10600C5D32
:10785000E820C55803F586704455E820C45803F560
:107860008670005D30B1E820C058401CE824E0502C
:10787000022030BD0320FCE710B503460C4600BFD4
:107880000B48807808B9082010BD00BF0AB907204E
:10789000FAE70BB90720F7E71868007C08B1082061
:1078A000F2E71968002008744C744A6100BFEBE7E6
:1078B0007084002010B50FF049F800200F490870BF
:1078C00048700B20887000200D4908600D49087031
:1078D0000D4908701420FEF779FF06211420FEF7E9
:1078E00099FF1420FEF77EFF00200FF005F80EF040
:1078F000FDFF06490860002010BD000070840020D4
:10790000986D0020A86D0020A96D00209C6D0020BE
:107910002DE9F04104460E461746254600BF1048A3
:10792000807810B90820BDE8F08100BF0CB90820AC
:10793000F9E7052E01D20720F5E7686908B90820A4
:10794000F1E7687C012801D1304600E00020804644
:107950003B4642463146284610F0D6FCE3E700009D
:107960007084002070B50446254600BF0848807822
:1079700008B9082070BD00BF0CB1686908B90820BB
:10798000F8E7002028740221284610F0ECFCF1E70B
:10799000708400202DE9F041054629461448FFF780
:1079A00040FF064606BB134C002720781249085CAE
:1079B00020B1201D0AF092F8074608E020780E4911
:1079C000085C20B904F10C0009F0B6FF074600BFBF
:1079D00057B90A490648FFF715FF28B90122074998
:1079E000044807F0E7FD06463046BDE8F081000098
:1079F0008C850020AC6D0020606D0020C46D0020DF
:107A000010B5044620460FF0D1F910BD70B50446FC
:107A100025460E488068B0B1ADB9FFF795F8064627
:107A20000A4800680A490860084840684FF0E021A9
:107A3000C1F804010020054988601EB900BF62B684
:107A400000BF00BF00BF00BF70BD00009C850020CC
:107A500000E100E0F8B505460C4617462088001DF9
:107A6000B84201D90C20F8BD684679DF064600BF50
:107A7000304600B1F7E700BF032021886854208812
:107A8000401C20801920218868542088401C2080B8
:107A900020884119BDF8000011F05CF821880844E5
:107AA00020800020DFE7000010B5044600BF04A2DC
:107AB0004FF4E0712046FEF7ADFB00BF10BD0000A3
:107AC0002E2E5C2E2E5C2E2E5C4C595F424C455F58
:107AD00053455256494345535C6C795F626C655F10
:107AE000616E63735F635C6C795F626C655F616E2E
:107AF00063735F632E6300002DE9F04781462449DC
:107B0000244A891AC908032242EA014022A108F046
:107B10007BFD642505B90EE000BF4FF47A7606B907
:107B200005E0284F4FEA86184046B84700BF681E58
:107B3000051EF2D100BF484600F0AAFE044600BF71
:107B400025463DB100BF20A24FF49B712846FEF7A9
:107B500061FB00BF00BF484600F0ACFD044600BF1B
:107B600025463DB100BF18A240F239112846FEF764
:107B700051FB00BF00BF0649064A891AC908042202
:107B800042EA01401EA108F03FFDBDE8F087000079
:107B900024BC03006CBB03002D2D2D2D2D2D2D2D70
:107BA0002D2D2D2D2D2D2D2D2D6170706C655F6E61
:107BB0006F74696669636174696F6E5F736574750C
:107BC000700D0A00119503002E2E5C2E2E5C2E2EB9
:107BD0005C4C595F424C455F5345525649434553AF
:107BE0005C6C795F626C655F616E63735F635C6C34
:107BF000795F626C655F616E63735F632E63000023
:107C00004E6F74696669636174696F6E7320456E47
:107C100061626C65642E0D0A0000000070B50546B7
:107C20000C462068401C28B1206808F08CF92068B8
:107C300008F02AF96068401C18B10021606808F05B
:107C400009F92868A169C0F8241500BF617D227D6B
:107C5000286841EA0203C0F86C3500BFD4E900127D
:107C6000286809F08EFB207D012814D1A068401CF3
:107C700018B10021A06808F0EDF8E068401C28B1B8
:107C8000E06808F060F9E06808F0FEF8D4E9022145
:107C9000286809F05FFB70BD70B505460C4620688A
:107CA000401C28B1206808F059F9206808F0F8F85D
:107CB0006068401C18B10021606808F0D8F8286896
:107CC000A169C0F8241500BF617D227D286841EAC2
:107CD0000203C0F86C3500BFD4E90012286809F02F
:107CE00083FB207D012814D1A068401C18B100211D
:107CF000A06808F0BCF8E068401C28B1E06808F013
:107D00002DF9E06808F0CCF8D4E90221286809F0E0
:107D100051FB70BD70B504460D46204605F0CCFD04
:107D200070BD000070B504460E461546D4F8D0105C
:107D3000D4F8000101EB00100189E420005B8142CE
:107D400013DDE420015BFC20005B81420DDA296831
:107D5000481C2860715CE420025B005B401C83B21D
:107D6000E4200353D4F804018154E420015BFC2097
:107D7000005B81420BD0D4F8D010D4F8000101EBA5
:107D800000100089401EE421095B884233D104F1D0
:107D9000EC0010300EC8204600F0BAF828B10021DF
:107DA000E420005BD4F804211154E420015BFC20A2
:107DB000005B814201DA072070BD1049104A891A20
:107DC000C908042242EA01400EA108F01DFC04F19A
:107DD000EC0010300EC8204600F09AF818B104F1FB
:107DE000EC00216888472046FFF7CFF908B108204A
:107DF000E2E70320E0E70620DEE7000024BC030002
:107E00006CBB0300417474726962757465206669A5
:107E10006E6973686564210070B504460E461546A8
:107E20002968481C2860715CC4F80011D4200059EE
:107E3000D4F8001181420BD31F49204A891AC9087E
:107E4000042242EA01401EA108F0DEFB082070BDBA
:107E5000D4F8D010D4F8000101EB0010C168C4F8C8
:107E600004112046FFF791F958B11349134A891AB2
:107E7000C908042242EA014017A108F0C5FB082006
:107E8000E5E704F1EC0010300EC8204600F040F8A1
:107E900020B1D8200059401ED82108510649074B6F
:107EA000C91AC908042343EA014014A1D4F80021E7
:107EB00008F0B4FB0420CAE724BC03006CBB030039
:107EC00041747472696275746520494420496E7604
:107ED000616C69642E000000416C6C2072657175E4
:107EE0006573746564206174747269627574657316
:107EF0002072656365697665642E20004174747232
:107F000069627574652049442025692000000000DD
:107F10001FB50446D4F8D000029900EB0110007898
:107F2000012801D104B010BD0020FBE710B50346C5
:107F30001468601C10600C5DFC20C452052010BD4C
:107F400070B504460E4615462968481C2860715CC9
:107F5000FC20005B40EA0121FC2001530021E420C9
:107F60000153FC20005B98B1D4F8D010D4F8000184
:107F700001EB0010008938B1D4F8D010D4F800011A
:107F800001EB0010C06808B9072070BD0620FCE7AF
:107F9000FC210A5B0E490F4BC91AC908042343EAA6
:107FA00001400DA108F03AFB04F1EC0010300EC8BE
:107FB0002046FFF7ADFF18B104F1EC0021688847B7
:107FC0002046FFF7E2F808B10820DEE70320DCE7EF
:107FD00024BC03006CBB0300417474726962757445
:107FE00065204C454E2025692000000070B50446F0
:107FF0000E461546E420015BFC20005B814208DA56
:10800000E420005B401C81B2E42001532868401C3E
:108010002860E420015BFC20005B814213D104F165
:10802000EC0010300EC82046FFF772FF18B104F1C3
:10803000EC00216888472046FFF7A7F808B1082020
:1080400070BD0320FCE70720FAE710B5044663790A
:1080500003F003022179208805F04EFB10BD10B516
:108060000446207918B9204600F008F803E02046BD
:10807000FFF7EBFF00BF00BF10BD00002DE9FE437E
:1080800007463E884FF000080022594801783046E4
:1080900000F054FE7879C0F3800028B900213846FA
:1080A0000BF0CEFCBDE8FE8306F5807188B201AB13
:1080B000012207210BF042FE0546C5B1284609F012
:1080C00027F981464B494C4A891AC908012242EADC
:1080D000014033464A46494908F0ACFA2946304641
:1080E0000FF09CF9002138460BF0AAFCDAE7304685
:1080F00004F088FE04464FF6FF718C421BD10298B3
:1081000004F0D0FD04464FF6FF70844213D02146A0
:10811000304604F055FE3046FFF740F858B9304677
:108120000FF00EF93046FFF739F820B90021384634
:108130000BF086FCB6E74FF6FF7084421FD10CF0BF
:1081400007F804464FF6FF70844212D129492A4AA3
:10815000891AC908012242EA014029A108F054FA0B
:10816000042130460FF05AF9002138460BF068FC24
:1081700098E72146304604F023FE4FF0010806F54B
:10818000807188B2224607210BF060FE054625B9B2
:10819000012138460BF054FC28E0862D07D13046EB
:1081A0000FF000F9012138460BF04AFC1EE028468A
:1081B00009F0AEF881460F490F4A891AC908012211
:1081C00042EA014033464A461A49009408F042FA0E
:1081D000294630460FF022F9002138460BF030FCDA
:1081E000B8F1000F02D0204604F0F4FD00BF59E7BB
:1081F000316D0020CCBB03006CBB030020AF03003B
:10820000436F756C64206E6F7420616C6C6F63617A
:108210007465206E657720706565725F696420669D
:108220006F7220696E636F6D696E6720626F6E6436
:108230002E0000003CB00300002113E00C4802694E
:10824000012308E000BFD0680079884201D10023F3
:1082500003E0D0680268002AF4D100BF0BB10846E1
:108260007047491C0A29E9DB4FF0FF30F8E70000AE
:108270002C9A00202DE9F04104460F46154615B909
:108280000E20BDE8F0810020286000BF0CB90E2050
:10829000F7E700BF00BF206808B90E20F1E700BF74
:1082A00000BFE088C11700EB91718910A0EB81013C
:1082B00009B10720E5E700BF384600F0A1FCC6B2CF
:1082C000142E01D10520DCE72079B04201DC042026
:1082D000D7E7E188206806FB010028600020D0E78E
:1082E0002DE9FC41054688461646002437880020C3
:1082F000308095F82D0058B13A463146404600F09E
:1083000083FE044600BF204608B1BDE8FC8100BFE3
:10831000A87850B13A4631464046FFF79BFB0446E9
:1083200000BF204600B1F0E700BFE87860B1E9780F
:1083300048B23B463246414603F053FD044600BF77
:10834000204600B1E1E700BF686868B1696891F94B
:1083500000003B463246414610F041FA044600BF59
:10836000204600B1D1E700BF288900280EDD434632
:108370000622022105F10800CDE9006710F0FCFC9F
:10838000044600BF204600B1BFE700BF288A00288E
:108390000EDD43460722032105F11000CDE90067F9
:1083A00010F0EAFC044600BF204600B1ADE700BF74
:1083B000288B00280EDD43461522142105F11800F4
:1083C000CDE9006710F0D8FC044600BF204600B19C
:1083D0009BE700BF286A58B13B4632464146286AAF
:1083E00002F0C1F9044600BF204600B18DE700BF8E
:1083F000686A58B13B4632464146686A05F0D8FF84
:10840000044600BF204600B17FE700BF95F82C006E
:1084100000280BDD3B463246414628460FF0D6F990
:10842000044600BF204600B16FE700BF287858B16E
:108430003B4632464146284606F0A9F8044600BFAE
:10844000204600B161E700BF20465EE72DE9F84312
:10845000064688461546002000900DB9BDE8F88311
:1084600009236A464146304600F02BF80446BDF821
:1084700000003718BDF8000068B164B12846FEF767
:1084800027F8A04207D1224639462846FEF735F89C
:1084900008B90120E2E70020E0E7F8B504460E46FF
:1084A0001546002000902B466A463146204600F0D3
:1084B00008F807460FB90020F8BDBDF800002044B9
:1084C000FAE730B504460D4604B10AB9002030BDC4
:1084D000002103E0605C401C084481B2108888429F
:1084E00003DC481C205C984201D0A942F2DBA9427F
:1084F00001DB0020EBE7881C1080605C401E80B22E
:10850000E5E770B504460D462E462088102804D0B5
:10851000112807D026280FD109E0214630460AF05D
:1085200019FA0AE0214630460AF0B3FC05E021467C
:1085300030460AF0D9FF00E000BF00BF70BD7047B1
:1085400070B504460E46207808B9082070BDA670A4
:1085500000214FF41470C4F84A12A4F84E120155C9
:10856000A07910B1A078012809D0E07910B1A078E5
:10857000012804D0E07970B1A07802280BD1606B9B
:1085800030B1012084F851020820616B884702E075
:10859000002084F8510231462046FEF743FCA070CB
:1085A000606BA0B1A078032802D0A07804280ED177
:1085B000607960B194F8520248B9002084F85402FE
:1085C000012084F853020720616B884702E00020F5
:1085D00084F85302182104F13C00FDF76EFF0120DE
:1085E00084F83C0004F12C000BF0B8FF20B194F8A3
:1085F0002C105120015502E001215120015594F821
:10860000240060B104F12C000BF0A8FF20B194F815
:1086100028105220015502E001215220015500216D
:1086200050200155A078052824D2DFE800F01F0370
:108630000A11180004F13C0120460FF05DF90546CF
:1086400019E004F13C0120460FF03EF9054612E026
:1086500004F13C0120460FF061F905460BE004F1FE
:108660003C0120460FF088F9054604E0002084F81C
:10867000310000E000BF00BFA07898B104F13C02D7
:1086800004F15400D4F8441272DF05460DB12846B7
:108690005CE794F8301094F8540073DF05460DB190
:1086A000284653E7606B18B194F83100616B884736
:1086B00000204BE710B50446E28E0849084BC91A62
:1086C000C908032343EA014006A107F0A7FFE18E92
:1086D0002089012201F070FD10BD0000DCBB030009
:1086E0006CBB0300456E61626C652044617461205F
:1086F000536F75726365206E6F7469666963617428
:10870000696F6E732E2057726974696E6720746F7B
:108710002068616E646C653A2025692000000000C5
:1087200070B504460E4600BF0CB90E2070BD00BFE8
:1087300000BF0EB90E20F9E700BF00BF306808B9CE
:108740000E20F3E700BF227B3B493C4BC91AC90806
:10875000032343EA01403AA107F060FF0021DC2037
:108760000155E0200151E4200153E8200151306817
:108770002060706860604FF6FF70208142F6021141
:1087800021872185322104F10A00FDF796FE0FF0C2
:1087900031FF227B2849294BC91AC908032343EA20
:1087A00001402BA107F03AFF04F10C012C4862DFD5
:1087B000054600BF284600B1B8E700BF04F1140128
:1087C000284862DF054600BF284600B1AEE700BF7B
:1087D00004F11E01244862DF054600BF284600B1AF
:1087E000A4E700BF04F12E01204862DF054600BF68
:1087F000284600B19AE700BF227B0F490F4BC91AE8
:10880000C908032343EA014019A107F007FF4FF20B
:1088100031406081217B2173227B0749074BC91AB4
:10882000C908032343EA014015A107F0F7FE04F14C
:108830000A0000F0AFFA79E7DCBB03006CBB030071
:1088400030312C757569645F747970653A25640000
:1088500030322C757569645F747970653A256400EF
:10886000B8970300C8970300D8970300E897030060
:1088700030332C757569645F747970653A256400CE
:1088800030342C757569645F747970653A256400BD
:1088900010B50446E28C0849084BC91AC9080323DD
:1088A00043EA0140064907F0B9FEE18C2089012224
:1088B00001F082FC10BD0000DCBB03006CBB0300B8
:1088C000C8B203002DE9F04104460D462E46278824
:1088D000112F0ED0382F02D0392F0FD104E02146AE
:1088E00030460AF0C7FE0AE0214630460AF00BFB8C
:1088F00005E0214630460AF0F4FA00E000BF00BF70
:10890000BDE8F081F0B59DB007460C462278594984
:10891000594BC91AC908042343EA014057A107F07B
:108920007DFE04F10E06207800287CD1A0884FF24D
:1089300031418842F9D1A179387B8142F5D14D4945
:108940004D4A891AC908032242EA014058A107F09A
:108950005BFE00256EE005EBC50036F81000A0F5C3
:1089600090500D3800283FD0A0F53440DC38D0B10D
:10897000A0F590500A38002859D13E493E4A891A3C
:10898000C908032242EA01404AA107F03DFE05EB77
:10899000C50006EB40010A6812924A6813920989E1
:1089A000ADF8501044E03349334A891AC90803220C
:1089B00042EA014048A107F027FE05EBC50006EB9F
:1089C00040010A680DF12200CDF862204A68CDF816
:1089D00066200989ADF86A1005EBC50006EB40007A
:1089E0004189ADF86C1023E02249234A891AC9084D
:1089F000032242EA014041A107F006FE05EBC50053
:108A000006EB40010A680DF11200CDF852204A68C9
:108A1000CDF856200989ADF85A1005EBC50006EBD4
:108A20004000418900E012E0ADF85C1000E000BFBA
:108A300000BF6D1C207AA8428DD800208DF8000060
:108A40006088ADF802006846396888470FE0094938
:108A5000094A891AC908032242EA014032A107F0F3
:108A6000D3FD01208DF800006846396888471DB0A5
:108A7000F0BD0000DCBB03006CBB0300446174610B
:108A80006261736520446973636F766572792068EB
:108A9000616E646C65722063616C6C6564207769DB
:108AA0007468206576656E74203078257800000043
:108AB00031313100436F6E74726F6C20506F696E8C
:108AC0007420436861726163746572697374696369
:108AD00020666F756E642E004461746120536F755B
:108AE000726365204368617261637465726973744F
:108AF000696320666F756E642E0000004E6F7469A6
:108B00006669636174696F6E20706F696E7420436B
:108B10006861726163746572697374696320666FFA
:108B2000756E642E00000000323232000146087972
:108B3000032802DA88790C2801DB0720704700201F
:108B4000FCE700002DE9F041044600BF14B90E20F7
:108B5000BDE8F08100BF1C2221461C48FDF794FCB3
:108B60001B481A490860206860B120687ADF054612
:108B70000DB12846ECE7164821680A68026049688A
:108B8000416005E012487BDF05460DB12846DFE76E
:108B9000002617E006EB86000E4901EB800700BFB8
:108BA0004FF6FF70388000BF0B4800EB461078602E
:108BB0000A4A0021381DFEF75FFE05460DB103206D
:108BC000C6E7761C022EE5D30020C1E7C07B00205B
:108BD000206C0020987B0020587B0020898C0300AB
:108BE00008B50648C068009004488168684605F0EA
:108BF000BAFF0098FEF7ABF808BD0000DC7B002050
:108C000010B50446204600F0B7F808B1204610BD64
:108C10001420FCE710B50446204600F0ADF820B162
:108C20002146034805F061FF10BD0020FCE700006D
:108C3000EC7B002070B504460D461646204610F029
:108C40006DF808B9002070BD034951F82400324680
:108C5000294603F055F9F6E7F47B002010B50446E9
:108C6000204600F089F820B12146034805F03DFF79
:108C700010BD0020FCE70000F07B002008B506488E
:108C8000C068C043009004488168684605F06BFFE7
:108C90000098FEF75CF808BDDC7B002070B5044648
:108CA0000025204600F068F850B12146054805F03F
:108CB0001CFF06460EB1022000E00120054600BF61
:108CC000284670BDE87B002070B50446002520468C
:108CD00000F052F850B12146054805F006FF06465F
:108CE0000EB1022000E00120054600BF284670BDFD
:108CF000E47B002010B51821044805F0C6FE0446A8
:108D0000182C00D110BDE0B2FCE70000DC7B002095
:108D100070B505460C46204610F000F850B12846C4
:108D200000F02AF830B1044901EB8400294605F02F
:108D3000DCFE70BD0020FCE7F47B002070B505462A
:108D40000C46164620460FF0E9FF88B1284600F091
:108D500013F868B136B1074901EB8400294605F0E4
:108D6000D3FE05E0034901EB8400294605F067FEC8
:108D700070BD0000F47B002010B50446142C01DB0C
:108D8000002010BD2146024805F0AFFEF9E70000C3
:108D9000E07B002010B5044600BF0CB90E2010BDCA
:108DA00000BF00BF06480078012801D00820F6E780
:108DB00000BF0448016820460DF022FDEFE70000E7
:108DC000346C0020286C002070B504461449154A04
:108DD000891AC908032242EA014013A107F014FCD2
:108DE000002500BF0CB90E2070BD00BF0020144943
:108DF00008600120134908700020134908601348D7
:108E000004600749074A891AC908032242EA014057
:108E10000C490A780EA107F001FC2846E4E700009F
:108E200084BB03006CBB0300626C655F64625F64BB
:108E30006973636F766572795F696E6974000000AB
:108E4000306C0020346C00202C6C0020286C00203A
:108E5000626C655F64625F646973636F7665727983
:108E60005F696E69742C6D5F696E697469616C69A4
:108E70007A65643A2564000070B504460E4600BF6A
:108E800004B970BD00BF00BF06B9FAE700BF00BF5C
:108E90001D480078012800D0F3E700BF3546208840
:108EA000112815D0302804D0322807D0332814D107
:108EB00009E0211D28460AF02DFA0FE0211D284661
:108EC00009F070FB0AE0211D284609F0E7FE05E0E5
:108ED000211D284609F0F6FF00E000BF00BF95F80D
:108EE000C80278B1208830280CDB20884F2809DCA4
:108EF000A088B5F8CA12884204D1B5F8CA1228462B
:108F000002F05AF800BFBCE7346C002070B504468C
:108F10000D461F491F4A891AC908032242EA014027
:108F20001D4A1EA107F07AFB19491A4A891AC90875
:108F3000032242EA014018490A7821A107F06EFB9A
:108F400000BF0CB90E2070BD00BF00BF12480078F2
:108F5000012801D00820F6E700BF0D490D4A891A03
:108F6000C908032242EA01401F490A681FA107F00D
:108F700055FB1D48006808B90820E4E794F8C702CB
:108F800008B11120DFE72946204602F015F8DAE79C
:108F900084BB03006CBB0300346C002030322061C2
:108FA000646472206F66206D5F696E697469616CBC
:108FB000697A6564203D20307825303878000000DB
:108FC000626C655F64625F646973636F7665727912
:108FD0005F73746172742C6D5F696E697469616C22
:108FE000697A65643A256400306C00206D5F6E75A7
:108FF0006D5F6F665F68616E646C6572735F7265EA
:10900000673A2564000000002DE9FC4105460C4646
:10901000174620880930B84202D90C20BDE8FC81EF
:1090200068466DDF064600BF304600B1F6E700BF78
:109030000820218868542088401C20801B2021881B
:1090400068542088401C208020882844DDF80110C6
:109050000160BDF8051081802088801D20809DF86A
:109060000000400818B900202188685402E001205F
:10907000218868542088401C20800020CEE7000012
:1090800070B505460E462888102802D011282CD12C
:1090900015E01748006860B901F07CFC044600BF89
:1090A00034B11448006818B120461249096888474D
:1090B00000BF0F480068401C0D49086016E00C48CE
:1090C0000068401E0A4908600846006860B9FDF75C
:1090D0003BFF044600BF34B10648006818B1204683
:1090E00004490968884700BF00E000BF00BF70BDA9
:1090F00024600020206000202DE9F04104460F4646
:10910000A6883046FFF7CAFD0546012D03D020464C
:1091100000F0C6F820B1084801682046884708E0FA
:10912000022D02D020881D2803D104480168204662
:109130008847BDE8F08100005C6B0020586B002080
:1091400070B504460D462088102806D0112808D096
:1091500012280ED0502810D107E0204609F090FBCD
:109160000CE0204609F07CFE08E020460AF056FAA2
:1091700004E0204609F002FB00E000BF00BF70BD24
:109180002DE9F04104468846A5882088102804D09F
:10919000112817D01A2849D118E00DF0CBFA28462B
:1091A0000DF042F930B900BF22A2E3210420FDF7FF
:1091B00031F806E0E07B012803D029462C4805F071
:1091C000A3FC33E028460DF0D9FA2FE0207A0121E4
:1091D000B1EB101F01DA012000E000200646207AE2
:1091E0000221B1EB101F01DA012000E00020074648
:1091F0008EB129461E48001D05F086FC2FB1294678
:109200001B48083005F080FC0FE02946184808305C
:1092100005F015FC09E029461548001D05F00FFC76
:1092200029461348083005F00AFC00BF00BFBDE81E
:10923000F08100002E2E5C2E2E5C2E2E5C2E2E5CDD
:109240002E2E5C2E2E5C636F6D706F6E656E747368
:109250005C626C655C636F6D6D6F6E5C626C655FAC
:10926000636F6E6E5F73746174652E63000000003F
:10927000E87B002070B504460D4600BF0748007823
:1092800000B970BD00BF204603F076FC20460EF00A
:1092900001FC204603F05AF800BFF2E76C6C002096
:1092A00001460888262801D1012070470020FCE7EC
:1092B00070B5044620460FF047FC054605F0010056
:1092C00070BD000038B507F007FF044600BF254613
:1092D00035B100BF14A29C212846FCF79BFF00BFBC
:1092E00000BF002000906946012007F0EFFC044613
:1092F00000BF254635B100BF0BA2A3212846FCF7CD
:1093000089FF00BF00BF684607F0B0FD044600BFFC
:10931000254635B100BF04A2A7212846FCF77AFFF5
:1093200000BF00BF38BD00002E2E5C2E2E5C2E2EFE
:109330005C4C595F424C455C6C795F626C652E6396
:109340000000000010B5034600BF0BB90E2010BD91
:1093500000BF59802AB15488DC8010889880948896
:109360001C810020F3E7000070B586B004460E466D
:10937000204B0FCB01AD0FC500BF14B90E2006B0B6
:1093800070BD00BF00BF0EB90E20F8E700BF227805
:1093900019491A4BC91AC908032343EA014018A105
:1093A00007F03CF9214601A862DF054600BF2846C8
:1093B00000B1E4E700BF22780F49104BC91AC90871
:1093C000032343EA014016A107F028F920788DF81D
:1093D00016000120ADF814004FF6FF706080306871
:1093E000E0600020A0800021218105A8FFF7D2FCC9
:1093F000C5E700004095030074BB03006CBB03008D
:1094000030315F705F626C655F7475735F632D3EB2
:10941000757569645F747970653A256400000000B1
:1094200030325F705F626C655F7475735F632D3E91
:10943000757569645F747970653A25640000000091
:1094400070B586B005460E46344604B10DB906B077
:1094500070BD60884FF6FF71884204D06088A9888B
:10946000884200D0F3E72888112806D0392816D181
:109470002946204609F084FE12E0A88861888842C7
:109480000CD1E06850B102208DF804004FF6FF7057
:10949000608001A92046E268904700BF00E000BF5D
:1094A00000BF00BFD3E770B586B005460C46142157
:1094B00001A8FDF702F804F10E06207800283AD141
:1094C000A088012837D1A0792978884233D100209B
:1094D00022E000EBC00136F81110022902D0032966
:1094E00017D107E000EBC00106EB41010A89ADF896
:1094F00016200FE000EBC00106EB41010989ADF831
:10950000121000EBC00106EB41014A89ADF81420AE
:1095100000E000BF00BF401C217A8142D9D8E86832
:1095200048B16088ADF8060000208DF8040001A95C
:109530002846EA68904706B070BD000070B5044642
:10954000E38862880E490F4D491BC908032545EA87
:1095500001400D4907F06EF800BF0CB90E2070BD38
:1095600000BF60884FF6FF71884201D0E08808B9DB
:109570000820F4E7E1886088012200F005FEEEE7AC
:1095800074BB03006CBB0300909E030070B50446DF
:109590002078D8B922890F490F4BC91AC90803236B
:1095A00043EA01400DA107F039F8A28A094B0A4DA0
:1095B0005B1BDB08032545EA0340216906F0ACFF8D
:1095C000A28A2089216904F031FE00E000BF00BFBB
:1095D00070BD000024BC03006CBB030052656D6FBE
:1095E000746520307825782053656E64204461745A
:1095F000613A000070B58EB004460E463E4B0FCB6C
:1096000009AD0FC500BF14B90E200EB070BD00BF6C
:1096100000BF0EB90E20F8E700BF3068A0612146F8
:1096200009A862DF054600BF284600B1EDE700BF8C
:1096300020788DF836000120ADF83400A21C0DA969
:10964000A8DF054600BF284600B1DEE700BF2021A5
:1096500001A8FCF732FF0220ADF8040020788DF855
:109660000600F420ADF808000120ADF80A008DF8DE
:1096700010009DF8110020F0080008308DF811004E
:109680009DF8110020F00400001D8DF8110001204C
:109690008DF815008DF81600608804F10C0201A900
:1096A00000F022FE05460DB12846AEE7202101A8B4
:1096B000FCF703FF0320ADF8040020788DF80600C6
:1096C000F420ADF808000120ADF80A008DF8100074
:1096D0009DF8110020F0100010308DF811000120CD
:1096E0008DF815008DF816008DF817006088221D82
:1096F00001A900F0F9FD88E73095030070B5044634
:109700000D4605B104B970BD2E462088102804D03E
:10971000502807D057280FD109E02146304609F0DC
:1097200045F80AE02146304609F0FEFE05E02146F4
:10973000304609F05BFD00E000BF00BF00BFE2E77C
:1097400010B50146094B585C00BF4FF0A0442346BA
:1097500000BFD3F81045C44004F001040CB101204F
:1097600000E00020024682F0010010BDDC940300FE
:109770007CB500240DE00848055D0326002000901C
:109780003346024601460190284606F0FBFA00BF28
:10979000641C042CEFD37CBDDC94030010B504469C
:1097A00004F0010008B100F04BF804F0020008B129
:1097B000FFF7DEFF10BD000010B502460949885CC6
:1097C00000BF4FF0A0442146D1F804350124844065
:1097D0009C43C1F80845012484401C40C1F80C4555
:1097E00000BF10BDD894030010B504460249085DBF
:1097F000012106F0BEFB10BDD894030010B504464D
:109800000249085D002106F0B4FB10BDD8940300A6
:1098100010B50146094B585C00BF4FF0A0442346E9
:1098200000BFD3F80445C44004F001040CB101208A
:1098300000E00020024682F0010010BDD894030031
:109840007CB500240CE00948055D0020009003462B
:10985000012211460190284606F094FA00BF641CCC
:10986000042CF0D300F004F87CBD0000D894030071
:1098700010B5002403E02046FFF7B6FF641C042C5B
:10988000F9D310BD10B5002403E02046FFF7B6FF62
:10989000641C042CF9D310BD02464FF0FF300021A8
:1098A00006E0054B5B5C934201D1084602E0491C8F
:1098B0000429F6D300BF7047DC94030070B5054659
:1098C0000C4600260648056014B120460EF052FBF7
:1098D0000448006810B9FDF737FB0646304670BDF6
:1098E00020600020246000202DE9F04106460F464C
:1098F0004FF0000800243046FFF7CEFF0446042C4A
:109900003ED20FB3012F02D0022F38D130E004EB4A
:109910004400214911F8008004EB440008444078D9
:1099200050B11E4A4FF400411D480068FDF7F0FF9A
:1099300005460DB91948067004EB44001649084461
:109940008078184908551AE015480068FEF70AF8AB
:109950001448005D04EB44010F4A114489788842A1
:1099600005D104EB44001146084490F8028006E05B
:1099700004EB44000849084490F8018000BF00BF90
:10998000B8F1000F06D00848006818B140460649F3
:1099900009688847BDE8F081006F0020186000204A
:1099A000E8940300196000201460002010B50446FC
:1099B000042C03D22046FFF7C3FE10BD0020FCE7B5
:1099C0003EB504460E2C06D00F2C12D0102C3AD0E7
:1099D000112C4ED142E02849284A891AC90803228D
:1099E00042EA014026A106F00FFE01202849087036
:1099F00040E02149214A891AC908032242EA01406C
:109A000024A106F001FE02A9264800880AF0E2FE21
:109A10009DF80800C0F3C0009DF80810C1F3800154
:109A2000CDE900109DF80810C1F3400301F00102D8
:109A30001149124D491BC908032545EA01401AA1E5
:109A400006F01CFE16E00C490C4A891AC9080322CC
:109A500042EA014023A106F0D7FD0BE00649074A80
:109A6000891AC908032242EA014022A106F0CCFD6E
:109A700000E000BF00BF3EBD24BC03006CBB030080
:109A80004253505F4556454E545F4B45595F300039
:109A9000046000204253505F4556454E545F4B458D
:109AA000595F3100606B0020636F6E6E6563746593
:109AB000643A25642C20656E637279707465643A2B
:109AC00025642C206D69746D5F70726F74656374AA
:109AD00065643A25642C20626F6E6465643A25647F
:109AE000000000004253505F4556454E545F4B45C1
:109AF000595F32004253505F4556454E545F4B45C7
:109B0000595F330030B503460020042B23D2012ACD
:109B100007D1012903D103F10E04E4B200E00024CF
:109B2000224679B1012902D0022911D104E003EBC8
:109B300043040A4D2A550DE003EB4304074D2C4422
:109B4000627007E003EB4304044D2C44A27001E073
:109B5000072000BF00E0072030BD0000006F00209C
:109B60002DE9F04105460F4600241F4805601F48B7
:109B7000076005F0020000B3002606E0012211464E
:109B80003046FFF7BFFF0446761C042E01D2002C9E
:109B9000F4D034B940F2666204211548FDF7B2FCF6
:109BA000044614B9FDF798FC04462CB9114A00216B
:109BB0001148FDF761FE044600BF05F0010080B1C9
:109BC0000120FFF7EBFD2CB90C4A00210C48FDF7F2
:109BD00053FE04462CB90B4A01210B48FDF74CFEFD
:109BE00004462046BDE8F0810C600020146000208F
:109BF000EC940300A1A00200E894030089D40200C1
:109C0000E09403007F710200E49403002DE9F04723
:109C1000044600260025DA48007820B10020D84903
:109C2000087003F01DFC182C7ED2DFE804F00C163F
:109C3000174A7EB2F6F4F3F2F1F0EFEEEDECEBEA58
:109C4000E9E8E7E6E5E403F00BFCCE480068FDF741
:109C500089FE0646CC4804708DE100BF0020FFF766
:109C6000D7FD58B10020FFF7BFFD022C02D14FF401
:109C7000E16001E04FF47A60054609E00020FFF75B
:109C8000BDFD022C01D1C82001E04FF4C87005468B
:109C9000BD4804704FF40040A5FB00104FF4FA7368
:109CA000CF1840F100015A0000233846FCF7A8FB0A
:109CB000814600224946B3480068FDF729FE064662
:109CC00059E10020FFF7A4FD58B10020FFF78CFDFB
:109CD000032C02D14FF4487001E04FF47A6005463E
:109CE00009E00020FFF78AFD032C01D1C82001E024
:109CF0004FF4C8700546A44804704FF40040A5FB1B
:109D000000104FF4FA728F1840F100015200002346
:109D10003846FCF775FB81460022494699480068A1
:109D2000FDF7F6FD064626E124E10020FFF770FD71
:109D300058B10020FFF758FD042C02D14FF47A608F
:109D400001E04FF47A6005460AE00020FFF756FD77
:109D5000042C02D14FF4C87001E04FF4C8700546DE
:109D6000894804704FF40040A5FB00104FF4FA73CB
:109D7000CF1840F100015A0000233846FCF740FBA1
:109D80008146002249467F480068FDF7C1FD06462E
:109D9000F1E00020FFF73CFD50B10020FFF724FD6B
:109DA000052C01D1C82001E04FF47A60054609E096
:109DB0000020FFF723FD052C01D1C82001E04FF45E
:109DC000C8700546704804704FF40040A5FB0020A1
:109DD0004FF4FA73D71840F100015A0000233846B7
:109DE000FCF70EFB81460022494666480068FDF7F5
:109DF0008FFD0646BFE0B8E0B6E0AAE0A1E098E03B
:109E000092E05FE05DE05BE059E057E051E042E066
:109E100033E024E015E00EE0FFE70020FFF7CCFC84
:109E200059480470002240F6CD4156480068FDF7BD
:109E30006FFD06469FE00020FFF7E0FC52480470EB
:109E400099E001204E490870FFF7B6FC002240F669
:109E5000CD414C480068FDF75BFD06468BE00120D4
:109E600047490870FFF7A8FC00224FF4804145489D
:109E70000068FDF74DFD06467DE001204049087071
:109E8000FFF79AFC002240F6CD413E480068FDF7FE
:109E90003FFD06466FE0012039490870FFF78CFC52
:109EA00000224FF4804137480068FDF731FD064637
:109EB00061E0FFF7E7FC344804705CE000BF00BFDE
:109EC00000BF00BF31480068FDF74CFD0646C4F1F5
:109ED000110515B30EBB012D18D9A8B2C8214843EE
:109EE0004FF4004180FB01104FF4FA728F1840F1DB
:109EF0000001520000233846FCF782FA8146002216
:109F0000494622480068FDF703FD06460220FFF798
:109F100075FC01201E49087005E00220FFF764FC73
:109F200000201B49087026E003F09AFA16480470D6
:109F300021E003F095FA0020FFF760FC124804705E
:109F400019E003F08DFA0120FFF758FC0E48047069
:109F500011E003F085FA0020FFF750FC0120FFF725
:109F60004DFC0948047006E000BFFFF78BFC064873
:109F7000047000E000BF00BF3046BDE8F08700007D
:109F800009600020E094030008600020E4940300CE
:109F9000106000202DE9FC4704460D461646A71C1C
:109FA0004FF001080020019001A8FDF729FD294884
:109FB000006828602748006826494968411A2548F2
:109FC0008068401CA0EB010906E00121224804F052
:109FD000BFFD4FF0000801E04F45F6D800BFB8F1D3
:109FE000000F30D00021009176B1009921F00301DB
:109FF000491C0091009921F00401091D009100996C
:10A0000064F3891100910DE0009921F00301891C8E
:10A010000091009921F00401091D0091009964F359
:10A020009F5100910B4909680A4A92681140094AF8
:10A030000C3202EB8100009901600649096839443D
:10A040000C3A116000BF9DF80400FDF7DFFC4046AC
:10A05000BDE8FC872C8A0020489A002070B5044691
:10A060000D460A2D03D10D212046FFF7F7FFA16809
:10A07000481CA06020684554D4E90110884202D3EE
:10A08000204605F0CEFA70BD0448406803490968CF
:10A09000884201D1012070470020FCE72C8A002073
:10A0A00010B5044620780221FFF71EFC10BD000009
:10A0B000F8B5054614490320FFF752FD044600BFDA
:10A0C000264636B100BF11A2B6213046FCF7A2F8F1
:10A0D00000BF00BF69460020FFF7F0FB044600BF49
:10A0E000264636B100BF09A2B9213046FCF792F8E6
:10A0F00000BF00BF9DF80000022801D1012000E050
:10A1000000202870F8BD0000C19902002E2E5C2EA0
:10A110002E5C2E2E5C6D61696E2E63007CB504464C
:10A12000204602F06FFE054600236A46092109F029
:10A1300063FF052805D10122024801782046FEF779
:10A14000FDFD7CBD486C00207CB504460E46002019
:10A15000019042F6A620ADF8040001208DF806001B
:10A160000748006800906A4601A92046A0DF05461E
:10A170002DB90122034801782046FEF7DFFD7CBDA2
:10A1800054960300496C00207FB506460C461546E0
:10A190008DF80C5000208DF80D00064A07CA8DE896
:10A1A0000700ADF8024003A8029069463046A3DFDD
:10A1B00004B070BD50950300F0B589B005460E4659
:10A1C000144624216846FCF778F92746ADF81A6052
:10A1D0000221ADF81E1001A908910021ADF81C1054
:10A1E00001218DF81810F8B28DF80400390A8DF8A5
:10A1F0000510ADF8005002208DF8020068460EF000
:10A2000003FA0EF071FA002009B0F0BD014688791A
:10A21000012809D10879012806D1488842F602129E
:10A22000904201D1012070470020FCE74FF0FF3140
:10A23000054A42F82010082804DBFF23A0F108019A
:10A240005032535470470000848300200146024876
:10A2500050F8210070470000848300202DE9F04F62
:10A2600003460C464FF0FF390AB1002000E00820F9
:10A2700084460AB1082000E00C208046614624E0B4
:10A28000154850F82100401CF0B91D4608462746E5
:10A2900016464FFA80FBDFF840A00AF1300A0AF8B0
:10A2A00005B0DFF834A04AF820704EB94FFA85FBAC
:10A2B000A0F1080ADFF820E00EF1500E0EF80AB007
:10A2C00000BF4FFA81F902E0491C4145D8D300BFD5
:10A2D0004846BDE8F08F0000848300200146014815
:10A2E00040567047B483002070B590B006460C46C7
:10A2F0001546A07818B901208DF80E0002E0A0786C
:10A300008DF80E002088ADF80C0000200290607CD3
:10A3100002A90DF05FFBA07C0DF109010DF05AFBC5
:10A32000E07B08B1012000E000209DF80A1060F3F6
:10A33000C3018DF80A10207C08B1012000E0002044
:10A340009DF80A1060F304118DF80A10207B08B103
:10A35000012000E000209DF80A1060F300018DF854
:10A360000A10207D08B1022000E001209DF80A10AB
:10A3700060F342018DF80A101C2109A8FCF79DF832
:10A38000607BC0F3001018B9607BC0F34010F8B1D7
:10A3900000200090E07C0DF101010DF01BFB00BFDF
:10A3A0009DF8000020F00F00401C8DF800009DF883
:10A3B000000020F0F00010308DF8000000BF9DF884
:10A3C000020020F00600801C8DF80200CDF838D085
:10A3D000607B8DF82400A07B8DF82500142104A853
:10A3E000FCF76BF803A8049002A80590A088ADF8CC
:10A3F0001C00A06820B1E088ADF81800A0680890A3
:10A40000A069002849D000200190A0690088ADF81B
:10A410002C00A0694088ADF82E00A06940680A9021
:10A4200001A80D90A169087B01A90DF0D3FAA169DB
:10A43000487B0DF105010DF0CDFAA069807A08B1D5
:10A44000012000E000209DF8061060F3C3018DF8A4
:10A450000610A069C07A08B1012000E000209DF834
:10A46000061060F304118DF80610A069007A08B197
:10A47000012000E000209DF8061060F300018DF837
:10A480000610A069807B08B1022000E001209DF841
:10A49000061060F342018DF80610E06908B1E0692A
:10A4A0000C902B4604AA09A93046AADF10B070BD53
:10A4B000F8B504460E4694F8C60200EB8001C1EBE5
:10A4C000801004EB400594F8C502B8B194F8C52299
:10A4D000521ED1B294F8C62202EB8203C3EB821261
:10A4E00004EB420501EBC10305F10A0202EB430054
:10A4F0000289521C92B2ADF8002002E0E888ADF863
:10A5000000002889ADF80200694630469DDFF8BD9D
:10A510002DE9F04104460D464FF6FF763046844261
:10A520000AD14FF48071284604F0AFFA86B2B6F52E
:10A53000807F10D126460EE0FF2C0CDC21462846F9
:10A5400004F08CFA80F001070FB1204601E04FF6CD
:10A55000FF70064600BF3046BDE8F08170B5054685
:10A560000DB9094C01E0084C083409E0204602F01E
:10A5700070FF064606B904E028467168884700BFA8
:10A58000F4E700BF70BD00007883002010B50446DA
:10A590002CB90120064948700020FFF7DFFF012C8D
:10A5A00004D1012002498870FFF7D8FF10BD0000D8
:10A5B000708300202DE9F04104460F4615462968B6
:10A5C000481C2860795CDD200155005D10B1012830
:10A5D00018D10BE0042084F8EC0004F13C00C4F82E
:10A5E000D0000821D4200151012617E0052084F86D
:10A5F000EC0004F1BC00C4F8D0000121D4200151CA
:10A6000002260BE00749084A891AC908042242EACF
:10A61000014006A105F0F8FF082600BF00BF304644
:10A62000BDE8F08124BC03006CBB0300496E766179
:10A630006C696420436F6D6D616E64204944000055
:10A640002DE9F04782461F480068002836D01D4893
:10A65000006805680CF04AF907461B480468214663
:10A6600038460DF09FFDC61C1848007808B90CF05C
:10A670004FF9AE4201D2284600E03046044424F0AF
:10A680007F4420460CF02CF90CF030F98046394616
:10A6900040460DF087FD00F10309394620460DF0D4
:10A6A00081FD814509D90CF021F981460CF018F99A
:10A6B0002F2006F0CDFE0DF0C3FE01E00CF046F9B0
:10A6C000BDE8F087986D00209C6D0020AA6D0020E9
:10A6D00033B58BB00546002000900C9878B100246B
:10A6E0000BE021460CA804F000FA28B1009A501C97
:10A6F000009001A820F81240641C142CF1D32C22E5
:10A7000069462846FBF7C0FE0DB030BD01460888FB
:10A71000062808DB0888B0F5486F06DD08884FF684
:10A72000FF72904201D0072070474888062808DB56
:10A730004888B0F5486F06DD48884FF6FF729042B2
:10A7400001D00720F0E708884FF6FF72904208D04A
:10A750004888904205D008884A88904201DD072049
:10A76000E2E70020E0E72DE9F04107460D461446F8
:10A7700098462088801D404502D90C20BDE8F08114
:10A780003846FFF7C3FF064600BF304600B1F5E785
:10A7900000BF0520218868542088401C208012209A
:10A7A000218868542088401C2080228851193888CC
:10A7B0000EF0D0F921880844208022885119788829
:10A7C0000EF0C8F92188084420800020D6E7000058
:10A7D00010B5044600BF03A27C212046FBF71AFDFA
:10A7E00000BF10BD2E2E5C2E2E5C2E2E5C4C595FB1
:10A7F000424C455F5045524950484552414C5C6C73
:10A80000795F626C655F702E6300000030B587B0C1
:10A810001C216846FBF751FE0020009041F2883071
:10A82000019047F23050029003208DF80C004FF653
:10A83000FF70ADF80E0001208DF81000002005908B
:10A84000094806906846FEF77DF9044600BF254694
:10A8500035B100BF05A292212846FBF7DBFC00BF03
:10A8600000BF07B030BD0000D1A702002E2E5C2E25
:10A870002E5C2E2E5C4C595F424C455F5045524930
:10A8800050484552414C5C6C795F626C655F702E3C
:10A8900063000000F8B505460C46607A88B9207A56
:10A8A00010B91048476801E00E4887682A463946C3
:10A8B0006068FDF72DF8064616B130460CF052FDE3
:10A8C0000EE0002020720748406948B101208DF851
:10A8D0000000ADF80250034841696846884700BF50
:10A8E000F8BD0000C07B0020F0B587B004460D46DF
:10A8F00017461E4618220B4901A8FBF7C5FDADF807
:10A9000006408DF80C50ADF80E708DF810600022E6
:10A91000054801782046FEF711FA01A800F0DAFF99
:10A9200007B0F0BD5C970300316D002010B586B014
:10A930000446208809F03AF800BB2088FEF76AF93F
:10A9400030B92088012241F2060100F0A9FC15E08F
:10A95000208800220A490978FEF7F0F902208DF8D4
:10A9600000002088ADF8020000208DF808000021CA
:10A970008DF80910684600F0ADFF00BF06B010BDAD
:10A98000316D002070B504460D4629462046FCF77F
:10A99000E1F870BD10B5012200210846FFF7B2F8BA
:10A9A000044600BF1CB1072C01D0204610BD00BFDB
:10A9B000072202210120FFF7A5F8044600BF1CB1C1
:10A9C000072C01D02046F1E700BF0422022100201D
:10A9D000FFF798F8044600BF1CB1072C01D02046B1
:10A9E000E4E700BF0020E1E730B503460C4612B9AA
:10A9F0004FF6FF7100E011880846002110E00512B3
:10AA000045EA0025A8B25D5C6840C0F303156840C4
:10AA100080EA0035A8B205062D0D80EA4500491CE4
:10AA2000A142ECD330BD00002DE9FF4105460C46A4
:10AA300029492A4A891AC908042242EA01402B46B8
:10AA4000224627A105F0F6FD002002900390ADF804
:10AA50000840ADF80A40009001906A4602A92846D5
:10AA600090DF0646002E32D0304606F051FC0746F5
:10AA700019491A4A891AC908012242EA01403B468B
:10AA80002A46234905F0D6FDBDF8000010B9BDF8EF
:10AA9000020068B1BDF80230BDF800200E490F4F2A
:10AAA000C91BC908012747EA01401AA105F0C2FDE8
:10AAB000BDF8040058B1BDF804200749074BC91A76
:10AAC000C908012343EA0140224905F0A7FD3046A9
:10AAD00004B0BDE8F08100007CBB03006CBB030048
:10AAE0005570646174696E672064617461206C657F
:10AAF0006E67746820746F202575206F6E20636FF9
:10AB00006E6E656374696F6E20307825782E000054
:10AB10001C9F0300546865207265717565737465C8
:10AB2000642054582F5258207061636B6574206CF8
:10AB3000656E67746820697320746F6F206C6F6E28
:10AB4000672062792025752F2575206F63746574E1
:10AB5000732E0000689F030070B5044663881A4690
:10AB60000849094D491BC908042545EA014007A1C8
:10AB700005F060FD204603F019F9204603F0ECF9DA
:10AB800070BD000024BC03006CBB030063616C6CEF
:10AB900020746F20626C655F6C62735F6F6E5F64C0
:10ABA000625F646973635F65767420666F722069A3
:10ABB0006E7374616E636520256420616E64206C21
:10ABC000696E6B20307825782100000070B5084848
:10ABD000FEF7FAF8044600BF254635B100BF05A2CE
:10ABE00093212846FBF716FB00BF00BF70BD000095
:10ABF00059AB02002E2E5C2E2E5C2E2E5C4C595F23
:10AC0000424C455C6C795F626C652E63000000000D
:10AC10002DE9F04105460F460F4C0121204603F077
:10AC2000CEFF064600BF00BF00BF00BFBFF35F8F6F
:10AC300000BF00BF00BF0EB9012000E0002040B1FE
:10AC4000284602F0A7FE08B1BDE8F081024805F0F1
:10AC50003DFF00BFF8E70000406C002070B50C49D4
:10AC60000C4A891AC908032242EA01400AA105F0E8
:10AC7000CBFC0BF0B1F8044600BF254635B100BF50
:10AC800009A2C2212846FBF7C5FA00BF00BF70BD6C
:10AC900024BC03006CBB0300457261736520626FC6
:10ACA0006E647321000000002E2E5C2E2E5C2E2E72
:10ACB0005C4C595F424C455F5045524950484552A3
:10ACC000414C5C6C795F626C655F702E63000000C4
:10ACD00070B506460D460EB1012070BD287920B131
:10ACE000012809D0022813D10FE00220287128463C
:10ACF0000BF0F4FB04460DE0284601F035F804465D
:10AD00000A2C01D141F61D5404E041F61D5401E026
:10AD10000F2400BF00BF2046DFE72DE9F84F0446AF
:10AD20000F4690464FF0000B94F8C60200EB8001EE
:10AD3000C1EB801004EB400594F8C50200EBC001A4
:10AD400005F10A0000EB410A94F8C502401C29797C
:10AD5000884207D16B4600225146204602F025FB6F
:10AD6000834627E094F8C5621FE02879401EB04270
:10AD700002D14FF0000906E0701C00EBC00105F1A4
:10AD80000A0000EB41096B464A465146204602F054
:10AD90000CFB10B14FF0010B0AE0CA4694F8C50253
:10ADA000401C84F8C502701CC6B22879B042DCDCB5
:10ADB00000BF00BFBBF1000F04D10120387000209C
:10ADC000BDE8F88F00203870694640469EDFF7E7FF
:10ADD0002DE9F04F85B04FF0000B56E02E4800688B
:10ADE00000EBCB04227801210020CDE900010846C8
:10ADF0000099FBF736FB07468846284806C807EA4D
:10AE0000010008EA0201002358405940084338D0A5
:10AE10002248D0E90010B94320EA08001F4AC2E9DD
:10AE20000010207806F0FCFB8246227801210020E9
:10AE3000CDE9030108460399FBF713FB184B0CCB34
:10AE400000EA020601EA030522780020D1460290BA
:10AE500048460299FBF705FB46404D402E430FD173
:10AE60006078012800D100E0002080EA0A0080F02C
:10AE70000105606818B1E9B220786268904700BFA8
:10AE800000BF0BF1010000F0FF0B0648007883457E
:10AE9000A4DB05B0BDE8F08F786D0020906D002038
:10AEA000886D00207C6D002070B5044620793D2817
:10AEB00002D141F23D0001E04FF488500546208860
:10AEC0000022294602F018FC70BD00002DE9F04177
:10AED00004460D46164694F8C60200EB8001C1EB0D
:10AEE000801004EB400840460BF06AFC0746B7B3FD
:10AEF0001C480068062832D21B481A49096800EB32
:10AF0000C11046801849174A126801EBC211081D8A
:10AF100076224146FBF7B8FA3DB100201249114AAA
:10AF2000126801EBC211087006E002200E490D4ABA
:10AF3000126801EBC21108700B480A49096800EB5E
:10AF4000C110C76707480068401C064908600846EA
:10AF5000006806490968884201D109F0E5FABDE8B0
:10AF6000F08100002C6C00206C7C0020306C0020F4
:10AF70002DE9F041A0B004460D46164694F8C602ED
:10AF800000EB8001C1EB801004EB400840460BF061
:10AF900017FC074657B17C22064901A8FBF774FA53
:10AFA000ADF80660029501A8B84700BF20B0BDE823
:10AFB000F0810000889503002DE9F04104460D461C
:10AFC0004FF433712046FBF778FAA4F8CA520020F8
:10AFD0002349086084F8C90284F8C60284F8C502CF
:10AFE00094F8C60200EB8001C1EB801004EB40072F
:10AFF00094F8C6021B4901EB8000006838601A49CA
:10B000001A4A891AC908042242EA014018A105F027
:10B01000FBFA3A881449154BC91AC908042343EAB4
:10B0200001402B46164905F005FB3A46012128460A
:10B030009BDF0646112E0CD000BF304608B1BDE89C
:10B04000F08100BF012084F8C702002084F8C80204
:10B0500004E0012084F8C70284F8C8020020EEE76B
:10B060002C6C0020547C002084BB03006CBB0300CC
:10B07000646973636F766572795F7374617274006B
:10B0800010A1030010B50021034803F098FD044609
:10B0900084F3100010BD0000489A002010B504464B
:10B0A000204600F04EF810BD2DE9F04106460F464F
:10B0B00014464FF000080EE0F0B2C0F58075AC42C7
:10B0C00000D2254607EB08012A46304600F084F8F6
:10B0D000641B2E44A844002CEED1BDE8F08110B5CD
:10B0E0001E2004F002FF09E0052000F04FF800F0F8
:10B0F0000BF8044604F0010000B900E0F4E700BFDB
:10B100001E2004F015FF10BD70B5192004F010FFCB
:10B11000002512E0192004F0E8FE6006040E1B2052
:10B1200004F0EEFE10B144F0010401E004F0FE046E
:10B13000192004F0FDFE681CC5B2082DEADB20468C
:10B1400070BD2DE9F0410446B4F5001F01D2BDE801
:10B15000F081C4F30745C4F30726E7B200F031F8E5
:10B160001E2004F0C2FE202000F010F8284600F057
:10B170000DF8304600F00AF8384600F007F81E20B7
:10B1800004F0D6FEFFF7ABFF00BFE0E770B5054661
:10B19000002413E0192004F0A8FE05FA04F000F0E2
:10B1A000800018B91A2004F0A0FE02E01A2004F072
:10B1B000BFFE192004F0BCFE601CC4B2082CE9DB01
:10B1C00070BD10B51E2004F090FE0620FFF7DEFFD4
:10B1D0001E2004F0ADFE10BD2DE9F04704460D46DB
:10B1E0001746B4F5001F01D2BDE8F087C4F3074845
:10B1F000C4F3072904F0FF0AFFF7E3FF1E2004F061
:10B2000074FE0220FFF7C2FF4046FFF7BFFF48462B
:10B21000FFF7BCFF5046FFF7B9FF002604E015F822
:10B22000010BFFF7B3FF761CBE42F8D31E2004F0DB
:10B230007FFEFFF754FF00BFD6E700000146144829
:10B240000078144A127890421DD011480078401CB2
:10B250000F4A107010460078022801D100201070AB
:10B260000D480B4A127850F8220008600B4A086813
:10B2700012681044094A10601046006820F07F40B0
:10B280001060012070470020086000BFFAE700004E
:10B29000A86D0020A96D0020A06D00209C6D0020ED
:10B2A00070B506460C4615462B4622460021304610
:10B2B000FFF71AFB70BD00002DE9F84305460E4666
:10B2C0001746984669461048006803F080FB04461C
:10B2D00014B90420BDE8F8831C212046FBF7EDF8E3
:10B2E000012020712560C4F8088008480068B6FB7A
:10B2F000F0F0E060676169460348006803F091FB85
:10B300000BF008F80020E5E79C9A0300909A0300F0
:10B3100010B50446D4E90321501828DF10BD000001
:10B3200010B50446B4F5D07F07D0A4F2A11078B1CF
:10B33000012818D002282CD120E01749174A891A71
:10B34000C908032242EA0140154905F05DF921E0F0
:10B350001149124A891AC908032242EA01401149D7
:10B3600005F052F916E00C490C4A891AC908032263
:10B3700042EA01400C4905F047F90BE00649074A4B
:10B38000891AC908032242EA0140084905F03CF93C
:10B3900000E000BF00BF10BD24BC03006CBB030075
:10B3A0000C9D0300709C0300B49C0300249C0300CC
:10B3B00013480078062820D11148001D007800F0BD
:10B3C0000F00D0B90E480830007800F0F0003028A7
:10B3D00001D1012070470A480830007800F0F000E1
:10B3E000402801D10120F5E705480830007800F039
:10B3F000F000502801D10120ECE70020EAE700002E
:10B40000E00F00F013480078062820D11148001DF5
:10B41000007800F00F00D0B90E480830007800F036
:10B42000F000302801D1012070470A480830007828
:10B4300000F0F000402801D10120F5E70548083070
:10B44000007800F0F000502801D10120ECE7002046
:10B45000EAE70000E00F00F013480078062820D14A
:10B460001148001D007800F00F00D0B90E480830D8
:10B47000007800F0F000302801D1012070470A4820
:10B480000830007800F0F000402801D10120F5E7F5
:10B4900005480830007800F0F000502801D1012064
:10B4A000ECE70020EAE70000E00F00F00A4800782F
:10B4B00006280ED10848001D007800F00F0040B9A2
:10B4C00005480830007800F0F000302801D1012054
:10B4D00070470020FCE70000E00F00F0064800681D
:10B4E000062806D10448001D0068062801D1012065
:10B4F00070470020FCE7000030010010134800787E
:10B50000062820D11148001D007800F00F00D0B9A6
:10B510000E480830007800F0F000302801D10120FA
:10B5200070470A480830007800F0F000402801D148
:10B530000120F5E705480830007800F0F0005028B9
:10B5400001D10120ECE70020EAE70000E00F00F065
:10B550000A48007806280ED10848001D007800F03F
:10B560000F0040B905480830007800F0F00030289E
:10B5700001D1012070470020FCE70000E00F00F03F
:10B5800013480078062820D11148001D007800F0EB
:10B590000F00D0B90E480830007800F0F0003028D5
:10B5A00001D1012070470A480830007800F0F0000F
:10B5B000402801D10120F5E705480830007800F067
:10B5C000F000502801D10120ECE70020EAE700005C
:10B5D000E00F00F00A48007806280ED10848001D48
:10B5E000007800F00F0040B905480830007800F0FE
:10B5F000F000302801D1012070470020FCE7000056
:10B60000E00F00F00A48007806280ED10848001D17
:10B61000007800F00F0040B905480830007800F0CD
:10B62000F000302801D1012070470020FCE7000025
:10B63000E00F00F00A48007806280ED10848001DE7
:10B64000007800F00F0040B905480830007800F09D
:10B65000F000502801D1012070470020FCE70000D5
:10B66000E00F00F00278072A38D2DFE802F0370452
:10B670000712222B340000220A7030E001220A70E7
:10B6800003898B818388CB81C2688A6000230B7415
:10B6900025E002220A7003898B818388CB81C268EE
:10B6A0008A60827D062A01D1012300E000230B7409
:10B6B00015E003220A70C3888B810389CB81C2689D
:10B6C0008A600CE004220A70C3888B810023CB813E
:10B6D00000228A6003E005220A7000E000BF00BF7C
:10B6E0007047000070B50546002409E0064850F890
:10B6F000240020B1044850F8241028468847641CD0
:10B70000042CF3D370BD0000B485002030B587B0A1
:10B7100004460D462068806808B907B030BD18217E
:10B7200001A8FAF7CAFE0295A0680690207910B128
:10B73000012815D109E001208DF80400206903904B
:10B74000E0680490606905900BE002208DF8040029
:10B750000749E0680968484303906069059000E084
:10B7600000BF00BF2068816801A8884700BFD4E7F8
:10B77000909A0300F0B587B005460C461646002C9B
:10B780004BD0112C49D0082C47D0182101A8FAF72A
:10B7900094FEADF80650284601F034FBADF80800E1
:10B7A0000D2C1FD11E491F4A891AC908022242EADC
:10B7B00001402A461C4904F031FF03208DF80400A3
:10B7C0002EB1307800F0010008B1012000E0022025
:10B7D0008DF80C0000218DF8101041F20111ADF828
:10B7E0000E1016E0204605F093FD07460C490D4A61
:10B7F000891AC908012242EA01402B463A460B4900
:10B8000004F018FF07208DF80400039400218DF840
:10B81000101001A800F072F800BF07B0F0BD0000E2
:10B82000D4BB03006CBB03004CB103005CB203004B
:10B8300010B50446204600F061F810BD70B504460E
:10B84000608801F0DFFAA080002505E0044850F888
:10B850002510204688476D1C002DF7D070BD0000D4
:10B86000386C002070B50446A08801F0FBF96080B8
:10B87000002505E0044850F82510204688476D1C37
:10B88000002DF7D070BD00004C6C002070B505464F
:10B89000002405E0044850F8241028468847641C1A
:10B8A000022CF7D370BD00009896030070B50546D2
:10B8B000002405E0054850F8241028468847641CF9
:10B8C000034800788442F5DB70BD0000048200204C
:10B8D0007A6C002070B50446608801F093FAA0806D
:10B8E000002505E0044850F82510204688476D1CC7
:10B8F000002DF7D070BD00001097030070B505460D
:10B90000002405E0044850F8241028468847641CA9
:10B91000002CF7D070BD0000B4970300F0B50346CB
:10B9200000241FE0124E306806689E4203D9066864
:10B93000F61A06601AE006689B1B06683444002667
:10B9400006600B4E35680A4FC6693E60C66846B150
:10B950000E1926F07F464660C66886601668C66186
:10B96000156000BF024800680028DBD100BFF0BDB1
:10B97000986D002010B586B0044618216846FAF785
:10B980009CFDA08900F00AFAADF804002078062892
:10B9900067D2DFE800F066030405315000BF00BF46
:10B9A000A08900F000FA18B9E0890AF0B6FE10B3D9
:10B9B000E0890AF0AFFE8DF808002078032801D155
:10B9C000012100E000218DF80910A1680391606851
:10B9D00030B908208DF8000001218DF8101007E023
:10B9E00009208DF800006168049101218DF8141080
:10B9F000684608F04DFA35E0A08900F0D4F9C8B1E6
:10BA0000E089B8B9606838B90A208DF80000BDF83F
:10BA1000040008F07DFC07E00B208DF80000606852
:10BA2000029001218DF80C1001201249087068461F
:10BA300008F02EFA16E0606818B913208DF800009F
:10BA400007E014208DF800006068029001218DF855
:10BA50000C104FF6FF70ADF80400684608F018FAB5
:10BA600000E000BF00BF0348007808B108F09AFB6F
:10BA700006B010BD596C002038B505460E48007858
:10BA800008B9022038BD4FF6FF70854201D104206D
:10BA9000F8E768460AF020FB04460CB90820F1E7F5
:10BAA0000520207001202071E58068460AF024FB03
:10BAB0000AF024FC0020E5E7DC6D002038B50D48D5
:10BAC000007808B9022038BD68460AF005FB044634
:10BAD0000CB90820F7E70620207068460AF00CFB36
