:020000040002F8
:1060000060D90020DD630200E5630200E76302005F
:10601000E9630200EB630200ED6302000000000090
:10602000000000000000000000000000EF6302001C
:10603000F163020000000000F3630200F563020058
:10604000C56A0200F7630200E56D0200F763020013
:10605000F7630200F7630200C5650200F763020000
:10606000F7630200F7630200F7630200F7630200C0
:10607000F7630200F7630200F7630200F7630200B0
:10608000F7630200196B0200F7630200F763020076
:10609000D96B0200F7630200E16B0200F7630200B4
:1060A000F7630200F7630200F7630200F763020080
:1060B000F7630200F7630200000000000000000028
:1060C000F7630200F7630200F7630200F763020060
:1060D000F7630200F7630200F763020000000000AC
:1060E00000000000000000000000000000000000B0
:1060F00000000000000000000000000000000000A0
:10610000000000000000000000000000000000008F
:10611000000000000000000000000000000000007F
:10612000000000000000000000000000000000006F
:10613000000000000000000000000000000000005F
:10614000000000000000000000000000000000004F
:10615000000000000000000000000000000000003F
:10616000000000000000000000000000000000002F
:10617000000000000000000000000000000000001F
:10618000000000000000000000000000000000000F
:1061900000000000000000000000000000000000FF
:1061A00000000000000000000000000000000000EF
:1061B00000000000000000000000000000000000DF
:1061C00000000000000000000000000000000000CF
:1061D00000000000000000000000000000000000BF
:1061E00000000000000000000000000000000000AF
:1061F000000000000000000000000000000000009F
:10620000DFF80CD000F0A0F90048004785EC020050
:1062100060D9002000B583B002900091019244F251
:10622000010071466A4601F021FC03B000BD000088
:1062300030B450E8012F93B2C48923448489A34227
:1062400028BF1B1B0489A34202BFBFF32F8F00206E
:1062500007E0C3EA020340E80134002CE9D14FF023
:1062600001000A6030BC704750E8012FC2EA0242C8
:1062700040E801210029F7D1704730B450E8022FDF
:106280001FFAA2F3C488A34202BFBFF32F8F0020DE
:106290000DE0C48923448489A34228BF1B1BC2EAA2
:1062A000034340E80234002CE8D14FF001000A60BB
:1062B00030BC704750E8022FC2EA224240E8022177
:1062C0000029F7D17047034653E8022FD988B2EB73
:1062D000324F4FF0000017BF92B241EA014142EA4B
:1062E000014104E05A68B2EB324F08BF012043E895
:1062F0000212002AE8D1704730B4044654E8000F77
:106300000D4644E80053002BF8D1156030BC7047AF
:1063100030B4044654E8000F40EA010544E8005355
:10632000002BF7D1156030BC704730B4044654E8F8
:10633000000F00EA010544E80053002BF7D1156077
:1063400030BC704730B4044654E8000F80EA0105C1
:1063500044E80053002BF7D1156030BC704730B4CF
:10636000044654E8000F00EB010544E80053002BFD
:10637000F7D1156030BC704730B4044654E8000FC4
:10638000A0EB010544E80053002BF7D1156030BCA9
:10639000704770B404464FF0000054E8006F0D6879
:1063A000AE4207BF44E80023012044E800630E60CA
:1063B000002B1CBF0020F0E770BC704730B40446CF
:1063C00054E8000F88422CBF451A054644E80053A4
:1063D000002BF5D1156030BC70470000064880479F
:1063E00006480047FEE7FEE7FEE7FEE7FEE7FEE7BA
:1063F000FEE7FEE7FEE7FEE7F96B0200016202003E
:106400002DE9F05F0546002092469B4688460646E9
:10641000814640241BE0284641464746224600F07C
:1064200082F853465A46C01A914110D31146184675
:10643000224600F016F82D1A67EB01084F46224657
:106440000120002100F00DF817EB00094E41201E3D
:10645000A4F10104DFDC484631462A464346BDE844
:10646000F09F202A04DB203A00FA02F10020704756
:106470009140C2F1200320FA03F319439040704782
:1064800000487047FCB4030040EA01039B0703D0B7
:1064900009E008C9121F08C0042AFAD203E011F863
:1064A000013B00F8013B521EF9D27047D2B201E025
:1064B00000F8012B491EFBD270470022F6E710B509
:1064C00013460A4604461946FFF7F0FF204610BD62
:1064D000421C10F8011B0029FBD1801A704710B52F
:1064E000002200E0521C835C8C5CA34201D1002B93
:1064F000F8D1D8B2E1B2401A10BD30B50446002040
:10650000034600E05B1C934203D2E05CCD5C401B81
:10651000F8D030BD034611F8012B00F8012B002AFA
:10652000F9D118467047202A04DB203A21FA02F0FC
:106530000021704721FA02F3D040C2F120029140BD
:106540000843194670470000064C074D06E0E06816
:1065500040F0010394E8070098471034AC42F6D3AA
:10656000FFF752FE08D4030028D4030070B58C183E
:1065700010F8015B15F0070301D110F8013B2A1157
:1065800006D110F8012B03E010F8016B01F8016B44
:106590005B1EF9D12B0705D40023521E0DD401F840
:1065A000013BFAE710F8013BCB1A921C03E013F809
:1065B000015B01F8015B521EF9D5A142D8D300203E
:1065C00070BD00002DE9F04F89B000270020089031
:1065D0004FF4807007900126002412E007980AF01B
:1065E0005FFA40B100BF7B480068304018B107989F
:1065F0000AF048FA374376000798001D80B20790EA
:10660000641C082CEAD34FF4BE700AF049FA50B16A
:106610004FF4BE700AF036FA47F0004708AA01218D
:1066200000200AF015FAF8B200B3012600241BE09E
:1066300006EA0700B0B100BF674850F82400C0F375
:106640000420804600BF644850F82400C0F3014095
:106650008146204604F032F9054615B149464046C8
:10666000A84700BF7600641C082CE1D307F0004067
:1066700000287DD0002006900590002505E04FF011
:10668000FF3004A941F825006D1C002DF7D000BF94
:106690000020069000245FE05048005D03900398BE
:1066A00020F0C0094D480057401C002853D004A9D1
:1066B000484608F0F0FF00284DD003984FEA901AA2
:1066C000484604F043F9804604F0F8F80290029836
:1066D00010B9BAF1030F3DD1BAF1030F03D105A9E7
:1066E000484608F0E3FF00BF00BF4FF0A041084656
:1066F00000F5E06151F82910C1F3014800BF08A975
:10670000484608F0C8FF8346BBF1000F02D0B8F13D
:10671000020F05D0BBF1000F1BD1B8F1030F18D148
:10672000BAF1030F0FD1B8F1020F01D1032000E03D
:1067300002200190484601990AF0EEF80698401CA4
:10674000C0B2069000BF029818B151464846029A5E
:10675000904700BF00BF641C042C9DD3069888B3EB
:106760004FF0010803AA012100200AF071F900E0AE
:106770002DE000250BE003A850F8250008A951F8EA
:106780002510884202D04FF0000802E06D1C002D59
:10679000F1D000BFB8F1000F02D00020069010E049
:1067A00000250CE003A850F8250008A941F82500B1
:1067B00005A850F8250004A941F825006D1C002DFE
:1067C000F0D000BF069800287FF462AF00BF09B088
:1067D000BDE8F08F04630040106500401CA000205D
:1067E0002DE9F04107460C4615461E462A2000F0CA
:1067F0000AF9384600F0F8F8284600F0F5F82B20A2
:1068000000F001F9204600F0EFF8304600F0ECF817
:106810002C2000F0F8F8BDE8F08110B50D200AF04A
:106820004BF80E200AF048F80B200AF045F80C202F
:106830000AF042F80F200AF03FF80D200AF0C9F8DC
:106840000E200AF0C6F80B200AF0C3F80C200AF05C
:10685000C0F810BD10B5FFF7E0FF0F200AF080F878
:106860000E200AF07DF8642009F004FB0E200AF0E7
:10687000B0F8642009F0FEFA0F200AF0AAF8782098
:1068800009F0F8FA112000F0BEF8782009F0F2FAC9
:10689000362000F0B8F8002000F0AFF83A2000F001
:1068A000B2F8052000F0A9F8B22000F0ACF80C20F6
:1068B00000F0A3F80C2000F0A0F8002000F09DF8F4
:1068C000332000F09AF8332000F097F8B72000F05A
:1068D0009AF8212000F091F8BB2000F094F83F20B6
:1068E00000F08BF8C22000F08EF8012000F085F84F
:1068F000C32000F088F8192000F07FF8C42000F0D1
:1069000082F8202000F079F8C62000F07CF80F20F3
:1069100000F073F8D02000F076F8A42000F06DF8B5
:10692000A12000F06AF8E02000F06DF8702000F07F
:1069300064F8042000F061F8082000F05EF80920F7
:1069400000F05BF8092000F058F8052000F055F839
:106950002A2000F052F8332000F04FF8412000F0D8
:106960004CF8072000F049F8132000F046F81320F7
:1069700000F043F8292000F040F82F2000F03DF807
:10698000E12000F040F8702000F037F8032000F01C
:1069900034F8092000F031F80A2000F02EF8092020
:1069A00000F02BF8062000F028F82B2000F025F846
:1069B000342000F022F8412000F01FF8072000F0FA
:1069C0001CF8122000F019F8142000F016F8282006
:1069D00000F013F82E2000F010F8212000F013F83A
:1069E000292000F010F810BD10B50446201200F068
:1069F00016F8E0B200F013F810BD10B504462046BA
:106A000000F00DF810BD10B504460D2009F0A8FFE8
:106A1000204600F004F80D2009F0DBFF10BD70B532
:106A20000446002513E00C2009F09AFF04F08000D2
:106A300018B10B2009F0CDFF02E00B2009F090FF08
:106A40000C2009F0C6FF6006040E681CC5B2082DB4
:106A5000E9DB70BD00F01F0201219140024A4309A9
:106A600042F823107047000080E200E000F01F02AF
:106A7000012191404209920002F1E022C2F8001186
:106A80007047000000F01F0201219140024A4309B3
:106A900042F823107047000000E200E010B5002823
:106AA00007DA4A07140E054A00F00F031B1FD454DF
:106AB00003E04A07130E024A135410BD18ED00E01C
:106AC00000E400E010B54FF4807009F0B7F980B130
:106AD0004FF4807009F0BBF9012009F0C1F90D48AD
:106AE000407930B901200B494871084601680020FF
:106AF00088474FF4827009F0A1F950B14FF48270C9
:106B000009F0A5F9022009F0ABF90248016801205B
:106B1000884710BD986D002010B500200949086015
:106B200000210948C0F84411C0F84811C0F84C11C0
:106B300000200549C1F8000102493C39086012F003
:106B4000C9FB10BD401101400010014010B500F01C
:106B500051F910BD2DE9F047074688461646C24652
:106B600007EB47011B4800EBC109D9F8140020B11D
:106B7000012811D0022826D11EE0484600F072F903
:106B80000546B54201D2002405E03446324651465E
:106B9000484600F0AEF918E0484600F063F90546B3
:106BA000B54201D2284600E030460446224651460E
:106BB000484600F09EF908E032465146484600F04B
:106BC0005FF9044601E0002400BF00BF2046BDE895
:106BD000F0870000F0B6002010B512F085FA10BD65
:106BE00010B50AF0F1FF10BD014802490860704776
:106BF0000090D003A46E002010B505F0CDF828B1A8
:106C00006B480088C0F304206A49086005F018F951
:106C100010B169486949486705F03AF930B16448EC
:106C2000E0380068C0F342306549086005F05AF961
:106C300028B16448006820F080706249086005F05F
:106C400069F948B10020604908604FF08041C1F8FF
:106C500010015B49091F086005F086F918B103208F
:106C600057496431086005F097F968B10520574924
:106C700008600120554978310860002053490831E7
:106C800008603F20091F086005F09EF9002855D0D4
:106C90004748E03000684E4908604548E4300068E5
:106CA000091D08604248E8300068091D0860404836
:106CB000EC300068091D08603D48F0300068091D8F
:106CC00008603B48F4300068091D08603848F83017
:106CD00000683F49203108603548FC300068091DD4
:106CE00008603C480068091D08603A48001D0068BB
:106CF000091D0860374808300068091D08603548DC
:106D00000C300068091D08603248103000683049B6
:106D1000403108602F4814300068091D08602D4874
:106D200018300068091D08602A481C300068091DD9
:106D30000860284820300068091D086005F002F846
:106D400030B11B48CC38006800F04F002249086081
:106D500005F04CF840B12148006800F0010018B17E
:106D60006FF001001D49086005F082F828B11C4849
:106D7000006840F480601A4908601248743800685E
:106D800040F470000F497439086000BF00BF00BFB5
:106D9000BFF34F8F00BF00BF00BF00BF00BF00BFE9
:106DA000BFF36F8F00BF00BF00BFFFF71DFF10BD17
:106DB00024030010403501400DF0ADBA00C007407B
:106DC0003C050040FCED00E00C0100401056004086
:106DD00020C5004024040010E40E004000040040E0
:106DE0003C17004010B502490868804710BD0000FC
:106DF000A06D002010B5124C02202061606111A02E
:106E0000A0611349E1614FF4007121620021A16288
:106E10006162E1620BA0A0640E49E164102121656A
:106E20000021A1656165E1650BA1E01DFFF772FB23
:106E30000AA12046FFF76EFB2020A07110BD0000C4
:106E4000D8B600205465726D696E616C0000000058
:106E500050B7002050B900205254540053454747C2
:106E60004552000010B501460A69CB689A4204D821
:106E70008C68641EE41AA01801E0D41A601E10BDCC
:106E80002DE9F0470446894617464FF0000AE568A9
:106E900000BFD4F81080A84503D9A8EB0500461E12
:106EA00004E0A5EB0800401CA1680E1AA068401B76
:106EB000B04201D9304601E0A068401B0646BE4200
:106EC00001D2304600E0384606466168481932462D
:106ED0004946FFF7D9FAB244B144BF1B3544A06814
:106EE000A84200D10025E560002FD2D15046BDE870
:106EF000F0872DE9F047044689461546E668A06804
:106F0000871BAF4208D9616888192A464946FFF7AE
:106F1000BBFA7019E06010E0B84661688819424613
:106F20004946FFF7B1FAA5EB070809EB070142460E
:106F30006068FFF7A9FAC4F80C80BDE8F08700008C
:106F4000014A024900F022B9CFC80200046E0020B5
:106F500002E008C8121F08C1002AFAD17047704722
:106F6000002001E001C1121F002AFBD17047000080
:106F70000146202908DA012088400A4A104008B159
:106F8000012070470020FCE7402909DAA1F1200028
:106F9000012202FA00F008B10120F2E70020F0E738
:106FA0000120EEE7FC06FFBD00BFEFF310810846AD
:106FB00072B67047F8B505460E46002E24D16946D4
:106FC00028460EF0B1F9044643F202018C420AD081
:106FD00000BF274637B100BF3F4A8D213846FFF733
:106FE00019F900BF00BF9DF80000C0F3400050B188
:106FF0003A493B4A891AC908042242EA014039A1A8
:107000000AF038F8F8BD00BF002128460EF0CCF990
:107010000446002C5ED0112C5CD00D2C21D12F49C0
:107020002F4A891AC908022242EA01402A463749F2
:107030000AF02AF81321284676DF0446002C49D0AE
:1070400020460AF09BFE07462449254A891AC908AA
:10705000022242EA01402B463A462DA10AF020F8CE
:1070600038E00B2C0BD11D491D4A891AC908022290
:1070700042EA01402A4634490AF006F82AE043F27F
:10708000020084420BD11549154A891AC908022207
:1070900042EA01402A462D4909F0F6FF1AE020464F
:1070A0000AF06CFE07460D490D4A891AC9080122EB
:1070B00042EA01402B463A4625A109F0F1FF00BF04
:1070C000274637B100BF044ABC213846FFF7A2F873
:1070D00000BF00BF00BF95E798C4030090D4030031
:1070E00038D40300416C726561647920656E637207
:1070F00079707465642C20736B697070696E672099
:1071000073656375726974792E000000D8C003003E
:1071100073645F626C655F6761705F646973636FFE
:107120006E6E65637428292072657475726E65646D
:10713000202573206F6E20636F6E6E5F68616E64D2
:107140006C652025642E000098C103004CC103002B
:10715000417373657274696E672E20706D5F636F23
:107160006E6E5F736563757265282920726574752C
:10717000726E6564202573206F6E20636F6E6E5F84
:1071800068616E646C652025642E00002DE9F04175
:1071900016460F460446002503E03946B047641CF6
:1071A0006D1C20780028F8D12846BDE8F08131B563
:1071B0000025002406E02146684608F074F900B175
:1071C0006D1C641C142CF6D3284638BD10B502463D
:1071D00001B910BD00230B614B6113680BB911603D
:1071E000F7E7106805E043684C68A34200D903E064
:1071F00040694369002BF6D100BF43684C68A34245
:107200000CD903690B61486103690BB103695961CA
:1072100001611368834203D1116001E0416108619B
:1072200000BFD6E770B505460C4605B10CB9002085
:1072300070BD287840082178B0EB510F01D00020B4
:10724000F6E70622611C681CFFF757F908B9012010
:10725000EEE70020ECE7014601F0030008B9012049
:1072600070470020FCE7024650680068401E084056
:1072700008B9012070470020FCE70246002104E025
:10728000505C08B101207047491C0629F8D3002042
:10729000F9E710B50346D868884206D88818401E1A
:1072A0001C69A04201D8012010BD0020FCE70000AD
:1072B00010B504466CB10848C068A04209D8064819
:1072C0000069A04205D3204606F06BFD08B10120FD
:1072D00010BD0020FCE70000A86E002070B5044639
:1072E0000D4604F24B20FFF7C8FF0646012D06D0DD
:1072F000022D0DD0032D11D0042D19D113E0A0794A
:1073000028B194F8240010B90EB1012070BD00BF5F
:10731000E07910B10EB10220F8E700BF207A08B181
:107320000320F3E700BF607A08B10420EEE700BF56
:107330000020EBE70146481C052290FBF2F302FB1C
:107340001300C0B270472DE9F04704460D462F46A2
:1073500095F82080B4F81C9000260BE007EB46124D
:107360004946A06901F098FB10B10120BDE8F08703
:10737000701CC6B24645F1DB0020F7E770B5054644
:10738000012D02D103F0A2FF19E001210C48007881
:1073900073DF044600BF264636B100BF09A2D921DB
:1073A0003046FEF737FF00BF00BF1049104A891A68
:1073B000C908032242EA01400EA109F05BFE70BD3C
:1073C000046C00202E2E5C2E2E5C2E2E5C4C595F01
:1073D000424C455F5045524950484552414C5C6CC7
:1073E000795F626C655F702E63000000F0D403006B
:1073F00038D4030053746172742041647600000035
:1074000010B501220221002002F0B4FE044600BFA4
:107410001CB1072C01D0204610BD00BF072202215D
:10742000012002F0A7FE044600BF1CB1072C01D0CA
:107430002046F1E700BF0A220021084602F09AFE2A
:10744000044600BF1CB1072C01D02046E4E700BF72
:107450000020E1E730B5A5B0354800680090354818
:1074600000788DF802003C2116A8FFF726F80220CC
:107470008DF8580001208DF85A0006208DF85B0029
:107480003C2107A8FFF719F80120ADF82C00CDF832
:1074900030D02948021D016816A801F047FA0446B9
:1074A00000BF25463DB100BF24A240F2211128466D
:1074B000FEF7B0FE00BF00BF1F4800F10C0281685C
:1074C00007A801F033FA044600BF25463DB100BFCE
:1074D0001AA24FF492712846FEF79CFE00BF00BF2F
:1074E000182101A8FEF7E9FF002002908DF818008E
:1074F0004FF49670039001208DF804000020ADF841
:10750000100001208DF8190001AA0B49154872DFFF
:10751000044600BF25463DB100BF08A240F231112C
:107520002846FEF777FE00BF00BF25B030BD000043
:1075300010AE0300E86B0020086C00202E2E5C2E9D
:107540002E5C2E2E5C4C595F424C455F5045524993
:1075500050484552414C5C6C795F626C655F702E9F
:1075600063000000046C002070B501210C48007815
:1075700073DF044600BF254635B100BF09A29F2135
:107580002846FEF747FE00BF00BF1049104A891A7F
:10759000C908032242EA01400EA109F06BFD70BD4B
:1075A000046C00202E2E5C2E2E5C2E2E5C4C595F1F
:1075B000424C455F5045524950484552414C5C6CE5
:1075C000795F626C655F702E63000000F0D4030089
:1075D00038D4030053746172742041647600000053
:1075E00070B58CB004460D461646002005E0C0F18B
:1075F0000F01615C0DF80010401C1028F7D30D211D
:1076000004A8FEF75AFF002005E02A5CC0F10F0332
:1076100004A9CA54401C0328F7D3684646DF00205B
:1076200005E0C0F10F0208A9895C3154401C032811
:10763000F7D30CB070BD10B50446022002F0F4FB85
:1076400010BD0146D820405808B9012070470020DD
:10765000FCE7000010B5044602480178204601F01E
:107660007DFE10BD686D002070B5044620780728A7
:1076700077D2DFE800F004613476426C720000BF1C
:1076800039493A4A891AC908042242EA014038A114
:1076900009F0F0FC61880A4601EB420303EBC102EA
:1076A000424B03EB421004F1400208F04BF8054650
:1076B00000BF2E463EB100BF3DA24FF4EA713046F6
:1076C000FEF7A8FD00BF00BF618801EB410202EB9D
:1076D000C101364A02EB411000F034FD42E06088FF
:1076E000414901EBC000D4E9011206C061883E4A5D
:1076F00002EBC10007F01AFD34E0608800EB4000A7
:107700003A4901EB8000D4E9052321690EC0618864
:1077100001EB4101354A02EB810007F0A5FC6069ED
:1077200048B9608800EB4000314901EB8001D4E9A1
:10773000052320690DC115E00B490C4A891AC908B7
:10774000042242EA01402BA109F094FC0AE004F172
:10775000100000F0E5F805E003E0A08904F0AAFAC3
:1077600000E000BF00BF70BDF0D4030038D40300B8
:107770004170706C65204E6F7469666963617469ED
:107780006F6E2043656E746572205365727669630F
:107790006520646973636F7665726564206F6E201F
:1077A000746865207365727665722E00746F0020B0
:1077B0002E2E5C2E2E5C2E2E5C4C595F424C455F6B
:1077C00053455256494345535C6C795F626C655F23
:1077D000616E63735F635C6C795F626C655F616E41
:1077E00063735F632E630000F4740020047500204F
:1077F0001C7500204170706C65204E6F746966695D
:10780000636174696F6E2043656E746572205365A1
:107810007276696365206E6F7420646973636F7636
:1078200065726564206F6E2074686520736572767A
:1078300065722E00F8B504460E46154600200090ED
:107840005BE0DC20005D092852D2DFE800F0050D86
:10785000151D252D353D45006A463146204603F06D
:10786000E1F9DC21085547E06A463146204607F039
:1078700057FDDC2108553FE06A463146204600F0BE
:107880004FFADC21085537E06A463146204600F0C1
:10789000E9FDDC2108552FE06A463146204600F01C
:1078A0006BFEDC21085527E06A463146204600F091
:1078B0006DFEDC2108551FE06A463146204600F087
:1078C00057FDDC21085517E06A463146204600F096
:1078D000B3FEDC2108550FE00A490B4A891AC90892
:1078E000042242EA014009A109F0C4FB009503E02B
:1078F0000821DC20015500BF00BF0098A842A0D39A
:10790000F8BD0000F0D4030038D403005061727356
:10791000652073746174653A20446F6E65200000C1
:1079200070B50446208878B1104DD4E9011355F89C
:1079300021200F490F4D491BC908032545EA014085
:107940000DA109F0ADFB0FE0208868B9074B616815
:1079500053F821200649074BC91AC908032343EAF3
:10796000014008A109F090FB70BD0000C46B00202D
:10797000F0D4030038D4030025733A2025730D0A90
:107980000000000025733A20284E2F41290D0A00DF
:1079900010B5002407E00749096811F834000121F7
:1079A0000AF0A4FA641C044800788442F3D300204F
:1079B00010BD0000A86D0020AC6D00202DE9F8433B
:1079C00006460D461746052F02D20720BDE8F8836C
:1079D0000AF0BCFB38B90AF063FB044600BF20463E
:1079E00000B1F3E700BF1848066018480570184852
:1079F00007600021174A116051600020164A10608C
:107A0000506015E006EBC50814480068009098F82F
:107A100002008DF8010098F80000114A69460AF04A
:107A2000BBFA044600BF204600B1CFE700BF00BF4D
:107A3000281EA5F10101CDB2E4D10A4A00210A486D
:107A400000F088F9C2E70000A86D0020AC6D0020AE
:107A5000B06D0020B86D0020C06D002064B103003F
:107A600041D1020041B4020060B103002DE9FE43A0
:107A700007460E46144672B600BF09F011FC00BF5F
:107A800000BF09F005F90028FBD100BF00BF012F9E
:107A90000CD06FF48050384498B1B0F5405F2CD0D2
:107AA0006FF440510844002847D115E03149324A6B
:107AB000891AC908012242EA014030A109F0DAFA24
:107AC00047E02C492C4A891AC908012242EA0140A0
:107AD00032A109F0CFFA3CE025462B882549DFF892
:107AE00098C0A1EB0C01C9084FF0010C4CEA014011
:107AF00033A16A6809F0D4FA2BE02546A8680AF099
:107B00003DF98046D5E900108DE8430019491A4B2C
:107B1000C91AC908012343EA014043462FA1AA68B4
:107B200009F0F8FA1349144A891AC908012242EAED
:107B3000014034A109F09EFA0BE00E490E4A891A61
:107B4000C908012242EA0140324633A109F09CFAF9
:107B500000BF00BF00BF3648006800F0010000B160
:107B600000BE00BF22463146384600F063F8BDE84B
:107B7000FE830000F0D4030038D40300534F465472
:107B80004445564943453A20415353455254494F81
:107B90004E204641494C454400000000534F465496
:107BA0004445564943453A20494E56414C494420A4
:107BB0004D454D4F5259204143434553530000001A
:107BC000415353455254494F4E204641494C454438
:107BD0002061742025733A25750000004552524FEC
:107BE00052202575205B25735D2061742025733A32
:107BF00025750D0A50432061743A203078253038BD
:107C000078000000456E64206F66206572726F72A6
:107C1000207265706F727400554E4B4E4F574E2058
:107C20004641554C54206174203078253038580036
:107C3000F0ED00E018B5012300939DF800301E4BD5
:107C4000186059609A606FF48043034463B1012B5C
:107C500019D1194BDA60DB681B88174CA3612346E6
:107C6000DB685B68E3610EE0134B1A611B699B687C
:107C7000114C636123461B691B68A36123461B6982
:107C80005B68E36100BF00BF0B4B1B680A4B5B687E
:107C9000094B9B68084BDB68074B1B69064B5B690C
:107CA000054B9B69044BDB6972B600BF9DF8003041
:107CB000002BFBD162B618BD98A0002070B5044619
:107CC0000D46204604F002FD28B12946204604F066
:107CD000F1FC002070BD0520FCE7034609B90E2029
:107CE000704712B1501E104008B10920F8E7196022
:107CF000501E988000209860D86000BFF0E770B5F3
:107D000004460D46204604F0E1FCA188884205D8CF
:107D10002946204604F0EDFC002070BD0420FCE75D
:107D200030B503461468601C10600C5DE820C5582F
:107D300003F586704455E820C45803F58670005D4D
:107D400030B1E820C058401CE824E050022030BD8B
:107D50000320FCE710B503460C4600BF0B488078B3
:107D600008B9082010BD00BF0AB90720FAE70BB90F
:107D70000720F7E71868007C08B10820F2E71968C7
:107D8000002008744C744A6100BFEBE7B8A00020E3
:107D900010B50FF073FB00200F49087048700B20DE
:107DA000887000200D4908600D4908700D49087061
:107DB0001420FEF74FFE06211420FEF76FFE14205C
:107DC000FEF754FE00200FF02FFB0FF027FB0649B3
:107DD0000860002010BD0000B8A00020C86D002081
:107DE000D86D0020D96D0020CC6D00202DE9F04128
:107DF00004460E461746254600BF1048807810B945
:107E00000820BDE8F08100BF0CB90820F9E7052E75
:107E100001D20720F5E7686908B90820F1E7687C16
:107E2000012801D1304600E0002080463B46424612
:107E30003146284611F0FEF9E3E70000B8A0002023
:107E400070B50446254600BF0848807808B9082068
:107E500070BD00BF0CB1686908B90820F8E70020C0
:107E600028740221284611F014FAF1E7B8A0002086
:107E70002DE9F04104461048077821460F48FFF7E6
:107E80001DFF8046A7B100200B49087001220C4954
:107E90000C4808F085F8054600BF2E4636B100BFF5
:107EA00009A2CE213046FEF7B5F900BF00BF00BFE2
:107EB0004046BDE8F0810000F66D0020C4A100201E
:107EC000F56D0020DC6D00202E2E5C2E2E5C2E2EFB
:107ED0005C2E2E5C2E2E5C2E2E5C636F6D706F6E92
:107EE000656E74735C6C69627261726965735C75EE
:107EF0006172745C6170705F756172745F666966EF
:107F00006F2E63002DE9F04188B004460E461746F7
:107F100098462B4807601EB9072008B0BDE8F081DD
:107F2000B08882B227483168FFF7D7FE054600BF08
:107F3000284600B1F1E700BFB08982B22248B1689B
:107F4000FFF7CBFE054600BF284600B1E5E700BFBE
:107F500020221E496846FEF797FA60690690207C49
:107F600008B1012000E000208DF814008DF81C807D
:107F7000607C08B10E2000E000208DF81500E0685C
:107F80000290A06803902068019060680090104AF9
:107F90006946104807F0BEFF054600BF284600B1FD
:107FA000BBE700BF00200C4908702068401C28B1C6
:107FB00001220A49074807F0F3FFAEE70020ACE7CB
:107FC000F06D0020C4A10020D4A1002078B10300EE
:107FD000C5970300DC6D0020F66D0020F56D0020D4
:107FE0002DE9F041054629461448FFF788FE06466C
:107FF00006BB134C002720781249085C20B1201DD5
:108000000AF0A4FB074608E020780E49085C20B976
:1080100004F10C000AF04EFA074600BF57B90A49AE
:108020000648FFF74BFE28B901220749044807F02C
:10803000D9FF06463046BDE8F0810000D4A10020FB
:10804000DC6D0020946D0020F46D002010B5044616
:1080500020460FF057FC10BD70B5044625460E486B
:108060008068B0B1ADB9FEF79FFF06460A480068C8
:108070000A490860084840684FF0E021C1F804014F
:108080000020054988601EB900BF62B600BF00BF6E
:1080900000BF00BF70BD0000E4A1002000E100E0CF
:1080A000F8B505460C4617462088001DB84201D990
:1080B0000C20F8BD684679DF064600BF304600B1A7
:1080C000F7E700BF0320218868542088401C2080E7
:1080D0001920218868542088401C2080208841195C
:1080E000BDF8000012F0B0F821880844208000207C
:1080F000DFE7000010B5044600BF04A24FF4E071B2
:108100002046FEF787F800BF10BD00002E2E5C2E23
:108110002E5C2E2E5C4C595F424C455F53455256A7
:10812000494345535C6C795F626C655F616E637354
:108130005F635C6C795F626C655F616E63735F63E4
:108140002E6300002DE9F04781462449244A891A0C
:10815000C908032242EA014022A108F08BFF6425EE
:1081600005B90EE000BF4FF47A7606B905E0284F56
:108170004FEA86184046B84700BF681E051EF2D178
:1081800000BF484600F0AAFE044600BF25463DB1A8
:1081900000BF20A24FF49B712846FEF73BF800BFBA
:1081A00000BF484600F0ACFD044600BF25463DB187
:1081B00000BF18A240F239112846FEF72BF800BF85
:1081C00000BF0649064A891AC908042242EA01404A
:1081D0001EA108F04FFFBDE8F0870000F0D40300B7
:1081E00038D403002D2D2D2D2D2D2D2D2D2D2D2D64
:1081F0002D2D2D2D2D6170706C655F6E6F7469660D
:1082000069636174696F6E5F73657475700D0A00E0
:10821000B1AD03002E2E5C2E2E5C2E2E5C4C595FD1
:10822000424C455F53455256494345535C6C795F18
:10823000626C655F616E63735F635C6C795F626CD7
:10824000655F616E63735F632E6300004E6F7469D8
:108250006669636174696F6E7320456E61626C65F7
:10826000642E0D0A0000000070B505460C4620681B
:10827000401C28B1206808F0B7FB206808F034FBE8
:108280006068401C18B10021606808F0E3FA2868B3
:10829000A169C0F8241500BF617D227D286841EAEC
:1082A0000203C0F86C3500BFD4E90012286809F059
:1082B0009EFD207D012814D1A068401C18B100212A
:1082C000A06808F0C7FAE068401C28B1E06808F030
:1082D0008BFBE06808F008FBD4E90221286809F06C
:1082E0006FFD70BD70B505460C462068401C28B176
:1082F000206808F084FB206808F002FB6068401CDE
:1083000018B10021606808F0B2FA2868A169C0F8C5
:10831000241500BF617D227D286841EA0203C0F870
:108320006C3500BFD4E90012286809F093FD207D68
:10833000012814D1A068401C18B10021A06808F0E1
:1083400096FAE068401C28B1E06808F058FBE06845
:1083500008F0D6FAD4E90221286809F061FD70BD61
:1083600070B504460D46204605F056FF70BD00006E
:1083700070B504460E461546D4F8D010D4F8000166
:1083800001EB00100189E420005B814213DDE42051
:10839000015BFC20005B81420DDA2968481C2860E3
:1083A000715CE420025B005B401C83B2E420035359
:1083B000D4F804018154E420015BFC20005B81427D
:1083C0000BD0D4F8D010D4F8000101EB00100089D4
:1083D000401EE421095B884233D104F1EC001030E7
:1083E0000EC8204600F0BAF828B10021E420005B56
:1083F000D4F804211154E420015BFC20005B81428D
:1084000001DA072070BD1049104A891AC9080422F0
:1084100042EA01400EA108F02DFE04F1EC001030FC
:108420000EC8204600F09AF818B104F1EC0021685B
:1084300088472046FFF705F908B10820E2E7032046
:10844000E0E70620DEE70000F0D4030038D40300A4
:108450004174747269627574652066696E697368C7
:108460006564210070B504460E4615462968481C0F
:108470002860715CC4F80011D4200059D4F80011B0
:1084800081420BD31F49204A891AC908042242EAB3
:1084900001401EA108F0EEFD082070BDD4F8D010F8
:1084A000D4F8000101EB0010C168C4F804112046A3
:1084B000FFF7C7F858B11349134A891AC9080422AB
:1084C00042EA014017A108F0D5FD0820E5E704F1D4
:1084D000EC0010300EC8204600F040F820B1D82043
:1084E0000059401ED82108510649074BC91AC9082E
:1084F000042343EA014014A1D4F8002108F0C4FD8C
:108500000420CAE7F0D4030038D403004174747225
:10851000696275746520494420496E76616C6964AE
:108520002E000000416C6C20726571756573746576
:108530006420617474726962757465732072656316
:1085400065697665642E2000417474726962757481
:108550006520494420256920000000001FB504461D
:10856000D4F8D000029900EB01100078012801D165
:1085700004B010BD0020FBE710B503461468601C72
:1085800010600C5DFC20C452052010BD70B504467F
:108590000E4615462968481C2860715CFC20005B6B
:1085A00040EA0121FC2001530021E4200153FC207A
:1085B000005B98B1D4F8D010D4F8000101EB0010A2
:1085C000008938B1D4F8D010D4F8000101EB0010C4
:1085D000C06808B9072070BD0620FCE7FC210A5BD3
:1085E0000E490F4BC91AC908042343EA01400DA1E3
:1085F00008F04AFD04F1EC0010300EC82046FFF7E9
:10860000ADFF18B104F1EC00216888472046FFF760
:1086100018F808B10820DEE70320DCE7F0D40300F7
:1086200038D40300417474726962757465204C45D6
:108630004E2025692000000070B504460E46154600
:10864000E420015BFC20005B814208DAE420005B4F
:10865000401C81B2E42001532868401C2860E420BB
:10866000015BFC20005B814213D104F1EC0010306F
:108670000EC82046FFF772FF18B104F1EC00216824
:1086800088472046FEF7DDFF08B1082070BD0320B3
:10869000FCE70720FAE710B50446637903F003020C
:1086A0002179208805F0D8FC10BD10B5044620794A
:1086B00018B9204600F008F803E02046FFF7EBFF6A
:1086C00000BF00BF10BD00002DE9FE4307463E88F5
:1086D0004FF00008002259480178304600F054FE5F
:1086E0007879C0F3800028B9002138460BF0CCFF20
:1086F000BDE8FE8306F5807188B201AB0122072137
:108700000CF040F90546C5B1284609F037FB814613
:108710004B494C4A891AC908012242EA01403346B2
:108720004A46494908F0BCFC294630460FF030FC67
:10873000002138460BF0A8FFDAE7304605F046F88E
:1087400004464FF6FF718C421BD1029804F08EFF55
:1087500004464FF6FF70844213D02146304605F0A0
:1087600013F83046FEF776FF58B930460FF094FB09
:108770003046FEF76FFF20B9002138460BF084FF2A
:10878000B6E74FF6FF7084421FD10CF005FB04469C
:108790004FF6FF70844212D129492A4A891AC90822
:1087A000012242EA014029A108F064FC042130467C
:1087B0000FF0EEFB002138460BF066FF98E72146EC
:1087C000304604F0E1FF4FF0010806F5807188B2F1
:1087D000224607210CF05EF9054625B901213846ED
:1087E0000BF052FF28E0862D07D130460FF094FBA6
:1087F000012138460BF048FF1EE0284609F0BEFA7A
:1088000081460F490F4A891AC908012242EA0140EC
:1088100033464A461A49009408F052FC294630462D
:108820000FF0B6FB002138460BF02EFFB8F1000F19
:1088300002D0204604F0B2FF00BF59E7656D00206A
:1088400098D4030038D4030038C80300436F756C14
:1088500064206E6F7420616C6C6F63617465206E50
:10886000657720706565725F696420666F72206944
:108870006E636F6D696E6720626F6E642E0000001C
:1088800054C90300002113E00C480269012308E0E9
:1088900000BFD0680079884201D1002303E0D0688E
:1088A0000268002AF4D100BF0BB108467047491C8A
:1088B0000A29E9DB4FF0FF30F8E70000B4B60020EA
:1088C0002DE9F04104460F46154615B90E20BDE8C6
:1088D000F0810020286000BF0CB90E20F7E700BF30
:1088E00000BF206808B90E20F1E700BF00BFE08894
:1088F000C11700EB91718910A0EB810109B107202C
:10890000E5E700BF384600F0A1FCC6B2142E01D145
:108910000520DCE72079B04201DC0420D7E7E188BC
:10892000206806FB010028600020D0E72DE9FC410B
:10893000054688461646002437880020308095F882
:108940002D0058B13A463146404600F083FE0446B9
:1089500000BF204608B1BDE8FC8100BFA87850B137
:108960003A4631464046FFF79BFB044600BF20468F
:1089700000B1F0E700BFE87860B1E97848B23B4663
:108980003246414603F0FBFE044600BF204600B1DC
:10899000E1E700BF686868B1696891F900003B468B
:1089A0003246414610F0ABFE044600BF204600B1FF
:1089B000D1E700BF288900280EDD434606220221A8
:1089C00005F10800CDE9006711F050FD044600BF35
:1089D000204600B1BFE700BF288A00280EDD4346CD
:1089E0000722032105F11000CDE9006711F03EFDDB
:1089F000044600BF204600B1ADE700BF288B002829
:108A00000EDD43461522142105F11800CDE900675B
:108A100011F02CFD044600BF204600B19BE700BFCB
:108A2000286A58B13B4632464146286A02F0D3F9DB
:108A3000044600BF204600B18DE700BF686A58B108
:108A40003B4632464146686A06F090F9044600BF4C
:108A5000204600B17FE700BF95F82C0000280BDD11
:108A60003B463246414628460FF068FC044600BFAC
:108A7000204600B16FE700BF287858B13B46324628
:108A80004146284606F061FA044600BF204600B180
:108A900061E700BF20465EE72DE9F84306468846B9
:108AA0001546002000900DB9BDE8F88309236A46F9
:108AB0004146304600F02BF80446BDF80000371858
:108AC000BDF8000068B164B12846FDF701FDA04281
:108AD00007D1224639462846FDF70FFD08B9012087
:108AE000E2E70020E0E7F8B504460E461546002010
:108AF00000902B466A463146204600F008F80746AB
:108B00000FB90020F8BDBDF800002044FAE730B5E9
:108B100004460D4604B10AB9002030BD002103E02F
:108B2000605C401C084481B21088884203DC481C09
:108B3000205C984201D0A942F2DBA94201DB00206F
:108B4000EBE7881C1080605C401E80B2E5E770B5E2
:108B500004460D462E462088102804D0112807D040
:108B600026280FD109E0214630460AF00BFD0AE025
:108B7000214630460AF0B1FF05E0214630460BF0B1
:108B8000D7FA00E000BF00BF70BD704770B5044663
:108B90000E46207808B9082070BDA67000214FF459
:108BA0001470C4F84A12A4F84E120155A07910B1FD
:108BB000A078012809D0E07910B1A078012804D06C
:108BC000E07970B1A07802280BD1606B30B1012040
:108BD00084F851020820616B884702E0002084F885
:108BE000510231462046FEF779FBA070606BA0B1C0
:108BF000A078032802D0A07804280ED1607960B153
:108C000094F8520248B9002084F85402012084F8F4
:108C100053020720616B884702E0002084F853026A
:108C2000182104F13C00FDF748FC012084F83C00C9
:108C300004F12C000CF0B6FA20B194F82C1051205D
:108C4000015502E001215120015594F8240060B142
:108C500004F12C000CF0A6FA20B194F82810522050
:108C6000015502E0012152200155002150200155FB
:108C7000A078052824D2DFE800F01F030A111800AD
:108C800004F13C0120460FF0EFFB054619E004F12A
:108C90003C0120460FF0D0FB054612E004F13C01F8
:108CA00020460FF0F3FB05460BE004F13C012046A3
:108CB0000FF01AFC054604E0002084F8310000E0C3
:108CC00000BF00BFA07898B104F13C0204F1540049
:108CD000D4F8441272DF05460DB128465CE794F8DB
:108CE000301094F8540073DF05460DB1284653E761
:108CF000606B18B194F83100616B884700204BE736
:108D000010B50446E28E0849084BC91AC908032366
:108D100043EA014006A108F0B7F9E18E208901225B
:108D200001F082FD10BD0000A8D4030038D4030078
:108D3000456E61626C65204461746120536F757289
:108D40006365206E6F74696669636174696F6E73C1
:108D50002E2057726974696E6720746F2068616E87
:108D6000646C653A202569200000000070B5044657
:108D70000E4600BF0CB90E2070BD00BF00BF0EB97B
:108D80000E20F9E700BF00BF306808B90E20F3E7F6
:108D900000BF227B3B493C4BC91AC908032343EA65
:108DA00001403AA108F070F90021DC200155E020D3
:108DB0000151E4200153E8200151306820607068BF
:108DC00060604FF6FF70208142F6021121872185F5
:108DD000322104F10A00FDF770FB10F09BFB227BAF
:108DE0002849294BC91AC908032343EA01402BA18A
:108DF00008F04AF904F10C012C4862DF054600BF77
:108E0000284600B1B8E700BF04F11401284862DF2A
:108E1000054600BF284600B1AEE700BF04F11E01C1
:108E2000244862DF054600BF284600B1A4E700BF22
:108E300004F12E01204862DF054600BF284600B13C
:108E40009AE700BF227B0F490F4BC91AC9080323B9
:108E500043EA014019A108F017F94FF2314060814F
:108E6000217B2173227B0749074BC91AC9080323B9
:108E700043EA014015A108F007F904F10A0000F0E7
:108E8000AFFA79E7A8D4030038D4030030312C7549
:108E90007569645F747970653A25640030322C75A9
:108EA0007569645F747970653A25640080B0030069
:108EB00090B00300A0B00300B0B0030030332C75B5
:108EC0007569645F747970653A25640030342C7577
:108ED0007569645F747970653A25640010B504465D
:108EE000E28C0849084BC91AC908032343EA014028
:108EF000064908F0C9F8E18C2089012201F094FCB0
:108F000010BD0000A8D4030038D40300E0CB030058
:108F10002DE9F04104460D462E462788112F0ED02C
:108F2000382F02D0392F0FD104E0214630460BF004
:108F3000C5F90AE0214630460AF009FE05E021465F
:108F400030460AF0F2FD00E000BF00BFBDE8F0814E
:108F5000F0B59DB007460C4622785949594BC91ABD
:108F6000C908042343EA014057A108F08DF804F131
:108F70000E06207800287CD1A0884FF2314188422B
:108F8000F9D1A179387B8142F5D14D494D4A891AF1
:108F9000C908032242EA014058A108F06BF80025F5
:108FA0006EE005EBC50036F81000A0F590500D38C6
:108FB00000283FD0A0F53440DC38D0B1A0F5905067
:108FC0000A38002859D13E493E4A891AC908032265
:108FD00042EA01404AA108F04DF805EBC50006EB56
:108FE00040010A6812924A6813920989ADF850103C
:108FF00044E03349334A891AC908032242EA01404E
:1090000048A108F037F805EBC50006EB40010A68F7
:109010000DF12200CDF862204A68CDF8662009895A
:10902000ADF86A1005EBC50006EB40004189ADF8CC
:109030006C1023E02249234A891AC908032242EA14
:10904000014041A108F016F805EBC50006EB400110
:109050000A680DF11200CDF852204A68CDF856206A
:109060000989ADF85A1005EBC50006EB40004189AF
:1090700000E012E0ADF85C1000E000BF00BF6D1C26
:10908000207AA8428DD800208DF800006088ADF8C5
:1090900002006846396888470FE00949094A891A79
:1090A000C908032242EA014032A107F0E3FF012090
:1090B0008DF800006846396888471DB0F0BD000093
:1090C000A8D4030038D403004461746162617365FD
:1090D00020446973636F766572792068616E646C91
:1090E00065722063616C6C656420776974682065C3
:1090F00076656E74203078257800000031313100BB
:10910000436F6E74726F6C20506F696E7420436889
:1091100061726163746572697374696320666F75E7
:109120006E642E004461746120536F757263652014
:109130004368617261637465726973746963206600
:109140006F756E642E0000004E6F7469666963610E
:1091500074696F6E20706F696E742043686172610C
:1091600063746572697374696320666F756E642ECB
:10917000000000003232320001460879032802DA8A
:1091800088790C2801DB072070470020FCE70000ED
:109190002DE9F041044600BF14B90E20BDE8F0816E
:1091A00000BF1C2221461C48FDF76EF91B481A49D6
:1091B0000860206860B120687ADF05460DB1284656
:1091C000ECE7164821680A6802604968416005E0DA
:1091D00012487BDF05460DB12846DFE7002617E081
:1091E00006EB86000E4901EB800700BF4FF6FF70CB
:1091F000388000BF0B4800EB461078600A4A002117
:10920000381DFEF7A7FD05460DB10320C6E7761C05
:10921000022EE5D30020C1E708980020526C002000
:10922000E0970020A09700207DA3030008B5064822
:10923000C068009004488168684606F072F900989A
:10924000FDF7B5FF08BD00002498002010B50446C6
:10925000204600F0B7F808B1204610BD1420FCE706
:1092600010B50446204600F0ADF820B12146034871
:1092700006F019F910BD0020FCE70000349800202A
:1092800070B504460D461646204611F0C1F808B9DF
:10929000002070BD034951F824003246294603F0EE
:1092A000FDFAF6E73C98002010B50446204600F091
:1092B00089F820B12146034806F0F5F810BD0020DA
:1092C000FCE700003898002008B50648C068C04395
:1092D000009004488168684606F023F90098FDF77D
:1092E00066FF08BD2498002070B50446002520467E
:1092F00000F068F850B12146054806F0D4F806465B
:109300000EB1022000E00120054600BF284670BDD6
:109310003098002070B504460025204600F052F831
:1093200050B12146054806F0BEF806460EB10220AF
:1093300000E00120054600BF284670BD2C980020A3
:1093400010B51821044806F07EF80446182C00D108
:1093500010BDE0B2FCE700002498002070B505467F
:109360000C46204611F054F850B1284600F02AF877
:1093700030B1044901EB8400294606F094F870BD31
:109380000020FCE73C98002070B505460C461646C8
:10939000204611F03DF888B1284600F013F868B176
:1093A00036B1074901EB8400294606F08BF805E049
:1093B000034901EB8400294606F01FF870BD000048
:1093C0003C98002010B50446142C01DB002010BD91
:1093D0002146024806F067F8F9E7000028980020C7
:1093E00010B5044600BF0CB90E2010BD00BF00BF71
:1093F00006480078012801D00820F6E700BF04489D
:10940000016820460DF094FFEFE70000686C002033
:109410005C6C002070B504461449154A891AC908C5
:10942000032242EA014013A107F024FE002500BFF9
:109430000CB90E2070BD00BF002014490860012047
:109440001349087000201349086013480460074955
:10945000074A891AC908032242EA01400C490A78DE
:109460000EA107F011FE2846E4E7000050D40300E7
:1094700038D40300626C655F64625F646973636F14
:10948000766572795F696E6974000000646C002013
:10949000686C0020606C00205C6C0020626C655F72
:1094A00064625F646973636F766572795F696E6920
:1094B000742C6D5F696E697469616C697A65643A70
:1094C0002564000070B504460E4600BF04B970BDA7
:1094D00000BF00BF06B9FAE700BF00BF1D48007813
:1094E000012800D0F3E700BF35462088112815D0A9
:1094F000302804D0322807D0332814D109E0211DA8
:1095000028460AF02BFD0FE0211D284609F062FED7
:109510000AE0211D28460AF0D9F905E0211D284658
:109520000AF0F4FA00E000BF00BF95F8C80278B175
:10953000208830280CDB20884F2809DCA088B5F86B
:10954000CA12884204D1B5F8CA12284602F06CF853
:1095500000BFBCE7686C002070B504460D461F498B
:109560001F4A891AC908032242EA01401D4A1EA166
:1095700007F08AFD19491A4A891AC908032242EAE2
:10958000014018490A7821A107F07EFD00BF0CB9FF
:109590000E2070BD00BF00BF12480078012801D026
:1095A0000820F6E700BF0D490D4A891AC9080322B1
:1095B00042EA01401F490A681FA107F065FD1D48E6
:1095C000006808B90820E4E794F8C70208B1112040
:1095D000DFE72946204602F027F8DAE750D40300F7
:1095E00038D40300686C002030322061646472203B
:1095F0006F66206D5F696E697469616C697A656414
:10960000203D20307825303878000000626C655F9E
:1096100064625F646973636F766572795F737461A6
:1096200072742C6D5F696E697469616C697A6564C6
:109630003A256400646C00206D5F6E756D5F6F6627
:109640005F68616E646C6572735F7265673A25640A
:10965000000000002DE9FC4105460C461746208815
:109660000930B84202D90C20BDE8FC8168466DDFA4
:10967000064600BF304600B1F6E700BF082021884B
:1096800068542088401C20801B2021886854208832
:10969000401C208020882844DDF801100160BDF8BE
:1096A000051081802088801D20809DF800004008E2
:1096B00018B900202188685402E0012021886854EC
:1096C0002088401C20800020CEE7000070B50546B1
:1096D0000E462888102802D011282CD115E01748F2
:1096E000006860B901F08EFC044600BF34B1144834
:1096F000006818B1204612490968884700BF0F4822
:109700000068401C0D49086016E00C480068401EC7
:109710000A4908600846006860B9FDF771FE044612
:1097200000BF34B10648006818B1204604490968F2
:10973000884700BF00E000BF00BF70BD246000206C
:10974000206000202DE9F04104460F46A6883046EF
:10975000FFF7CAFD0546012D03D0204600F0C6F8EC
:1097600020B1084801682046884708E0022D02D051
:1097700020881D2803D10448016820468847BDE899
:10978000F08100005C6B0020586B002070B504462F
:109790000D462088102806D0112808D012280ED097
:1097A000502810D107E0204609F082FE0CE0204648
:1097B0000AF07AF908E020460AF054FD04E0204659
:1097C00009F0F4FD00E000BF00BF70BD2DE9F041DD
:1097D00004468846A5882088102804D0112817D070
:1097E0001A2849D118E00DF03DFD28460DF0B4FBD4
:1097F00030B900BF22A2E3210420FCF70BFD06E0F4
:10980000E07B012803D029462C4805F05BFE33E0BD
:1098100028460DF04BFD2FE0207A0121B1EB101FFF
:1098200001DA012000E000200646207A0221B1EB97
:10983000101F01DA012000E0002007468EB1294602
:109840001E48001D05F03EFE2FB129461B4808307A
:1098500005F038FE0FE029461848083005F0CDFD28
:1098600009E029461548001D05F0C7FD29461348A3
:10987000083005F0C2FD00BF00BFBDE8F081000068
:109880002E2E5C2E2E5C2E2E5C2E2E5C2E2E5C2E12
:109890002E5C636F6D706F6E656E74735C626C6569
:1098A0005C636F6D6D6F6E5C626C655F636F6E6E37
:1098B0005F73746174652E630000000030980020AF
:1098C00070B504460D4600BF0748007800B970BD6A
:1098D00000BF204603F034FE20460EF093FE2046E3
:1098E00003F002FA00BFF2E7A06C002001460888EE
:1098F000262801D1012070470020FCE770B50446FE
:10990000204610F09BFC054605F0010070BD0000EC
:1099100038B508F017F9044600BF254635B100BF39
:1099200014A29C212846FCF775FC00BF00BF002054
:1099300000906946012007F0FFFE044600BF25465F
:1099400035B100BF0BA2A3212846FCF763FC00BF82
:1099500000BF684607F0C0FF044600BF254635B18A
:1099600000BF04A2A7212846FCF754FC00BF00BF9B
:1099700038BD00002E2E5C2E2E5C2E2E5C4C595FC6
:10998000424C455C6C795F626C652E6300000000A0
:1099900010B5034600BF0BB90E2010BD00BF5980A3
:1099A0002AB15488DC801088988094881C8100201B
:1099B000F3E7000070B586B004460E46204B0FCB8F
:1099C00001AD0FC500BF14B90E2006B070BD00BFB9
:1099D00000BF0EB90E20F8E700BF227819491A4BD4
:1099E000C91AC908032343EA014018A107F04CFB38
:1099F000214601A862DF054600BF284600B1E4E722
:109A000000BF22780F49104BC91AC908032343EA43
:109A1000014016A107F038FB20788DF816000120D0
:109A2000ADF814004FF6FF7060803068E0600020F1
:109A3000A0800021218105A8FFF7D2FCC5E7000026
:109A4000E0AD030040D4030038D4030030315F7030
:109A50005F626C655F7475735F632D3E75756964D5
:109A60005F747970653A25640000000030325F70E1
:109A70005F626C655F7475735F632D3E75756964B5
:109A80005F747970653A25640000000070B586B097
:109A900005460E46344604B10DB906B070BD608867
:109AA0004FF6FF71884204D06088A988884200D0B0
:109AB000F3E72888112806D0392816D129462046F0
:109AC0000AF082F912E0A888618888420CD1E06827
:109AD00050B102208DF804004FF6FF70608001A99C
:109AE0002046E268904700BF00E000BF00BF00BF13
:109AF000D3E770B586B005460C46142101A8FCF7E3
:109B0000DCFC04F10E06207800283AD1A088012858
:109B100037D1A0792978884233D1002022E000EBA8
:109B2000C00136F81110022902D0032917D107E02D
:109B300000EBC00106EB41010A89ADF816200FE0E9
:109B400000EBC00106EB41010989ADF8121000EBF2
:109B5000C00106EB41014A89ADF8142000E000BFC6
:109B600000BF401C217A8142D9D8E86848B160889A
:109B7000ADF8060000208DF8040001A92846EA6827
:109B8000904706B070BD000070B50446E388628857
:109B90000E490F4D491BC908032545EA01400D49EF
:109BA00007F07EFA00BF0CB90E2070BD00BF6088C0
:109BB0004FF6FF71884201D0E08808B90820F4E729
:109BC000E1886088012200F017FEEEE740D4030030
:109BD00038D403006CB7030010B50446207880B970
:109BE00022890949094BC91AC908032343EA0140DC
:109BF00007A107F049FAA28A2089216904F0C0FF71
:109C000000E000BF00BF10BDF0D4030038D4030053
:109C100052656D6F746520307825782053656E64C9
:109C200020446174613A00002DE9FF4104460D466D
:109C300016461F4600BF1CB90E2004B0BDE8F081D7
:109C400000BF00200090019002900390A088ADF822
:109C500000000395029601208DF8020069463846FF
:109C6000AEDFEAE770B58EB004460E463E4B0FCB32
:109C700009AD0FC500BF14B90E200EB070BD00BFF6
:109C800000BF0EB90E20F8E700BF3068A061214682
:109C900009A862DF054600BF284600B1EDE700BF16
:109CA00020788DF836000120ADF83400A21C0DA9F3
:109CB000A8DF054600BF284600B1DEE700BF20212F
:109CC00001A8FCF7FAFB0220ADF8040020788DF81B
:109CD0000600F420ADF808000120ADF80A008DF868
:109CE00010009DF8110020F0080008308DF81100D8
:109CF0009DF8110020F00400001D8DF811000120D6
:109D00008DF815008DF81600608804F10C0201A989
:109D100000F022FE05460DB12846AEE7202101A83D
:109D2000FCF7CBFB0320ADF8040020788DF806008B
:109D3000F420ADF808000120ADF80A008DF81000FD
:109D40009DF8110020F0100010308DF81100012056
:109D50008DF815008DF816008DF817006088221D0B
:109D600001A900F0F9FD88E7D0AD030070B5044605
:109D70000D4605B104B970BD2E462088102804D0C8
:109D8000502807D057280FD109E02146304609F066
:109D900025FB0AE0214630460AF0EAF905E02146B3
:109DA00030460AF047F800E000BF00BF00BFE2E71E
:109DB00010B50146094B585C00BF4FF0A044234644
:109DC00000BFD3F81045C44004F001040CB10120D9
:109DD00000E00020024682F0010010BD70AD0300DB
:109DE0007CB500240DE00848055D032600200090A6
:109DF0003346024601460190284606F0DBFC00BFD0
:109E0000641C042CEFD37CBD70AD030010B5044678
:109E100004F0010008B100F04BF804F0020008B1B2
:109E2000FFF7DEFF10BD000010B502460949885C4F
:109E300000BF4FF0A0442146D1F8043501248440EE
:109E40009C43C1F80845012484401C40C1F80C45DE
:109E500000BF10BD6CAD030010B504460249085D9B
:109E6000012106F0D7FD10BD6CAD030010B504460E
:109E70000249085D002106F0CDFD10BD6CAD030068
:109E800010B50146094B585C00BF4FF0A044234673
:109E900000BFD3F80445C44004F001040CB1012014
:109EA00000E00020024682F0010010BD6CAD03000E
:109EB0007CB500240CE00948055D002000900346B5
:109EC000012211460190284606F074FC00BF641C74
:109ED000042CF0D300F004F87CBD00006CAD03004E
:109EE00010B5002403E02046FFF7B6FF641C042CE5
:109EF000F9D310BD10B5002403E02046FFF7B6FFEC
:109F0000641C042CF9D310BD02464FF0FF30002131
:109F100006E0054B5B5C934201D1084602E0491C18
:109F20000429F6D300BF704770AD030070B5054635
:109F30000C4600260648056014B120460EF0D2FDFE
:109F40000448006810B9FDF75BFA0646304670BD5C
:109F500020600020246000202DE9F04106460F46D5
:109F60004FF0000800243046FFF7CEFF0446042CD3
:109F70003ED20FB3012F02D0022F38D130E004EBD4
:109F80004400214911F8008004EB44000844407863
:109F900050B11E4A4FF400411D480068FDF726FFEE
:109FA00005460DB91948067004EB440016490844EB
:109FB0008078184908551AE015480068FDF740FFF9
:109FC0001448005D04EB44010F4A1144897888422B
:109FD00005D104EB44001146084490F8028006E0E5
:109FE00004EB44000849084490F8018000BF00BF1A
:109FF000B8F1000F06D00848006818B1404606497D
:10A0000009688847BDE8F0811C6F002018600020B7
:10A010007CAD0300196000201460002010B50446D8
:10A02000042C03D22046FFF7C3FE10BD0020FCE73E
:10A030003EB504460E2C06D00F2C12D0102C3AD070
:10A04000112C4ED142E02849284A891AC908032216
:10A0500042EA014026A107F00DF8012028490870C6
:10A0600040E02149214A891AC908032242EA0140F5
:10A0700024A106F0FFFF02A9264800880BF054F93E
:10A080009DF80800C0F3C0009DF80810C1F38001DE
:10A09000CDE900109DF80810C1F3400301F0010262
:10A0A0001149124D491BC908032545EA01401AA16F
:10A0B00007F01AF816E00C490C4A891AC90803225D
:10A0C00042EA014023A106F0D5FF0BE00649074A0A
:10A0D000891AC908032242EA014022A106F0CAFFF8
:10A0E00000E000BF00BF3EBDF0D4030038D4030041
:10A0F0004253505F4556454E545F4B45595F3000C3
:10A10000046000204253505F4556454E545F4B4516
:10A11000595F3100606B0020636F6E6E656374651C
:10A12000643A25642C20656E637279707465643AB4
:10A1300025642C206D69746D5F70726F7465637433
:10A1400065643A25642C20626F6E6465643A256408
:10A15000000000004253505F4556454E545F4B454A
:10A16000595F32004253505F4556454E545F4B4550
:10A17000595F330030B503460020042B23D2012A57
:10A1800007D1012903D103F10E04E4B200E0002459
:10A19000224679B1012902D0022911D104E003EB52
:10A1A00043040A4D2A550DE003EB4304074D2C44AC
:10A1B000627007E003EB4304044D2C44A27001E0FD
:10A1C000072000BF00E0072030BD00001C6F00200A
:10A1D0002DE9F04105460F4600241F4805601F4841
:10A1E000076005F0020000B3002606E001221146D8
:10A1F0003046FFF7BFFF0446761C042E01D2002C28
:10A20000F4D034B940F2666204211548FDF7D6FB5C
:10A21000044614B9FDF7BCFB04462CB9114A0021D1
:10A220001148FDF797FD044600BF05F0010080B11D
:10A230000120FFF7EBFD2CB90C4A00210C48FDF77B
:10A2400089FD04462CB90B4A01210B48FDF782FD1C
:10A2500004462046BDE8F0810C6000201460002018
:10A2600080AD030011A702007CAD0300E9DD020010
:10A2700074AD03003776020078AD03002DE9F04796
:10A28000044600260025DA48007820B10020D8498D
:10A29000087003F095FD182C7ED2DFE804F00C1650
:10A2A000174A7EB2F6F4F3F2F1F0EFEEEDECEBEAE2
:10A2B000E9E8E7E6E5E403F083FDCE480068FDF752
:10A2C000BFFD0646CC4804708DE100BF0020FFF7BB
:10A2D000D7FD58B10020FFF7BFFD022C02D14FF48B
:10A2E000E16001E04FF47A60054609E00020FFF7E5
:10A2F000BDFD022C01D1C82001E04FF4C870054615
:10A30000BD4804704FF40040A5FB00104FF4FA73F1
:10A31000CF1840F100015A0000233846FCF770F8CE
:10A32000814600224946B3480068FDF75FFD0646B6
:10A3300059E10020FFF7A4FD58B10020FFF78CFD84
:10A34000032C02D14FF4487001E04FF47A600546C7
:10A3500009E00020FFF78AFD032C01D1C82001E0AD
:10A360004FF4C8700546A44804704FF40040A5FBA4
:10A3700000104FF4FA728F1840F1000152000023D0
:10A380003846FCF73DF88146002249469948006866
:10A39000FDF72CFD064626E124E10020FFF770FDC5
:10A3A00058B10020FFF758FD042C02D14FF47A6019
:10A3B00001E04FF47A6005460AE00020FFF756FD01
:10A3C000042C02D14FF4C87001E04FF4C870054668
:10A3D000894804704FF40040A5FB00104FF4FA7355
:10A3E000CF1840F100015A0000233846FCF708F866
:10A3F0008146002249467F480068FDF7F7FC064683
:10A40000F1E00020FFF73CFD50B10020FFF724FDF4
:10A41000052C01D1C82001E04FF47A60054609E01F
:10A420000020FFF723FD052C01D1C82001E04FF4E7
:10A43000C8700546704804704FF40040A5FB00202A
:10A440004FF4FA73D71840F100015A000023384640
:10A45000FBF7D6FF81460022494666480068FDF7B3
:10A46000C5FC0646BFE0B8E0B6E0AAE0A1E098E08F
:10A4700092E05FE05DE05BE059E057E051E042E0F0
:10A4800033E024E015E00EE0FFE70020FFF7CCFC0E
:10A4900059480470002240F6CD4156480068FDF747
:10A4A000A5FC06469FE00020FFF7E0FC5248047040
:10A4B00099E001204E490870FFF7B6FC002240F6F3
:10A4C000CD414C480068FDF791FC06468BE0012029
:10A4D00047490870FFF7A8FC00224FF48041454827
:10A4E0000068FDF783FC06467DE0012040490870C6
:10A4F000FFF79AFC002240F6CD413E480068FDF788
:10A5000075FC06466FE0012039490870FFF78CFCA6
:10A5100000224FF4804137480068FDF767FC06468B
:10A5200061E0FFF7E7FC344804705CE000BF00BF67
:10A5300000BF00BF31480068FDF782FC0646C4F149
:10A54000110515B30EBB012D18D9A8B2C821484377
:10A550004FF4004180FB01104FF4FA728F1840F164
:10A560000001520000233846FBF74AFF81460022D3
:10A57000494622480068FDF739FC06460220FFF7ED
:10A5800075FC01201E49087005E00220FFF764FCFD
:10A5900000201B49087026E003F012FC16480470E6
:10A5A00021E003F00DFC0020FFF760FC124804706E
:10A5B00019E003F005FC0120FFF758FC0E48047079
:10A5C00011E003F0FDFB0020FFF750FC0120FFF736
:10A5D0004DFC0948047006E000BFFFF78BFC0648FD
:10A5E000047000E000BF00BF3046BDE8F087000007
:10A5F0000960002074AD03000860002078AD0300FE
:10A60000106000202DE9FC4704460D461646A71CA5
:10A610004FF001080020019001A8FDF717FD29481F
:10A62000006828602748006826494968411A25487B
:10A630008068401CA0EB010906E00121224804F0DB
:10A6400065FF4FF0000801E04F45F6D800BFB8F1B4
:10A65000000F30D00021009176B1009921F0030164
:10A66000491C0091009921F00401091D00910099F5
:10A6700064F3891100910DE0009921F00301891C18
:10A680000091009921F00401091D0091009964F3E3
:10A690009F5100910B4909680A4A92681140094A82
:10A6A0000C3202EB810000990160064909683944C7
:10A6B0000C3A116000BF9DF80400FDF7CDFC404648
:10A6C000BDE8FC87B4A60020D0B6002070B50446D3
:10A6D0000D460A2D03D10D212046FFF7F7FFA16893
:10A6E000481CA06020684554D4E90110884202D378
:10A6F000204605F0AEFC70BD044840680349096877
:10A70000884201D1012070470020FCE7B4A6002058
:10A7100010B5044620780221FFF71EFC10BD000092
:10A72000F8B5054614490320FFF752FD044600BF63
:10A73000264636B100BF11A2C2213046FBF76AFDA2
:10A7400000BF00BF69460020FFF7F0FB044600BFD2
:10A75000264636B100BF09A2C5213046FBF75AFD97
:10A7600000BF00BF9DF80000022801D1012000E0D9
:10A7700000202870F8BD000031A002002E2E5C2EB3
:10A780002E5C2E2E5C6D61696E2E63007CB50446D6
:10A79000204603F01BF8054600236A4609210AF00B
:10A7A0004FFA052805D10122024801782046FEF71C
:10A7B000EBFD7CBD7C6C00207CB504460E46002081
:10A7C000019042F6A620ADF8040001208DF80600A5
:10A7D0000748006800906A4601A92046A0DF0546A8
:10A7E0002DB90122034801782046FEF7CDFD7CBD3E
:10A7F0001CAF03007D6C00207FB506460C46154655
:10A800008DF80C5000208DF80D00064A07CA8DE81F
:10A810000700ADF8024003A8029069463046A3DF66
:10A8200004B070BDF0AD0300F0B589B005460E462A
:10A83000144624216846FBF740FE2746ADF81A600F
:10A840000221ADF81E1001A908910021ADF81C10DD
:10A8500001218DF81810F8B28DF80400390A8DF82E
:10A860000510ADF8005002208DF8020068460EF089
:10A870005BFE0EF0C9FE002009B0F0BD01468879EC
:10A88000012809D10879012806D1488842F6021228
:10A89000904201D1012070470020FCE74FF0FF31CA
:10A8A000054A42F82010082804DBFF23A0F1080124
:10A8B0005032535470470000CC9F0020014602489C
:10A8C00050F8210070470000CC9F00202DE9F04F88
:10A8D00003460C464FF0FF390AB1002000E0082083
:10A8E00084460AB1082000E00C208046614624E03E
:10A8F000154850F82100401CF0B91D46084627466F
:10A9000016464FFA80FBDFF840A00AF1300A0AF839
:10A9100005B0DFF834A04AF820704EB94FFA85FB35
:10A92000A0F1080ADFF820E00EF1500E0EF80AB090
:10A9300000BF4FFA81F902E0491C4145D8D300BF5E
:10A940004846BDE8F08F0000CC9F0020014601483A
:10A9500040567047FC9F002070B590B006460C46EC
:10A960001546A07818B901208DF80E0002E0A078F5
:10A970008DF80E002088ADF80C0000200290607C5D
:10A9800002A90DF0DFFDA07C0DF109010DF0DAFD4B
:10A99000E07B08B1012000E000209DF80A1060F380
:10A9A000C3018DF80A10207C08B1012000E00020CE
:10A9B0009DF80A1060F304118DF80A10207B08B18D
:10A9C000012000E000209DF80A1060F300018DF8DE
:10A9D0000A10207D08B1022000E001209DF80A1035
:10A9E00060F342018DF80A101C2109A8FBF765FDF0
:10A9F000607BC0F3001018B9607BC0F34010F8B161
:10AA000000200090E07C0DF101010DF09BFD00BFE6
:10AA10009DF8000020F00F00401C8DF800009DF80C
:10AA2000000020F0F00010308DF8000000BF9DF80D
:10AA3000020020F00600801C8DF80200CDF838D00E
:10AA4000607B8DF82400A07B8DF82500142104A8DC
:10AA5000FBF733FD03A8049002A80590A088ADF889
:10AA60001C00A06820B1E088ADF81800A06808902C
:10AA7000A069002849D000200190A0690088ADF8A5
:10AA80002C00A0694088ADF82E00A06940680A90AB
:10AA900001A80D90A169087B01A90DF053FDA169E2
:10AAA000487B0DF105010DF04DFDA069807A08B1DC
:10AAB000012000E000209DF8061060F3C3018DF82E
:10AAC0000610A069C07A08B1012000E000209DF8BE
:10AAD000061060F304118DF80610A069007A08B121
:10AAE000012000E000209DF8061060F300018DF8C1
:10AAF0000610A069807B08B1022000E001209DF8CB
:10AB0000061060F342018DF80610E06908B1E069B3
:10AB10000C902B4604AA09A93046AADF10B070BDDC
:10AB2000F8B504460E4694F8C60200EB8001C1EB6E
:10AB3000801004EB400594F8C502B8B194F8C52222
:10AB4000521ED1B294F8C62202EB8203C3EB8212EA
:10AB500004EB420501EBC10305F10A0202EB4300DD
:10AB60000289521C92B2ADF8002002E0E888ADF8EC
:10AB700000002889ADF80200694630469DDFF8BD27
:10AB80002DE9F04104460D464FF6FF7630468442EB
:10AB90000AD14FF48071284604F055FC86B2B6F510
:10ABA000807F10D126460EE0FF2C0CDC2146284683
:10ABB00004F032FC80F001070FB1204601E04FF6AF
:10ABC000FF70064600BF3046BDE8F08170B505460F
:10ABD0000DB9094C01E0084C083409E0204603F0A7
:10ABE000E8F8064606B904E028467168884700BFC1
:10ABF000F4E700BF70BD0000C09F002010B5044600
:10AC00002CB90120064948700020FFF7DFFF012C16
:10AC100004D1012002498870FFF7D8FF10BD000061
:10AC2000B89F00202DE9F04104460F4615462968DB
:10AC3000481C2860795CDD200155005D10B10128B9
:10AC400018D10BE0042084F8EC0004F13C00C4F8B7
:10AC5000D0000821D4200151012617E0052084F8F6
:10AC6000EC0004F1BC00C4F8D0000121D420015153
:10AC700002260BE00749084A891AC908042242EA59
:10AC8000014006A106F0F6F9082600BF00BF3046D5
:10AC9000BDE8F081F0D4030038D40300496E76613A
:10ACA0006C696420436F6D6D616E642049440000DF
:10ACB0002DE9F04782461F480068002836D01D481D
:10ACC000006805680CF0AAFB07461B48046821468B
:10ACD00038460EF0FDF9C61C1848007808B90CF08B
:10ACE000AFFBAE4201D2284600E03046044424F0D7
:10ACF0007F4420460CF08CFB0CF090FB80463946DC
:10AD000040460EF0E5F900F10309394620460EF001
:10AD1000DFF9814509D90CF081FB81460CF078FB05
:10AD20002F2007F0CBF80EF021FB01E00CF0A6FB82
:10AD3000BDE8F087C86D0020CC6D0020DA6D0020E2
:10AD400033B58BB00546002000900C9878B10024F4
:10AD50000BE021460CA804F0A6FB28B1009A501C79
:10AD6000009001A820F81240641C142CF1D32C226E
:10AD700069462846FBF788FB0DB030BD01460888C0
:10AD8000062808DB0888B0F5486F06DD08884FF60E
:10AD9000FF72904201D0072070474888062808DBE0
:10ADA0004888B0F5486F06DD48884FF6FF7290423C
:10ADB00001D00720F0E708884FF6FF72904208D0D4
:10ADC0004888904205D008884A88904201DD0720D3
:10ADD000E2E70020E0E72DE9F04107460D46144682
:10ADE00098462088801D404502D90C20BDE8F0819E
:10ADF0003846FFF7C3FF064600BF304600B1F5E70F
:10AE000000BF0520218868542088401C2080122023
:10AE1000218868542088401C208022885119388855
:10AE20000FF012FA2188084420802288511978886E
:10AE30000FF00AFA2188084420800020D6E700009D
:10AE400010B5044600BF03A27E212046FBF7E2F9BD
:10AE500000BF10BD2E2E5C2E2E5C2E2E5C4C595F3A
:10AE6000424C455F5045524950484552414C5C6CFC
:10AE7000795F626C655F702E6300000030B587B04B
:10AE80001C216846FBF719FB0020009041F2883036
:10AE9000019047F23050029003208DF80C004FF6DD
:10AEA000FF70ADF80E0001208DF810000020059015
:10AEB000094806906846FEF76BF9044600BF254630
:10AEC00035B100BF05A294212846FBF7A3F900BFC6
:10AED00000BF07B030BD000041AE02002E2E5C2E38
:10AEE0002E5C2E2E5C4C595F424C455F50455249BA
:10AEF00050484552414C5C6C795F626C655F702EC6
:10AF000063000000F8B505460C46607A88B9207ADF
:10AF100010B91048476801E00E4887682A4639464C
:10AF20006068FCF763FF064616B130460CF0D4FFAC
:10AF30000EE0002020720748406948B101208DF8DA
:10AF40000000ADF80250034841696846884700BFD9
:10AF5000F8BD000008980020F0B587B004460D4603
:10AF600017461E4618220B4901A8FBF78DFAADF8CB
:10AF700006408DF80C50ADF80E708DF81060002270
:10AF8000054801782046FEF7FFF901A801F06CF9A9
:10AF900007B0F0BD24B00300656D002010B586B089
:10AFA0000446208809F026FB00BB2088FEF758F9EC
:10AFB00030B92088012241F2060100F03BFE15E085
:10AFC000208800220A490978FEF7DEF902208DF870
:10AFD00000002088ADF8020000208DF80800002154
:10AFE0008DF80910684601F03FF900BF06B010BDAA
:10AFF000656D002070B504460D4629462046FBF7D6
:10B00000D9FF70BD10B5012200210846FFF7B2F844
:10B01000044600BF1CB1072C01D0204610BD00BF64
:10B02000072202210120FFF7A5F8044600BF1CB14A
:10B03000072C01D02046F1E700BF042202210020A6
:10B04000FFF798F8044600BF1CB1072C01D020463A
:10B05000E4E700BF0020E1E730B503460C4612B933
:10B060004FF6FF7100E011880846002110E005123C
:10B0700045EA0025A8B25D5C6840C0F3031568404E
:10B0800080EA0035A8B205062D0D80EA4500491C6E
:10B09000A142ECD330BD00002DE9FF4105460C462E
:10B0A00029492A4A891AC908042242EA01402B4642
:10B0B000224627A105F0F4FF002002900390ADF88E
:10B0C0000840ADF80A40009001906A4602A928465F
:10B0D00090DF0646002E32D0304606F04FFE07467F
:10B0E00019491A4A891AC908012242EA01403B4615
:10B0F0002A46234905F0D4FFBDF8000010B9BDF879
:10B10000020068B1BDF80230BDF800200E490F4FB3
:10B11000C91BC908012747EA01401AA105F0C0FF71
:10B12000BDF8040058B1BDF804200749074BC91AFF
:10B13000C908012343EA0140224905F0A5FF304632
:10B1400004B0BDE8F081000048D4030038D4030007
:10B150005570646174696E672064617461206C6508
:10B160006E67746820746F202575206F6E20636F82
:10B170006E6E656374696F6E20307825782E0000DE
:10B1800034B8030054686520726571756573746521
:10B19000642054582F5258207061636B6574206C82
:10B1A000656E67746820697320746F6F206C6F6EB2
:10B1B000672062792025752F2575206F637465746B
:10B1C000732E000080B8030070B5044663881A46E9
:10B1D0000849094D491BC908042545EA014007A152
:10B1E00005F05EFF204603F091FA204603F064FB71
:10B1F00070BD0000F0D4030038D4030063616C6CB0
:10B2000020746F20626C655F6C62735F6F6E5F6449
:10B21000625F646973635F65767420666F7220692C
:10B220006E7374616E636520256420616E64206CAA
:10B23000696E6B20307825782100000070B50848D1
:10B24000FEF7E8F8044600BF254635B100BF05A269
:10B2500093212846FAF7DEFF00BF00BF70BD000053
:10B26000C9B102002E2E5C2E2E5C2E2E5C4C595F36
:10B27000424C455C6C795F626C652E630000000097
:10B280002DE9F04105460F460F4C0121204604F000
:10B2900074F9064600BF00BF00BF00BFBFF35F8F59
:10B2A00000BF00BF00BF0EB9012000E0002040B188
:10B2B000284603F01FF808B1BDE8F081024806F007
:10B2C0003BF900BFF8E70000746C002070B50C4932
:10B2D0000C4A891AC908032242EA01400AA105F072
:10B2E000C9FE0BF023FB044600BF254635B100BF65
:10B2F00009A2C4212846FAF78DFF00BF00BF70BD28
:10B30000F0D4030038D40300457261736520626F86
:10B310006E647321000000002E2E5C2E2E5C2E2EFB
:10B320005C4C595F424C455F50455249504845522C
:10B33000414C5C6C795F626C655F702E630000004D
:10B3400070B506460D460EB1012070BD287920B1BA
:10B35000012809D0022813D10FE0022028712846C5
:10B360000BF054FE04460DE0284601F0CBF90446EC
:10B370000A2C01D141F61D5404E041F61D5401E0B0
:10B380000F2400BF00BF2046DFE72DE9F84F044639
:10B390000F4690464FF0000B94F8C60200EB800178
:10B3A000C1EB801004EB400594F8C50200EBC0012E
:10B3B00005F10A0000EB410A94F8C502401C297906
:10B3C000884207D16B4600225146204602F09DFC80
:10B3D000834627E094F8C5621FE02879401EB042FA
:10B3E00002D14FF0000906E0701C00EBC00105F12E
:10B3F0000A0000EB41096B464A465146204602F0DE
:10B4000084FC10B14FF0010B0AE0CA4694F8C50263
:10B41000401C84F8C502701CC6B22879B042DCDC3E
:10B4200000BF00BFBBF1000F04D101203870002025
:10B43000BDE8F88F00203870694640469EDFF7E788
:10B440002DE9F04F85B04FF0000B56E02E48006814
:10B4500000EBCB04227801210020CDE90001084651
:10B460000099FAF7FEFF07468846284806C807EA0B
:10B47000010008EA0201002358405940084338D02F
:10B480002248D0E90010B94320EA08001F4AC2E967
:10B490000010207806F0FAFD824622780121002073
:10B4A000CDE9030108460399FAF7DBFF184B0CCBF3
:10B4B00000EA020601EA030522780020D146029044
:10B4C00048460299FAF7CDFF46404D402E430FD132
:10B4D0006078012800D100E0002080EA0A0080F0B6
:10B4E0000105606818B1E9B220786268904700BF32
:10B4F00000BF0BF1010000F0FF0B06480078834508
:10B50000A4DB05B0BDE8F08FA86D0020C06D002061
:10B51000B86D0020AC6D002070B5044620793D2840
:10B5200002D141F23D0001E04FF4885005462088E9
:10B530000022294602F090FD70BD00002DE9F04187
:10B5400004460D46164694F8C60200EB8001C1EB96
:10B55000801004EB400840460BF0CAFE0746B7B324
:10B560001C480068062832D21B481A49096800EBBB
:10B57000C11046801849174A126801EBC211081D14
:10B5800076224146FAF780FF3DB100201249114A68
:10B59000126801EBC211087006E002200E490D4A44
:10B5A000126801EBC21108700B480A49096800EBE8
:10B5B000C110C76707480068401C06490860084674
:10B5C000006806490968884201D109F0D1FDBDE84B
:10B5D000F0810000606C0020B4980020646C0020B2
:10B5E0002DE9F041A0B004460D46164694F8C60277
:10B5F00000EB8001C1EB801004EB400840460BF0EB
:10B6000077FE074657B17C22064901A8FAF73CFFAE
:10B61000ADF80660029501A8B84700BF20B0BDE8AC
:10B62000F081000050AE03002DE9F04104460D46C4
:10B630004FF433712046FAF740FFA4F8CA520020B5
:10B640002349086084F8C90284F8C60284F8C50258
:10B6500094F8C60200EB8001C1EB801004EB4007B8
:10B6600094F8C6021B4901EB8000006838601A4953
:10B670001A4A891AC908042242EA014018A105F0B1
:10B68000F9FC3A881449154BC91AC908042343EA3E
:10B6900001402B46164905F003FD3A460121284694
:10B6A0009BDF0646112E0CD000BF304608B1BDE826
:10B6B000F08100BF012084F8C702002084F8C8028E
:10B6C00004E0012084F8C70284F8C8020020EEE7F5
:10B6D000606C00209C98002050D4030038D40300F4
:10B6E000646973636F766572795F737461727400F5
:10B6F00028BA030010B50021034803F03EFF0446BA
:10B7000084F3100010BD0000D0B6002010B5044630
:10B71000204600F033F810BD10B51E2005F015F9D5
:10B7200009E0052000F04FF800F00BF8044604F0A3
:10B73000010000B900E0F4E700BF1E2005F033F976
:10B7400010BD70B5192005F02EF9002512E0192062
:10B7500005F0FBF86006040E1B2005F00CF910B193
:10B7600044F0010401E004F0FE04192005F01BF987
:10B77000681CC5B2082DEADB204670BD2DE9F041FA
:10B780000446B4F5001F01D2BDE8F081C4F30745BB
:10B79000C4F30726E7B200F031F81E2005F0D5F813
:10B7A000202000F010F8284600F00DF8304600F098
:10B7B0000AF8384600F007F81E2005F0F4F8FFF705
:10B7C000ABFF00BFE0E770B50546002413E0192089
:10B7D00005F0BBF805FA04F000F0800018B91A2053
:10B7E00005F0B3F802E01A2005F0DDF8192005F0A5
:10B7F000DAF8601CC4B2082CE9DB70BD10B51E205D
:10B8000005F0A3F80620FFF7DEFF1E2005F0CBF8B9
:10B8100010BD2DE9FF4F85B081468A460020039078
:10B8200083460798A0EB09040898A0EB0A06CDF818
:10B830000890CDF804A0002C01DD012705E00CB92B
:10B84000002702E04FF0FF376442002E02DD4FF088
:10B85000010806E016B94FF0000802E04FF0FF388B
:10B860006642B44201DD254600E0354600200490E2
:10B870001EE0019A91B2029A90B2129A00F053F827
:10B88000039820440390B3440398A84205DD03982D
:10B89000401B0390029838440290AB4504DDABEBAB
:10B8A000050B0198404401900498401C80B204901C
:10B8B000691C04988842DCDB09B0BDE8F08F2DE9F3
:10B8C000F05F0746884615461E46DDF8289000249E
:10B8D00008EB0600401E83B27819401E82B2414632
:10B8E0003846FAF77DFFA24619E04FF0000B10E052
:10B8F00019F81400FBF781F8012101EB440119F854
:10B900000100FBF77AF8601C84B20BF101001FFA0A
:10B9100080FBB345ECDB0AF101001FFA80FAAA456F
:10B92000E3DBBDE8F09F70B504460D4616462B4696
:10B93000224629462046FAF753FF3046FBF754F8D3
:10B9400070BD2DE9F84305460E4617469846089CFB
:10B9500033463A46314628460094FFF75AFF43469D
:10B960002A46314628460094FFF753FF43463A469D
:10B97000414628460094FFF74CFF43463A4631467D
:10B9800038460094FFF745FFBDE8F8832DE9F047FE
:10B9900006460F4614461D46DDF820A01349144AFA
:10B9A000891AC908032242EA014012A105F062FB8C
:10B9B000681E83B2601E82B239463046FAF710FF25
:10B9C000B8460EE0B14606E05046FBF70DF809F127
:10B9D00001001FFA80F9A145F6DB08F101001FFA0A
:10B9E00080F8A845EEDBBDE8F0870000F0D4030046
:10B9F00038D403006472765F6C63645F66696C6C54
:10BA00000D0A000010B5FAB00446002009E0F82243
:10BA100002AB03F8102000224100491C5A54411C7B
:10BA2000C8B2F028F3DB1E2004F02EFF1E2004F025
:10BA3000C5FF1C2004F028FF1C2004F0BFFF1820C5
:10BA400004F022FF182004F0B9FF032004F01CFFCB
:10BA5000032000BF4FF0A0410A46012303FA00F182
:10BA6000C2F80C1500BF00BF1149124A891AC90853
:10BA7000032242EA014010A105F0FCFAFAF7EAFEBF
:10BA80004FF6FF70F0231A46002100900846FFF79A
:10BA90007DFF00BF00BF0C4820600C4860600C4870
:10BAA000A0600C48E0600C4820617AB010BD000036
:10BAB000F0D4030038D403006472765F6C63645F73
:10BAC000696E69740D0A00008DB9020027B9020081
:10BAD00013B8020043B90200BFB8020070B58AB0C3
